:020000040800F2
:10000000000002209507000889070008F5990008FC
:100010008907000889070008890700080000000018
:100020000000000000000000000000008907000838
:100030008907000800000000890700087999000876
:100040008907000889070008890700088907000850
:100050008907000889070008890700088907000840
:10006000890700088907000889070008957E0008AD
:10007000A17E000821640008AD7E0008B97E00085A
:10008000F97201089D6E00088907000889070008B9
:100090008907000889070008890700088907000800
:1000A00089070008890700088907000889070008F0
:1000B000B9970008C5970008D1970008D16E0008CD
:1000C00089070008DD6E000889070008A98E00086E
:1000D000B58E0008097101083971010871710108B4
:1000E0008907000889070008000000008907000848
:1000F00089070008890700088907000889070008A0
:100100008907000889070008DD970008C18E0008EC
:10011000A9710108E1710108890700088907000831
:100120008907000889070008E58E0008198F000874
:100130002D7301088907000889070008890700084E
:1001400000000000000000000000000000000000AF
:100150008907000889070008890700081972010843
:10016000E96E00088907000889990008AD99000820
:1001700089070008D1990008890700088907000845
:10018000890700088907000851720108897201086F
:10019000CD8E0008D98E000889070008890700085D
:1001A00089070008890700088907000889070008EF
:1001B000D97A00088907000889070008890700081C
:1001C0008907000889070008295F0008355F0008D3
:1001D00089070008415F00088907000889070008AF
:1001E00089070008890700088907000889070008AF
:1001F000890700088907000889070008890700089F
:10020000890700088907000889070008890700088E
:10021000890700088907000889070008890700087E
:100220008907000889070008890700080000000006
:1002300089070008890700080000000089070008F6
:10024000890700088907000889070008890700084E
:10025000890700088907000889070008890700083E
:10026000890700088907000889070008890700082E
:100270008907000889070008C17201080000000012
:1002800089070008890700088907000800000000A6
:080290000000000089070008CE
:1002A00001F0FF01102A2BDB10F0070F08D010F827
:1002B000013B013A8B422DD010F0070F42B3F6D12B
:1002C000F0B441EA012141EA014122F007047FF044
:1002D00000070023F0E80256083C85EA010586EA9B
:1002E000010685FA47F5A3FA87F586FA47F6A5FAD7
:1002F00087F68EB9EED1F0BC01F0FF0102F00702E3
:1003000032B110F8013B013A83EA010313B1F8D18D
:100310000020704701387047002D06BF354603386E
:10032000073815F0010F07D1013015F4807F02BFA7
:10033000013015F4C03F0130F0BC0138704700BFF8
:10034000034613F8012B002AFBD1181A0138704715
:1003500081F0004102E000BF83F0004330B54FEA76
:1003600041044FEA430594EA050F08BF90EA020FE3
:100370001FBF54EA000C55EA020C7FEA645C7FEA76
:10038000655C00F0E2804FEA5454D4EB5555B8BF99
:100390006D420CDD2C4480EA020281EA030382EA0A
:1003A000000083EA010180EA020281EA0303362D9C
:1003B00088BF30BD11F0004F4FEA01314FF4801C6F
:1003C0004CEA113102D0404261EB410113F0004F81
:1003D0004FEA03334CEA133302D0524263EB430338
:1003E00094EA050F00F0A780A4F10104D5F1200ED6
:1003F0000DDB02FA0EFC22FA05F2801841F1000131
:1004000003FA0EF2801843FA05F359410EE0A5F104
:1004100020050EF1200E012A03FA0EFC28BF4CF035
:10042000020C43FA05F3C01851EBE37101F00045EB
:1004300007D54FF0000EDCF1000C7EEB00006EEBF8
:100440000101B1F5801F1BD3B1F5001F0CD3490882
:100450005FEA30004FEA3C0C04F101044FEA4452D9
:1004600012F5800F80F09A80BCF1004F08BF5FEA60
:10047000500C50F1000041EB045141EA050130BD40
:100480005FEA4C0C404141EB0101013C28BFB1F552
:10049000801FE9D291F0000F04BF01460020B1FA9D
:1004A00081F308BF2033A3F10B03B3F120020CDA70
:1004B0000C3208DD02F1140CC2F10C0201FA0CF04E
:1004C00021FA02F10CE002F11402D8BFC2F1200CB3
:1004D00001FA02F120FA0CFCDCBF41EA0C01904069
:1004E000E41AA2BF01EB0451294330BD6FEA0404B2
:1004F0001F3C1CDA0C340EDC04F11404C4F120029D
:1005000020FA04F001FA02F340EA030021FA04F3AE
:1005100045EA030130BDC4F10C04C4F1200220FA05
:1005200002F001FA04F340EA0300294630BD21FA43
:1005300004F0294630BD94F0000F83F4801306BF09
:1005400081F480110134013D4EE77FEA645C18BFFD
:100550007FEA655C29D094EA050F08BF90EA020F94
:1005600005D054EA000C04BF1946104630BD91EA8C
:10057000030F1EBF0021002030BD5FEA545C05D18F
:100580004000494128BF41F0004130BD14F58004CE
:100590003CBF01F5801130BD01F0004545F0FE4142
:1005A00041F470014FF0000030BD7FEA645C1ABF77
:1005B000194610467FEA655C1CBF0B46024650EAAE
:1005C000013406BF52EA033591EA030F41F40021DA
:1005D00030BD00BF90F0000F04BF0021704730B560
:1005E0004FF4806404F132044FF000054FF0000135
:1005F00050E700BF90F0000F04BF0021704730B5F6
:100600004FF4806404F1320410F0004548BF4042CA
:100610004FF000013EE700BF42004FEAE2014FEA1F
:1006200031014FEA02701FBF12F07F4393F07F4FFA
:1006300081F06051704732F07F4208BF704793F0FD
:100640007F4F04BF41F40021704730B54FF4607410
:1006500001F0004521F000411CE700BF50EA010213
:1006600008BF704730B54FF000050AE050EA0102BC
:1006700008BF704730B511F0004502D5404261EB2C
:1006800041014FF4806404F132045FEA915C3FF46D
:10069000D8AE4FF003025FEADC0C18BF03325FEA0A
:1006A000DC0C18BF033202EBDC02C2F1200300FABB
:1006B00003FC20FA02F001FA03FE40EA0E0021FAE0
:1006C00002F11444BDE600BF53B94AB9002908BF7E
:1006D00000281CBF4FF0FF314FF0FF3000F00CB886
:1006E000ADF1080C6DE904CE1BF0AEFADDF804E0C4
:1006F000DDE9022304B07047704700BF0348044B94
:10070000834202D0034B03B118477047740700249B
:1007100074070024000000000548064B1B1AD90F7F
:1007200001EBA301491002D0034B03B118477047F6
:1007300074070024740700240000000010B5064C64
:10074000237843B9FFF7DAFF044B13B10448AFF342
:1007500000800123237010BD7807002400000000F2
:1007600044CB010808B5054B1BB105490548AFF35B
:100770000080BDE80840FFF7CFBF00BF00000000C9
:100780007C07002444CB0108684620F007018D4611
:10079000FEE7000008B50C4A0C4B0D498B420BD10B
:1007A0000C4B00210C4A93420BD109F09DFB19F030
:1007B00065FB00F013F8FEE752F8040B43F8040B56
:1007C000ECE743F8041BEEE780CB010800000024AF
:1007D00074070024780700247C6A002400B5F9B06F
:1007E00001A801F0A1FD01A801F004FF01A801F09A
:1007F0006EFC01A801F074FD002079B05DF804FBE7
:1008000000224FF60B71C0E90222C0E900127047C6
:1008100030B40468BDF8085002956468A44630BC42
:100820006047000038B500256FF0F41304464561B9
:100830000562C0E90053C0E902332830FFF7E0FF4A
:1008400004F13C00FFF7DCFF04F15800FFF7D8FF8C
:10085000012304F1D802256784F874300023A4F83A
:100860007C50A3670223C4F8C850A4F8D630234BA9
:10087000C4F8D05018685968A4F8D450C4E9205579
:10088000C4E92255C4E92455C4E92655C4E92855CC
:10089000C4E92A55C4E92C55C4E92E55C4E930559C
:1008A00003C2986804F1E002D96803C218691060B5
:1008B0005869C4F8EC0004F1F000FFF7A1FF04F55B
:1008C0008270FFF79DFF04F58C70FFF799FF04F528
:1008D0009670FFF795FF04F5A070FFF791FF04F500
:1008E000AA70FFF78DFF1C22294604F5B670C4F8E4
:1008F000685119F016FA204638BD00BFE0BF010864
:1009000010B50446D0F8A40020B1D4F8AC10091AF0
:1009100018F03FF8D4F8980020B1D4F8A010091AC4
:1009200018F037F8D4F88C0020B1D4F89410091AD4
:1009300018F02FF8D4F8800020B1D4F88810091AE4
:1009400018F027F8204610BD30B52DED028BB0EE23
:10095000408A85B004460025D4F8B030AB4249DC6B
:10096000D4F8B410002399424FDCD4F8B810002317
:10097000994253DCD4F8BC100023994259DC94F816
:10098000743004F5B475DFED2F7A002B9FED2E7ACD
:100990004FF0000307FE277AC7EE087A0193012380
:1009A0008DF80C30FDEEE77A17EE903A013B02939A
:1009B0000323009394F87C3013B1284608F08AFF93
:1009C0006946284608F010FF42F20F71284608F0E9
:1009D0008BFF22461D49284608F0A2FF284608F052
:1009E00067FF012384ED1E8A84F87C3005B0BDECDE
:1009F000028B30BDD4F880302420B0EE480A00FBD2
:100A00000530013500F07AFFA6E7D4F88C202820C5
:100A100000FB0322013382ED018AA4E7D4F8982079
:100A2000602000FB0322013382ED018A82ED038AFC
:100A30009EE7D4F8A4202C2000FB0322013382ED92
:100A4000048A9AE70080BB4600409C46B50B00082C
:100A50002DE9F34190F87D50044655B102B0BDE850
:100A6000F081D4F8A4302C2000FB0530013505F0CE
:100A70000FF9D4F8BC30AB42F3DCD4F8CC30002B07
:100A8000ECD0D4F8C8300133C72B10DCC4F8C83020
:100A9000D4F8C43001330F2B27DCC4F8C430D4F8A9
:100AA000C0300133032B6ADCC4F8C030D6E7002520
:100AB000C4F8C850D4F8B0309D42E9DA2423D4F801
:100AC00080206B43D118D35888881B881A1A4B6032
:100AD000002AB8BF5242102A05DD00902A46D4F8F9
:100AE000CC0001F084FA0135E4E7002504F1D006DA
:100AF000C4F8C450D4F8B4309D42D0DA4FF028087E
:100B0000D4F88C0008FB05F8404400F052FFD4F8FC
:100B10008C70474497F820307F2B0AD100232A4657
:100B20003946D4F8CC00337001F070FA0135013643
:100B3000E0E7802B08D100232A463946D4F8CC00C0
:100B4000337001F072FAF1E7FF2BEFD108F0C2FF2A
:100B50003378002BEAD17B6AC01AB0F5FA6FE5DB77
:100B600007EE900A0123D4F88C102A46B8EEE70A63
:100B7000D4F8CC004144337001F066FAD6E7002582
:100B8000C4F8C050D4F8B8309D42BFF667AF6026B5
:100B9000D4F898006E43304400F053FFD4F8981016
:100BA0003144CB6D23B12A46D4F8CC0001F05EFA73
:100BB0000135E7E7FFF74CBFF0B51E4A87B01E4985
:100BC000F0251E484FF4A07702F022FD01211B48BA
:100BD00005AE02F094FF0123009719491748CDE9AB
:100BE000015300231A4603F02DF9002200F11804E6
:100BF000144B1146204605933B46134FCDE9005652
:100C0000FFF706FE50232046002219460597CDE93E
:100C10000056FFF7FDFD20462B460022294605978A
:100C2000CDE90056FFF7F4FD044807B0BDE8F040F9
:100C300003F063BC00B004C000000030940700243F
:100C4000000000C0946F09FFC29417FF2DE9F84F10
:100C5000D0E9009A2B4A8046AAEB09072A4E0C4697
:100C6000FB105343B34202D1284817F0B0FE012BCA
:100C70001A4638BF01229B1802D29E4228BF1E4648
:100C800028235E43304617F086FE054600EB070C2E
:100C9000CE46AB460FCCACE80F000FCCACE80F0053
:100CA00094E803008CE80300F2450BF1280B19D1FE
:100CB000174BFF085F43282327F0604707FB0333E8
:100CC000EC18B9F1000F06D0D8F808104846A1EB8F
:100CD000090117F05EFEC8E900543544C8F8085011
:100CE000BDE8F88FF446ABF128040EF1280EBCE8FD
:100CF0000F000FC4BCE80F000FC49CE8030084E899
:100D00000300D1E7CDCCCCCC333333033AC0010858
:100D1000CDCCCC0C2DE9F04F0123C7B004464FF0E9
:100D2000000AC0F8B03019A8FFF76AFD1EA8FFF747
:100D300067FD23A8FFF764FD28A8FFF761FD0222E5
:100D4000B4F8D61019A805F001F904F11803D4F885
:100D5000B02019A9029304F11800042305F006F944
:100D6000D4F8B030534573DC04234FF00008C4F8C6
:100D7000B430D4F8B4300027434500F3E4800223B4
:100D8000C4F8B830D4F8B820BA4200F30C81D4F8D3
:100D9000B4304FF0000B1344C4F8B4300223C4F84D
:100DA000BC30D4F8BC3000255B4500F3B181C84BA2
:100DB0002A460095587819782B4641EA002104F11B
:100DC000F00005F0FDFDC34B2A46009558781978D0
:100DD0002B4641EA002104F5827005F0F1FDBE4B7F
:100DE0002A460095587819782B4641EA002104F5E7
:100DF0008C7005F0E5FDB94B2A46009558781978B6
:100E00002B4641EA002104F5967005F0D9FDB44B5C
:100E10002A460095587819782B4641EA002104F5B6
:100E2000A07005F0CDFDAF4B0122009558781978E0
:100E30002B4641EA002104F5AA7005F0C1FDAA483D
:100E400004F04CFF029805F07DFA47B0BDE8F08F42
:100E50005FFA8AF1029805F089FA002394ED1E0AE0
:100E60000146DFEDA27A1A46DFEDA10A05A880EE61
:100E7000270A00F0FDFCD4E921539D420DD005AFB7
:100E80002E4624350FCF0FC60FCF0FC63B683360F9
:100E9000C4F884500AF1010A62E7D4F88090DFF8C0
:100EA0006CB2A5EB0907934ABB100BFB03F393420B
:100EB00002D1914817F08BFD012B194638BF012153
:100EC0005B1802D29A4228BF1A46242305AE534328
:100ED0001846039317F05FFD80460744CC46C6468C
:100EE0000FCE0FC70FCE0FC733683B6065450EF1BD
:100EF000240E1CD1A5EB09052423AD080BFB05F539
:100F000025F0404505FB033308EB0305B9F1000F5D
:100F100006D0D4F888104846A1EB090117F039FD36
:100F2000039B4344C4E92085C4F88830B2E7674690
:100F3000AEF124060CF1240C0FCF0FC60FCF0FC655
:100F40003B683360D2E74FF60B7394ED1E0A3946C7
:100F5000DFED6A7A2EA820EE270ACDE9313708F1B5
:100F60006C0334F8133063F30F01CDE9337700F0ED
:100F700013FDD4E924739F420FD02EAE3D4628378F
:100F80000FCE0FC50FCE0FC596E8030085E803000E
:100F9000C4F8907008F10108EBE62EA904F18C006A
:100FA000FFF754FEF6E70621F5EE007A00234FF630
:100FB0000B7201FB074194ED1E0A2EA820EE270AB2
:100FC000CDE93323CDE93A23CDE93F23CDE93533CC
:100FD000B1F8E220CDE93C33CDE94133B1F8E4305A
:100FE000B1F8E01000F0FAFCD4E927A39A451CD030
:100FF00060222EA9504618F068FF0AF16003C4F879
:101000009C30D4E924C39C455CD030AE65460FCEFD
:101010000FC50FCE0FC50CF1280396E8030085E835
:101020000300C4F890300137ACE6D4F89890344A05
:10103000AAEB0908334E4FEA68135343B3423FF417
:1010400038AF012B1A4638BF01229B1802D29E42AC
:1010500028BF1E464FF0600B0BFB06F6304617F01C
:101060009AFC05465A462EA94044AB4618F02DFF7F
:1010700049468A450BF1600B1BD1234B4FEA5818A8
:1010800003FB08F8602328F0784808FB033305EBDE
:101090000308B9F1000F06D0D4F8A0104846A1EB20
:1010A000090117F076FCC4E926583544C4F8A0506D
:1010B000A7E76022ABF16000039118F006FF0399E7
:1010C0006031D6E730A904F18C00FFF7BFFDAAE735
:1010D000A9C20108A7C20108A1C20108A3C2010850
:1010E000A5C20108ABC2010854C001080000484372
:1010F0006F12033BE3388E033AC001080000803DC5
:10110000ABAAAAAA55555501ABAAAA02398EE33853
:101110004FF60B7329462A4694ED1E0A0EA8CDE918
:10112000143504EB4B03B3F8EC3063F30F01CDE956
:10113000165504F083FDD4E92A539D420FD00EAF1B
:101140002E462C350FCF0FC60FCF0FC697E80700DE
:1011500086E80700C4F8A8500BF1010B21E6D4F88B
:10116000A4A02A4AA5EB0A07BB105343284A93427E
:101170003FF49FAE012B194638BF01215B1802D204
:101180009A4228BF1A462C230EAE03FB02F94846AA
:1011900017F001FC80460744D446C6460FCE0FC761
:1011A0000FCE0FC796E8070087E8070065450EF1E8
:1011B0002C0E1CD1A5EB0A05164BAD085D432C2364
:1011C00025F0404505FB033308EB0305BAF1000F9A
:1011D00006D0D4F8AC105046A1EB0A0117F0D9FBA9
:1011E00008EB0903C4E92985C4F8AC30B4E76746C5
:1011F000AEF12C060CF12C0C0FCF0FC60FCF0FC683
:1012000097E8070086E80700D0E700BFA38B2EBA57
:101210002EBAE802A38B2E3A10B50446C0F8CC10C3
:1012200090F8741003F02EFB012004F0B9FD204665
:10123000FFF7C2FC2046FFF76DFD4FF47A7008F00F
:1012400051FC20469FED050AFFF77EFB08F0FAFDF2
:1012500001460348BDE8104004F040BD0000FA44D8
:1012600061C0010808B52A22124B13481A705A713E
:101270009A72DA731A752B225A769A7783F823209A
:1012800083F8282083F82D202C2283F8322083F83D
:10129000332683F8342C03F5805383F8352283F802
:1012A000362802F073F9054A05490348BDE80840AD
:1012B00017F06ABB000000309407002400000024EF
:1012C000D335000800207047012070470220704786
:1012D000074B10B504460360406804F10C039842C4
:1012E00003D0E168013117F054FB204610BD00BF68
:1012F000B8C20108034B10B504460360FFF7E8FFCE
:10130000204610BDCCC2010810B50446FFF7F2FF1D
:101310003021204617F03DFB204610BD034B10B591
:1013200004460360FFF7D4FF204610BDE0C2010869
:1013300010B50446FFF7F2FF3021204617F029FBD5
:10134000204610BD034B10B504460360FFF7C0FFF5
:10135000204610BDF4C2010810B50446FFF7F2FFA5
:101360003021204617F015FB204610BD90ED090AEC
:10137000704790ED077A90ED090AD0ED087A30EECB
:10138000470A77EEC77A80EE270A70470430704725
:10139000806A7047D0ED077AF4EEC07AF1EE10FA69
:1013A00008DCD0ED087AF4EEC07AF1EE10FA58BFFE
:1013B000F0EE407AC0ED097A704708B5FFF7D9FF23
:1013C00007EE901AB8EEE77AF6EE007AE7EE007ACA
:1013D000FDEEE77A17EE900A002803DB8842A8BFEB
:1013E000084608BD0020FCE708B5C36AF0EE400AD5
:1013F000013B052B0ED8DFE803F003191022393C1E
:101400009FED1D0A17F0F4FADFED1C7ADFED1C0AE0
:10141000E0EE270AB0EE600A08BD9FED1A0A17F049
:10142000E7FADFED197ADFED190AF1E7B2EE020A09
:1014300017F0DEFAF4EE007AFCEE000AE8E7F6EECA
:10144000007AB4EEE70AF1EE10FA04D570EE007AF5
:1014500060EEA70ADEE7B7EE007A77EE407A77EE25
:10146000A76AA6EEE77AF0EE470AD3E760EE000A35
:10147000D0E760EE007AEBE7721C574283379B3C63
:1014800083379BBCA154983CDE6C82BFDE6C823FEC
:1014900010B50446FFF7A8FFD4ED077A94ED087A5B
:1014A00037EE677AE7EE007AC4ED097A10BD07EEF1
:1014B000901AD0ED0B6A90ED097AF8EEE77AA7EE74
:1014C000A67AD0ED077AB4EEE77AF1EE10FA07D4F7
:1014D000D0ED087AB4EEE77AF1EE10FA77FE877A6B
:1014E000C0ED097A704707EE901AD0ED0B6A90EDC7
:1014F000097AF8EEE77AA7EEE67AD0ED077AB4EE4D
:10150000E77AF1EE10FA07D4D0ED087AB4EEE77A74
:10151000F1EE10FA77FE877AC0ED097A7047000085
:1015200090F82C30B7EE007ADFED057A83F00103F6
:10153000002B80F82C3047FE877AC0ED097A70477F
:101540000000000090F82C007047000070B50446C1
:1015500008302060D1E900650F2D11D9002D02DA85
:101560000E4817F034FA681C01D517F027FA17F067
:1015700012FAA56020602A46314618F0A6FC03E066
:10158000012D07D13378237223680022656020463D
:101590005A5570BD002DF7D0EDE700BF77C00108A8
:1015A00070B51E460E4B044615462DED048BB0EE6D
:1015B000409A40F8043BF0EE608AB0EE418AFFF7B3
:1015C000C5FF084B204684ED079AC4ED088A84EDD8
:1015D000098AA6622360E562BDEC048B70BD00BF82
:1015E000B8C20108CCC2010838B5104B04461546F4
:1015F0002DED048BF0EE409A40F8043BB0EE609A7B
:10160000F0EE418AB0EE618AFFF7A0FF084B20465A
:10161000C4ED079A84ED089AC4ED098A84ED0B8A1B
:10162000A5622360BDEC048B38BD00BFB8C20108C1
:10163000E0C2010870B51E460E4B0446151E2DED86
:10164000048BB7EE008ADFED0C8A40F8043B08FEFD
:10165000889AFFF77BFF094B2046C4ED078A84ED8B
:10166000088A84ED099AA662236084F82C50BDECA8
:10167000048B70BDB8C2010800000000F4C201086C
:101680002DE9F04115461A4603680446DDE9068651
:10169000DF683346B847236842462946DF6820465C
:1016A0003346BC46BDE8F0416047000070B52DED03
:1016B000028BB0EE408A0446002580ED0C0AD4E986
:1016C00007239B1AB5EBA30F02D3BDEC028B70BDB1
:1016D00052F82500FFF75AFE4268042A04D10B494C
:1016E000006818F0F5FA08B10135E8E7E369B0EEF3
:1016F000480A53F82500FFF74DFE236820465B6932
:10170000BDEC028BBDE87040184700BF07C101085F
:1017100070B5194A044640F80C2B6060D1E90065A9
:101720000F2D11D9002D02DA144817F050F9681C5A
:1017300001D517F043F917F02EF9E56060602A46ED
:10174000314618F0C2FB03E0012D11D13378237329
:1017500000236268A560204653556362C4E90733DD
:10176000012384F82830064BE3620023236370BD15
:10177000002DEDD0E3E700BF08C3010877C00108E2
:1017800000803B470A4B10B504460360C06918B19E
:10179000616A091A17F0FDF8606804F10C039842B9
:1017A00003D0E168013117F0F4F8204610BD00BF06
:1017B00008C30108D0E907239B1AB1EBA30F34BF7C
:1017C00052F8210000207047D0E90703181A801052
:1017D000704700002DE9F843D0E900846FF06043C2
:1017E0000746A4EB08048946B3EBA40F4FEAA40212
:1017F00002D1154817F0EBF8012A114638BF012134
:10180000521802D2934228BF13469E00304617F06A
:10181000C2F8D9F80030002C0546035103DD2246FA
:10182000414618F052FB04342C44B8F1000F05D0A7
:10183000B9684046A1EB080117F0ABF8C7E90054BE
:101840003544BD60BDE8F8833AC0010807B5019191
:1018500031B1D0E90832934205D043F8041B03624A
:1018600003B05DF804FB01A91C30FFF7B3FFF7E7F5
:10187000F6EE007A80ED030A20EE200ADFED136A0F
:10188000B7EE007A0160C0ED046A20EE270AC7EEC9
:10189000007AF4EEC77AF1EE10FA13DCF4EEE67A91
:1018A000F1EE10FA48BFF0EE667A43770023C0ED00
:1018B000027A80ED057AC0ED066A02778377C0ED83
:1018C000080A7047F0EE477AEFE700BF000000001B
:1018D000D0ED017ADFED086AB8EEE77A90ED040A00
:1018E000C7EE267A90ED027A77EEC07AA7EE270A45
:1018F00080ED040A704700BF00FF7F47837F80EDC3
:10190000030AE3B9D0ED087A27EE800AF6EE007AF2
:1019100020EE270AF7EE007A87EE807AB4EEE77AB7
:10192000F1EE10FA08DCB5EEC07ADFED067AF1EEE2
:1019300010FA58BFF0EE477AC0ED027A7047DFED3B
:10194000027AE1E7000000006F12033BF0B51D468C
:10195000044616462DED028B83B0B0EE408A0A9FF6
:10196000ADF8041008F0B8F86B1E0022206004F1F6
:101970000C005D4284F8202001995D413B4684EDD6
:10198000018A267284F821500A9203B0BDEC028BC2
:10199000BDE8F04005F014B81FB50023ADF80C10F9
:1019A0000399009301231A46FFF7D0FF05B05DF8B5
:1019B00004FB10B504460C3005F010F994F8213002
:1019C00094F82020434043EA4203DBB27F2B84F8A3
:1019D000203002D108F07EF8606210BD30B52DEDE8
:1019E000028BB0EE408A87B004460025ADF8141093
:1019F000ADF81020ADF80C3008F06CF82B462060E4
:101A00002A46059904F1300084ED018A009504F01E
:101A1000D7FF2B462A46049904F14400009504F0B0
:101A2000CFFFB0EE480A039904F10800FFF7B4FFB6
:101A30004FF6FF73E565A4F8583007B0BDEC028B94
:101A400030BD38B5044608F045F82368834224D0F9
:101A500094F85850206004F130006D0005F0BEF895
:101A60006DB2054304F1440084F8585094F859507D
:101A700005F0B4F800236D00E3656DB294F85830BA
:101A8000284303F0030340B2022B84F8590000F00E
:101A9000030003D108B90123E36538BD0228FCD156
:101AA000002BFAD14FF0FF33F6E7836810B50446F8
:101AB00013B1032201469847204610BD70B5054674
:101AC0000E461446B54201D1204670BDEA68002397
:101AD000E260AA68A360C4E9003332B1A26095E86D
:101AE0000300C5E9023384E803002B6928461C344F
:101AF0001C3544F80C3C55F8083C44F8083C55F8B3
:101B0000043C44F8043CFFF7D0FFDBE7F8B50023C2
:101B10000446C0E90033C0E90233C0E90533C0E937
:101B20000733C0E90933C0E90B33082303612020E0
:101B300016F031FF25690646E060013D6D0800EBB7
:101B400085074FF4FA7016F026FF00F5FA7346F891
:101B50002500A061606160622762E3612763C4E9D8
:101B60000A032046F8BD2DE9F041D1E9055ECF69B1
:101B70000646AC4680460C46143FBCE80F00BD420A
:101B80000FC6DCF80030336004D014354046656180
:101B9000BDE8F0814FF4FA71704616F0FAFE236A40
:101BA0005D681A1D226205F5FA72A561E261EDE732
:101BB00070B50D46D0E90046A64200D170BD22693D
:101BC0002B689A4216D1626972B16B68981A4342C7
:101BD0004341A269511C0FD063B1AB689A4209D14D
:101BE000A3681BB916F0F6FE0123F2E7E368294665
:101BF000204698471C34DFE7002BFBD0F0E710B5F8
:101C0000044686B0626A63699A4201D106B010BD8B
:101C1000214601A8FFF7A7FF019B13B90298FFF720
:101C200057FE01A92046FFF7C3FFEBE738B50023B5
:101C300004460D46C0E90033C0E902338B682BB17E
:101C400002229847EB68E360AB68A360204638BD8A
:101C500010B504461046D4E900230B4C9B1A0B4ADE
:101C60009B105343E21A8A4201D216F0B0FE994209
:101C700038BF19465B1804D2A34228BF2346184632
:101C800010BD2046FCE700BF24499204B76DDBB6C7
:101C90002DE9F04F994687B0044692460191D0E96C
:101CA00001639E4214D002A8FFF7C0FF02A930468C
:101CB000FFF7BCFF4FF0FF3302A8B361C6E904A9E8
:101CC000FFF7F3FE63681C33636007B0BDE8F08F75
:101CD00001211A4AFFF7BCFF1C22D4F800B002FB16
:101CE00000F8A6EB0B07404616F055FE07440546E4
:101CF000019902A8FFF79AFF02A93846FFF796FF5D
:101D00004FF0FF3202A8BA61C7E904A9FFF7CDFE80
:101D100031462A465846FFF7D1FE00F11C06BBF1BA
:101D2000000F05D0A1685846A1EB0B0116F031FE5B
:101D3000C4E900564544A560C7E700BF3AC00108A2
:101D40002DE9F04F994687B0044692460191D0E9BB
:101D500001639E4214D002A8FFF768FF02A9304633
:101D6000FFF764FF002302A8C6F810A0C6E90539F2
:101D7000FFF79BFE63681C33636007B0BDE8F08F1C
:101D800001211A4AFFF764FF1C22D4F800B002FBBD
:101D900000F8A6EB0B07404616F0FDFD074405468C
:101DA000019902A8FFF742FF02A93846FFF73EFF5C
:101DB000002202A8C7F810A0C7E90529FFF775FEA1
:101DC00031462A465846FFF779FE00F11C06BBF162
:101DD000000F05D0A1685846A1EB0B0116F0D9FD04
:101DE000C4E900564544A560C7E700BF3AC00108F2
:101DF000F8B5476805460C468F4207D00E46304678
:101E00001C36FFF752FEB742F9D16C60F8BD70B5D1
:101E100004460168FFF7ECFFE3684BB1236B256ACA
:101E20001E1DAE4210D82169E068890016F0B1FD90
:101E3000D4E90056AE420ED1206818B1A168091A43
:101E400016F0A7FD204670BD4FF4FA7155F8040B4B
:101E500016F09FFDE5E728461C35FFF726FEE9E76B
:101E6000C368CA689A1A003B18BF0123C3EBA202D9
:101E7000D0E9003010B51B1A064819249B104343C3
:101E800004FB02338A680968521A921000FB023080
:101E900010BD00BFCDCCCCCC2DE9F04704460E469A
:101EA00000F108011830FFF7DBFF454B984202D1E3
:101EB000444816F08CFD656A206863682A1AA3EB13
:101EC000A202012A2BD861696F1A4FEAA70808F10C
:101ED0000202B3EB420F42D99B1A2A1D5B08521A29
:101EE00000EB830841452FD9042A03DD404617F053
:101EF000FFFE03E002D10A6840F82320D8F8003042
:101F000008EB0705C4F81480E36003F5FA73656213
:101F1000236158F80730E36103F5FA7323624FF445
:101F2000FA7016F038FD6860A5690FCE0FC53368EA
:101F30002B60636A1A1D5B68626203F5FA72E361E3
:101F40002262A361BDE8F087381D042A404401DD08
:101F5000801ACCE7D2D10B6840F8043CCEE7012BC5
:101F60002CBFDD185D1C05F10209B9F1005F06D335
:101F7000B9F1804F01D316F024FD16F01FFD4FEA92
:101F8000890016F008FD626A6169A5EB0803043256
:101F900082465B08521A00EB8308042A0ADD404699
:101FA00017F0A6FE61682068890016F0F2FCC4E90B
:101FB00000A9A3E704BF0A6840F82320F2E700BFA6
:101FC000CCCCCC0C8FC00108F8B5036A06468769F3
:101FD0000C46143B9F4207D03D4614370FCC0FC52B
:101FE00023682B60B761F8BDFFF756FFFBE710B51C
:101FF000002486B00C30CDE90141CDE9032301A9CD
:10200000089B0593FFF7E0FF06B010BD7FB50023E6
:102010000C300392CDE904330123CDE9013101A94C
:10202000FFF7D2FF07B05DF804FB7FB500230C304B
:102030000392CDE904330223CDE9013101A9FFF771
:10204000C3FF07B05DF804FB7FB50023BDEEC00AF7
:102050000C300392059303238DED040ACDE9013181
:1020600001A9FFF7B1FF07B05DF804FB10B500242C
:1020700086B00C3005940424CDE901410DEB040138
:10208000CDE90323FFF7A0FF06B010BD044608B555
:10209000201DFFF7B4FDFBE7044B10B5044640F8E4
:1020A000043BFFF733FD204610BD00BF2CC30108E1
:1020B000044B10B5044640F8043BFFF7A8FE204649
:1020C00010BD00BF2CC301080430704770470446A0
:1020D00008B50125201D84F8B550FFF790FD0023B9
:1020E000294604F1380084F8B53002F005FBF0E72A
:1020F0000368D3F8C0312DE9F04104460F465BBBBD
:10210000BDE8F08101362368D3F8C001FFF75CFB1E
:102110008642F5D223683146D3F8C001FFF74AFB67
:1021200005460028EED0FFF733F9BB689842E9D1A5
:102130002B6828469B68984730B997ED030A2846D4
:10214000B8EEC00AFFF7A4F92368D3F8C00103680A
:10215000BDE8F0415B6918470026D4E70368D3F86F
:10216000C0312DE9F04105460F468BBBBDE8F0813B
:1021700001362B68D3F8C001FFF726FB8642F5D263
:102180002B683146D3F8C001FFF714FB0446002842
:10219000EED0FFF7FDF8BB689842E9D123682046EE
:1021A0009B689847012805D1F96800290ADD204677
:1021B000FFF77DF92B68D3F8C0010368BDE8F04153
:1021C0005B691847F6D049422046FFF78CF9F1E7E2
:1021D0000026CEE70368D3F8C0312DE9F04104466C
:1021E0000F4643BBBDE8F08101362368D3F8C00138
:1021F000FFF7EAFA8642F5D223683146D3F8C001E8
:10220000FFF7D8FA05460028EED0FFF7C1F8BB6803
:102210009842E9D12B6828469B689847022802D14A
:102220002846FFF77DF92368D3F8C0010368BDE8AD
:10223000F0415B6918470026D7E7012A02D1016007
:1022400000207047022A05D0032AF9D0002AF7D1CE
:102250000260F5E70B680360F2E7012A02D1016032
:1022600000207047002AFBD10260F9E7012A02D161
:10227000016000207047002AFBD10260F9E7012AC3
:1022800002D1016000207047022A05D0032AF9D04C
:10229000002AF7D10260F5E70B680360F2E7012A34
:1022A00002D1016000207047022A05D0032AF9D02C
:1022B000002AF7D10260F5E70B680360F2E7012A14
:1022C00002D1016000207047022A05D0032AF9D00C
:1022D000002AF7D10260F5E70B680360F2E700001F
:1022E0000A4B10B504460360D0F8C40120B1D4F8FD
:1022F000CC11091A16F04DFB04F13800FEF700FB73
:102300002046FFF7D5FE204610BD00BF44C301089C
:1023100010B50446FFF7E4FF4FF4EE71204616F0C7
:1023200038FB204610BD704710B50446FFF7B4FED9
:10233000094B204640F8383BFEF774FA002301228F
:102340002046C4E97033C4E97233C4E97533034BE2
:1023500084F8D0211C6010BD44C301087808002413
:1023600037B50446D0F8C001F0B194F8D041F4B9C3
:10237000046801935368009313682469D1E900123B
:10238000A04703B030BD0C6804EB800425681468D6
:1023900004EB800425604C6804EB800425685468D5
:1023A00004EB8004013025609842ECD1E9E700207D
:1023B000FAE700001346074A10B40446106828B133
:1023C0000A4621465DF8044BFFF7CABF5DF8044B8F
:1023D000704700BF780800247FB52F4B0024061DEE
:1023E0000546039322462D4B6946CDE9000402932E
:1023F00030462346FFF74CFC6846FFF756FB284B58
:102400006946042203933046264B02932346CDE9C6
:102410000054FFF73DFC6846FFF747FB224B694637
:10242000012203933046214B02932346CDE9005409
:10243000FFF72EFC6846FFF738FB1D4B6946042268
:10244000039330461B4B02932346CDE90044FFF72C
:1024500077FC6846FFF729FB174B69460222039376
:102460003046164B02930123CDE90044FFF768FC88
:102470006846FFF71AFB124B012269460393304668
:10248000104B02930223CDE90054FFF759FC684634
:10249000FFF70BFB04B070BDF1200008BF2200085D
:1024A0005D2100089F220008D52100087F22000836
:1024B000CD2000086D220008272300085B220008B9
:1024C000112500083B22000838B5D0F8C031044679
:1024D000D3B107F0FFFAD4F8D431054693B1C31A4B
:1024E000B3F5FA6F0ED207EE903AD4F8C0019FED23
:1024F000070AF8EEE77AC4F8D831036880EE270AB5
:102500009B699847C4F8D45138BD00BF00007A4495
:102510000068FFF7D9BF00002DE9F843D0E9008437
:102520006FF060430746A4EB08048946B3EBA40FA1
:102530004FEAA40202D1154816F049FA012A1146C1
:1025400038BF0121521802D2934228BF13469E0081
:10255000304616F020FAD9F80030002C0546035119
:1025600003DD2246414617F0B0FC04342C44B8F198
:10257000000F05D0B9684046A1EB080116F009FA32
:10258000C7E900543544BD60BDE8F8833AC001088E
:1025900030B5044638302DED028B83B002F0B4F82C
:1025A0001348B0EE408A16F0F6F9054600F03EF901
:1025B000B0EE480A284600F05FF90195D4E972327E
:1025C00093420ED043F8045BC4F8C831D4E97132A9
:1025D0009A421CBF1B68C4F8C03103B0BDEC028B2B
:1025E00030BD01A904F5E270FFF796FFEEE700BFEA
:1025F000B0B80B0038B500F138050446FFF764FDAC
:1026000001462846FEF708FE2046FFF7C1FF204698
:10261000FFF7E2FE28460249BDE8384002F070B8F4
:10262000B52300080246034652F8080B904203D037
:102630009968013116F0ADB970470000F8B500F1A6
:10264000080604460F46066011B9114816F0BCF999
:102650000846FDF775FE0F2805460BD9013016F028
:102660009AF906462060A5602A463946304617F09A
:102670002CFC03E0012807D13B7823722368002259
:10268000656020465A55F8BD0028F7D0ECE700BF3A
:10269000BFC00108034B10B504460360FFF772F892
:1026A000204610BD5CC3010810B50446FFF7F2FFD9
:1026B0000249204616F06DF9204610BDB0B80B0057
:1026C00010B5044680ED020A16F058F984ED070AA9
:1026D00010BDD0E9072310B59B1A0446102B14D95E
:1026E000106903689B68984778B9E36906211869FF
:1026F000FEF763FE062808D8DFE800F004160A0794
:102700000D101300B5EE000A10BDB7EE000AFBE78E
:10271000B6EE080AF8E7B7EE040AF5E7B7EE080ADE
:10272000F2E7B0EE000AEFE7B6EE000AECE70000D1
:1027300008B500F53B23F6EE007A9FED147A03F618
:10274000A4039FED136AD3ED006A66EEA76AF0EE6C
:10275000477A2DED028BE6EE867ADFED0E6AC7FE34
:10276000877AC7FEE67AD0ED0C6AF5EEC06AF1EE24
:1027700010FAC8BF66EE877A87EE278AFFF7A9FFAF
:1027800028EE000ABDEC028B08BD00BF00007042BD
:102790000000344300007043D0E9072370B59B1A52
:1027A0000546182B2DED028B38D9906805F53B2492
:1027B000FEF7DCFDB0EE408A04F6780604F64C0025
:1027C000FFF77EFFB0EE480A3046FFF779FFB5EE1F
:1027D000007AD6ED067AEB6977EE877A5869C6ED0E
:1027E000067AFEF7C3FD04F6A40383ED000AEB6945
:1027F000986903689B689847022805D1EB69986936
:10280000FEF7A0FE84F8AC0894F8AC384BB128462B
:10281000FFF78EFF04F6A80484ED000ABDEC028BDE
:1028200070BD04F6A40393ED000AF3E710B588B079
:1028300004460F4901AA02A8FFF700FF02A920469B
:10284000FEF766FF02A8FFF7EDFE0A4B4FF07C5241
:102850002046236004F53B2303F6A4010A6003F637
:10286000A8010A60002283F8AC2808B010BD00BFA0
:10287000F1C001085CC301082DE9F0432DED068B82
:10288000B0EE409A0446F7EE009A89B0964A0021CD
:1028900080ED0B0A4030C9EE89AA002517F041FAF5
:1028A0004FF0010804F5BB2004F53B2729468E4A6A
:1028B00000F24C4007F64C06B6EE008ADFED8B8A3C
:1028C0009FED8BAA40F20119C4E90E5817F029FABE
:1028D00004F5BA233046B0EE4A0AC3F8445CC3F8A4
:1028E000488C86ED049A86ED02AA86ED018AC6ED33
:1028F00005AA86ED038AC6ED068A16F03FF8304633
:1029000086ED070AB0EE480A87F84C58A7F8749885
:10291000C6ED019A07F67806FFF7D2FEB0EE4A0A36
:10292000304686ED049AC6ED05AA86ED02AA86ED2C
:10293000018A86ED038AC6ED068A16F01FF8304636
:1029400086ED070AB0EE480A87F87858A7F8A098ED
:10295000C6ED019AFFF7B4FE302016F01CF80646CB
:1029600001AA644902A8FFF769FEB0EE481AF0EE2A
:10297000690A2B46B0EE680A2A4602A93046FEF7DD
:102980000FFE31462046FEF761FF02A8FFF74AFE20
:10299000302016F000F8064601AA574902A8FFF7B2
:1029A0004DFEB0EE481AB0EE680A43462A46DFED07
:1029B000530A02A93046FEF7F3FD31462046FEF7E2
:1029C00045FF02A8FFF72EFE302015F0E4FF064673
:1029D00001AA4B4902A8FFF731FEB0EE481AB0EE4B
:1029E000680A0223F2EE040A424602A93046FEF7C4
:1029F000D7FD31462046FEF729FF02A8FFF712FE59
:102A0000302015F0C8FF064601AA3E4902A8FFF78C
:102A100015FEB0EE681AB0EE680A03232A46DFED11
:102A20003A0A02A93046FEF7BBFD31462046FEF7C2
:102A30000DFF02A8FFF7F6FD302015F0ACFF0646AB
:102A400001AA324902A8FFF7F9FD0423B0EE680A93
:102A50002A46B0EE081A02A9F1EE080A3046FEF73F
:102A60009FFD31462046FEF7F1FE02A8FFF7DAFD92
:102A7000302015F090FF064601AA254902A8FFF76D
:102A8000DDFDB0EE481AF0EE000ADFED221A9FEDF0
:102A9000220A2A4602A93046FEF7A6FD3146204604
:102AA000FEF7D4FE02A8FFF7BDFD302015F073FF3E
:102AB000064601AA194902A8FFF7C0FD05232A46C8
:102AC00002A93046FEF7B6FD31462046FEF7BEFEAF
:102AD00002A8FFF7A7FD236820465B6909B0BDEC9B
:102AE000068BBDE8F043184700DC0500000000003D
:102AF0000000C842F7C00108FBC001083333733F30
:102B000004C101080CC101080000484215C10108B8
:102B100021C101080AD7A33B6F12833A26C10108DD
:102B2000D0E901320C49134490ED007AB3FBF1F285
:102B300001FB1232013300EB820292ED030AB3FB78
:102B4000F1F201FB123300EB8303D3ED037A77EE4E
:102B5000C07AA7EE870A7047007701002DE9F04F91
:102B60001F4690F8283004460D4616462DED068B7C
:102B700083B09BB9DDE9123201EB82094D4504D1E6
:102B800003B0BDEC068BBDE8F08F55F8042B47F879
:102B9000042B56F8042B43F8042BEFE7D0E9073257
:102BA0009A4200F0BD801868FEF7E0FBB0EE408A64
:102BB000D4E907239B1A042B40F2B5805068FEF736
:102BC000D5FBB0EE40AAD4E907239B1A0C2B40F2A8
:102BD000AD80D068FEF7CAFBF0EE409A04F53B29C1
:102BE000DDF848804FF0000B09F6A803D3ED008A0A
:102BF000139B5B45C4D009F64C0004F5BA2A15F0C6
:102C000027FDB0EE409A09F678000BF1010B15F0A4
:102C10001FFDB0EE687A29EE299ADFED466A20EEB4
:102C2000290A454BF0EE687A04F13400A9EE267AC1
:102C300087FE267AE0EE267AC7FEA67AD4ED0B6AE6
:102C4000B0EE006A87FE467A27EE267AC7FEC67A7D
:102C500067EEA67ABDEEC76AF8EEC65A16EE102ADF
:102C60009A4294BFE263E3630AF5446237EE657A01
:102C7000019284ED0D7ABDEEE77AF8EEC76A77EE41
:102C8000E67AC2ED007A17EE102A9A4294BFCAF88B
:102C9000482CCAF8483CFFF743FF04F5BB20B0EED0
:102CA000409A00F58860FFF73BFF95ED007AA36B33
:102CB00060EE087AA9EE0A7A019A04EB830103F523
:102CC000BB3329EE089AFF3381ED107A1B4996ED4C
:102CD000007AB3FBF1F0A0EE0A7A01FB1033A36394
:102CE000DAF8443C02EB830203F5BB3382ED037A4E
:102CF000B7EE007AF5EC016AFF3337EE487AB3FBA2
:102D0000F1F2A6EE879A01FB1233CAF8443CA7EC15
:102D1000019AF6EC016AE7EE267AE8EC017A67E7B9
:102D2000B6EE008A44E7B6EE00AA4CE7DFED049A5F
:102D300054E700BF6F12833AFF760100007701006D
:102D4000000000002DE9F8431F4690F828300446A3
:102D50000E4615462DED048B63B901EB8707B9428A
:102D600003D1BDEC048BBDE8F88351F8043B45F872
:102D7000043BF4E7D0E907329A4270D01868FEF7B6
:102D8000F5FAB0EE408AD4E907239B1A042B69D9DF
:102D90005068FEF7EBFAF0EE409AD4E907239B1A4D
:102DA0000C2B62D9D068FEF7E1FAF0EE408A04F508
:102DB0003B2898F8AC38002B5AD02046FFF7B8FCD7
:102DC000B0EE409AA9460025AF42CAD008F64C00A2
:102DD000013515F03DFCF0EE497A20EE280A9FED12
:102DE000277A274B04F13400E0EE077AC7FE877A92
:102DF000B0EE007AC7FEC77A94ED0B7A67EE877A59
:102E0000BDEEE77AF8EEC76A17EE102A9A4294BF31
:102E1000E263E36377EEE67AC4ED0D7AFFF780FEB6
:102E200096ED007AA06B60EE087AA0EE297A04EBAA
:102E3000800300F5BB30FF3083ED107AB7EE007AE7
:102E4000104BF6EC016A37EE487AB0FBF3F2E6EE8F
:102E5000877A03FB1200A063E9EC017AB4E7B6EECF
:102E6000008A90E7F6EE009A97E7DFED078A9EE783
:102E700008F6A40393ED009AA4E700BF6F12833A0B
:102E8000FF760100007701000000000013B5044642
:102E90008DF807104030002103F0ACFE64230122BE
:102EA0000DF10701204606F06BFA02B010BD13B514
:102EB00004468DF807104030012103F09BFE642387
:102EC00001220DF10701204606F05AFA02B010BDAA
:102ED00010B511210446FFF7D9FF782006F002FE55
:102EE00020461321FFF7D2FF20463621FFF7CEFF01
:102EF00020460821FFF7DBFF2046B621FFF7C6FF7B
:102F000020460A21FFF7D3FF20468221FFF7CFFF9B
:102F100020460021FFF7CBFF2046C021FFF7C7FF67
:102F200020463A21FFF7B2FF55212046FFF7BFFFA9
:102F30000A2006F0D7FD2046B221FFF7A7FF204662
:102F40000C21FFF7B4FF20460C21FFF7B0FF20460D
:102F50000021FFF7ACFF20463321FFF7A8FF2046F2
:102F60003321FFF7A4FF2046B721FFF78FFF20464C
:102F70003521FFF79CFF2046BB21FFF787FF204646
:102F80002821FFF794FF2046C021FFF77FFF20464E
:102F90000C21FFF78CFF2046C221FFF777FF204668
:102FA0000121FFF784FF2046FF21FFF780FF204625
:102FB000C321FFF76BFF20461021FFF778FF204663
:102FC000C421FFF763FF20462021FFF770FF204652
:102FD000C621FFF75BFF20460F21FFF768FF204661
:102FE000D021FFF753FF2046A421FFF760FF2046C2
:102FF000A121FFF75CFF2046E021FFF747FF2046B5
:10300000D021FFF754FF20460021FFF750FF204654
:103010000221FFF74CFF20460721FFF748FF20461B
:103020000A21FFF744FF20462821FFF740FF2046F2
:103030003221FFF73CFF20464421FFF738FF2046AE
:103040004221FFF734FF20460621FFF730FF2046DC
:103050000E21FFF72CFF20461221FFF728FF204604
:103060001421FFF724FF20461721FFF720FF2046F9
:10307000E121FFF70BFF2046D021FFF718FF204684
:103080000021FFF714FF20460221FFF710FF204622
:103090000721FFF70CFF20460A21FFF708FF204613
:1030A0002821FFF704FF20463121FFF700FF2046CB
:1030B0005421FFF7FCFE20464721FFF7F8FE20468B
:1030C0000E21FFF7F4FE20461C21FFF7F0FE2046FC
:1030D0001721FFF7ECFE20461B21FFF7E8FE2046F4
:1030E0001E21FFF7E4FE20462121FFF7CFFE21211C
:1030F0002046FFF7CBFE782006F0F4FC204629217D
:10310000FFF7C4FE7820BDE8104006F0EBBC0000DD
:103110002B4B1B882DE9F34783800125294B002683
:10312000044600F140081B8800F1040AC6804FF0F5
:1031300003090381082346812A46466204F12C07CD
:10314000C0E90553022383621F4BC0E90366C0E94F
:103150000755197858783346CDF8009041EA002198
:10316000404603F02DFC194B2A46CDF800905878C4
:103170001978334641EA0021384603F021FC2946FC
:10318000404603F037FD2946384603F033FD5146EB
:10319000204606F05FF83146384603F02BFD32201A
:1031A00006F0A0FC2946384603F024FD322006F044
:1031B00099FC204602B0BDE8F047FFF789BE00BF8A
:1031C0007EC301087CC3010878C301087AC30108E3
:1031D00038B50D4636210446FFF758FE032D07D8B3
:1031E000DFE805F00207090B08212046FFF75FFE24
:1031F00038BD6821F9E7C821F7E7A821F5E770474E
:10320000F0B5858994468D4240F29E80C4899442EF
:1032100040F29A804769002F00F09680DE7805FB27
:103220000215C46A16B90CB90020F0BDFF2E01D0FA
:10323000012C1AD11B6847F82530048943682144C2
:10324000408993F8D0400CEB000289B293F8D1008A
:1032500092B2B1FBF4F1B2FBF0F20A2000FB0133B1
:103260001344012283F86C20DEE757F82540F7EE7F
:10327000006A9FED365A220E07EE902A9A78F8EEF1
:10328000E77A04EE902AC4F30742F8EEE44AC7EE68
:10329000855A07EE906A0026F8EEE77A87EE856A8F
:1032A00007EE902AF8EEE77A67EEA57A76EEC66A20
:1032B000B0EE467A67EEA67AA6EEA57AE4EE867AB6
:1032C000C7EE874AFCEEE44A14EE902A62F31746F2
:1032D0005A781B7804EE902AC4F3072207EE902A4E
:1032E000F8EEE44AF8EEE77A67EEA57A67EEA67A9A
:1032F000E4EE867AC7EE874AFCEEE44A14EE902AA2
:1033000004EE903AE3B2F8EEE44A62F30F2607EED9
:10331000903AF8EEE77A67EEA57A67EEA67AE4EEE1
:10332000867AC7EE876A27EE057ABCEEC77AFCEE8E
:10333000E66A16EE903A63F3070617EE103A63F367
:103340001F6647F8256078E702206EE700007F439C
:10335000A0F11800FFF754BF012373B5C56A0446F6
:10336000C36203680191C289009200221E6911465E
:103370008389B047E56202B070BD10B504463021C4
:1033800015F007FB204610BD036803EB81030360C3
:10339000704773B5091A05468C10002C02DC2846CC
:1033A00002B070BD611001A80195FFF7EDFF019B10
:1033B000167C1868007C864222BF611A1D1D01F12F
:1033C000FF310C46E9E773B5091A05468C10002C4D
:1033D00002DC284602B070BD611001A80195FFF71C
:1033E000D3FF019B1868067C107C86423EBF611AA1
:1033F0001D1D01F1FF310C46E9E7F7B50D461646F4
:103400001F4604460021403003F0F4FB0023012254
:1034100029462046CDE9006705F0BCFF03B0F0BDAA
:10342000034610B572B6B0F8DE10D0F8D84001EB04
:103430008101034A19312144FFF7DFFF62B610BD55
:1034400009350008034610B572B640F20162B0F8C3
:10345000DE10D0F8D8405143034A32312144FFF7FF
:10346000CCFF62B610BD00BF31350008034610B571
:1034700072B6B0F8E020B0F8DE10013A013192B235
:1034800089B2A0F8E0200529B0F8E02028BF00218B
:1034900092B2A0F8DE104AB101EB8101D0F8D84019
:1034A000044A2144FFF7A9FF62B610BD80F8E2206C
:1034B000FAE700BFE1340008F7B504460D46403096
:1034C00001211F46164603F095FB089B324629460C
:1034D0002046CDE90073002305F05CFF03B0F0BD8A
:1034E00013B572B6B0F8DE100422D0F8D84001EB64
:1034F0008101044B009001312144FFF7DDFF62B6EA
:1035000002B010BD2134000813B572B6B0F8DE1059
:103510000422D0F8D84001EB8101044B00901A310D
:103520002144FFF7C9FF62B602B010BD4534000860
:1035300013B572B640F20162B0F8DE10D0F8D84090
:103540005143054B4FF4C062009033312144FFF7E3
:10355000B3FF62B602B010BD6D340008F0B404468B
:10356000BDF818501046BDF81420BDF810709DF835
:103570001C60A2816A436160002160619200E58164
:10358000278163812674F0BC16F0CBBB00226FF05C
:10359000F4114FF0020C8160A0F8E0200262826317
:1035A000026680F8E22080F86420C0E9002108214A
:1035B000C0E906124FF60B71C0E90C22C0E90AC13E
:1035C000C0E91012C0E91222C0E91622C0E9362271
:1035D000704770B50446D0E91656AE420FD1D4E913
:1035E000160398424FF0000318BFE06584F864307A
:1035F00018B1216E091A15F0CCF9204670BD55F8A6
:10360000040B0028E9D003685B689847E5E70000F1
:1036100070B5154604460E460121D0E916326C30CD
:1036200093420B4A18BF40F8103C002340F8182C76
:10363000642200F8083C40F8043C064B436616F050
:1036400070FB2046C4E93556BDE87040FFF760BD09
:10365000F000400118200A0AF0B590F8D040BDF8FB
:103660001450B1FBF4F1B3FBF4F390F8D140B2FB8A
:10367000F4F2B5FBF4F590F8D2408C429CBF04F113
:10368000FF3189B29C429CBF04F1FF34A3B290F891
:10369000D34094429CBF04F1FF3292B2AC4201D8B5
:1036A000013CA5B295420ED2F0BD0A26012706FBC9
:1036B000020626443C44A4B286F86C70A342F4D2BD
:1036C000013292B2EEE70C46F8E700002DE9F04F28
:1036D000456985B0BDF83840DDF83CC0002D00F0EC
:1036E000C68087898F4240F2C280C689964240F2E6
:1036F000BE8003EB0108B84504EB0208C4BF7B1A87
:103700009BB2B045C4BFB61AB4B29CF80360F6B120
:103710004FEA870A02FB07179E004FF0000805EBEF
:10372000870503961FFA88F6B44217D805892944FD
:10373000458989B22A444D1E92B22B44551E2C4411
:103740009BB2A4B200944068FFF786FF02E0C66A0D
:10375000002EDDD1002005B0BDE8F08F039F2E467E
:1037600007EB050B5E4503D108F101085544D9E785
:103770009CF8037007EE907AC76A012F03D017EE0A
:10378000907AFF2F04D1DCF8007037600436E9E747
:1037900096F80390F8EEE77A9FED365AF7EE006A56
:1037A00007EE109A376887EE856A9CF8029004EE5F
:1037B000909AC7F3074907EE909AB8EEC77AF8EEE9
:1037C000E77AF8EEE44AC7EE055A76EEC66AB0EE3E
:1037D000467A67EEA57AA6EEA57A67EEA67AE4EEBB
:1037E000867AC7EE874AFCEEE44A14EE909A69F3B3
:1037F000174E9CF8019004EE909AC7F30729FFB288
:1038000007EE909AF8EEE44AF8EEE77A67EEA57ACA
:1038100067EEA67AE4EE867AC7EE874A07EE907ADC
:10382000F8EEE77A67EEA57A67EEA67AFCEEE44A50
:1038300014EE909A69F30F2E9CF8009004EE909A83
:10384000F8EEE44AE4EE867AC7EE876A27EE057A58
:10385000BCEEC77AFCEEE66A16EE907A67F3070EC6
:1038600017EE107A67F31F6EC6F800E08EE70220AD
:1038700071E700BF00007F43A0F11800FFF726BFEB
:103880002DE9F04F848987B08C42BDF84050BDF8D7
:1038900044A040F2E080C789974240F2DC8046694C
:1038A000002E00F0D88005EB010CA44500F3D38076
:1038B0000AEB020CBC4500F3CE8013F8017B4FF0FD
:1038C000000B0293A30002FB0414DC460493AB003C
:1038D00006EB840603931FFA8BF4A24516D80389DE
:1038E0000AF1FF34194443891A446B1E14FA82F416
:1038F00013FA81F392B2A4B29BB2009489B24068E9
:10390000FFF7AAFE002007B0BDE8F08F039BB0468A
:1039100033440593059B984504D1049B0BF1010B9F
:103920001E44D8E7DDE9124317F0800F14BFA1460B
:103930009946C46A99F80330C3B9012C03D1D9F868
:103940000040C8F800400CF1010C08F104085FFACF
:103950008CFCBCF1070F89BF029B7F004FF0000C6D
:1039600013F8017B94BFFFB20293D3E7FF2BE6D09D
:10397000012CE4D007EE903AD8F800409FED375A7A
:10398000F7EE006AF8EEE77A230E87EE856A07EE17
:10399000903A99F8023004EE903AC4F30743F8EEF7
:1039A000E77AF8EEE44AC7EE855A07EE903AF8EE69
:1039B000E77A76EEC66AB0EE467A67EEA57AA6EEAC
:1039C000A57A67EEA67AE4EE867AC7EE874AFCEE21
:1039D000E44A14EE903A63F3174E99F8013004EE7E
:1039E000903AC4F3072307EE903AF8EEE44AF8EE73
:1039F000E77A67EEA57A67EEA67AE4EE867AC7EEF6
:103A0000874AFCEEE44A14EE903A63F30F2E99F8DD
:103A1000003004EE903AE3B207EE903AF8EEE44A52
:103A2000F8EEE77A67EEA57A67EEA67AE4EE867A94
:103A3000C7EE876A27EE057ABCEEC77AFCEEE66A27
:103A400016EE903A63F3070E17EE103A63F31F6E0B
:103A5000C8F800E077E7022055E700BF00007F4389
:103A6000A0F11800FFF70CBFF7B5044640680D46FB
:103A70001646B0F85430E7899942218924BF03F1F2
:103A8000FF339DB2B0F856309342628998BF03F17C
:103A9000FF33174498BF9EB2A389013F0B44BFB2C6
:103AA000013B00979BB2FFF7D7FDE289A389294626
:103AB000013A2581013B668132442B4492B29BB28C
:103AC000009232466068FFF7C7FD002003B0F0BDEA
:103AD000836E8B4212D0B0F85630B0F85420A0F864
:103AE0005430B0F8D030A0F856205BBA8166A0F808
:103AF000D030B0F8D2305BBAA0F8D230704738B5C9
:103B000004460D4694F8E2304BB929462046FFF7AB
:103B10005FFB032D19D8DFE805F00612061201201D
:103B200005F0E0FFEEE700212046FFF7D1FF642219
:103B3000012104F16C00BDE8384016F0F2B8012113
:103B40002046FFF7C5FF6422F3E738BD2DE9F04FAB
:103B50000B9892000D9F9B0089004FF00008DDE953
:103B600009451FFA88FC674540F28D8004304FF00C
:103B7000000E16E0E6787EB1FF2E94F802B094F8BD
:103B800001A094F8009018D100F802BC00F803AC32
:103B900000F8049C00F8016C043404350EF1010EA9
:103BA00004301FFA8EFC0C9E6645E3D8043814449A
:103BB0001D4408F101080844D3E795F803C0F7EE67
:103BC000006ADFED324A07EE90CAF8EEE77A87EE38
:103BD000A45A07EE906AAE78F8EEE77A87EEA46A08
:103BE00007EE90BAF8EEE75A07EE906AF8EEE77A39
:103BF00067EE857A76EEC66AB0EE467A67EEA67A0A
:103C0000A6EE857AE5EE867AC7EE875AFCEEE57A6F
:103C100017EE90CA07EE90AA00F802CCF8EEE75A29
:103C20006E7807EE906AF8EEE77A67EE857A67EECF
:103C3000A67AE5EE867AC7EE875AFCEEE57A17EEAD
:103C400090CA07EE909A00F803CCF8EEE75A2E7867
:103C500007EE906AF8EEE77A67EE857A67EEA67A65
:103C6000E5EE867AC7EE876A27EE247AFCEEE67ADE
:103C700017EE90CAFCEEC77A00F804CC17EE90CA93
:103C800000F801CC88E7BDE8F08F00BF00007F435B
:103C9000F0B572B6B0F8E0309BB2042B02D962B630
:103CA0000020F0BD62B690F8D0504B1E90F8D14085
:103CB000B0F8DC601D44531E06EB86061C44D0F8A9
:103CC000D83033440E0A9970C5F307215E70D9705D
:103CD0001D71B0F8DC10D0F8D83001EB81010B4435
:103CE000110ADA76C4F30722997600211A775C77F5
:103CF00040F20163B0F8DC205A43D0F8D8303332B8
:103D0000134490F8D1408AB2944212D872B6B0F8F7
:103D1000DC3001339BB2052B28BF0023A0F8DC3038
:103D2000B0F8E03001339BB2A0F8E03062B6012079
:103D3000B7E790F8D040D0F8D42014FB01F402EBA0
:103D40008402002490F8D070A6B204329D1CB742C1
:103D500001D80131D5E712F8023C013412F8036CA6
:103D600023F0070343EA561305F8023C12F8033C1C
:103D700012F8046CDB0023F01F0343EAD60305F8B6
:103D8000013C2B46DEE7000038B5034672B6B0F8BA
:103D9000E02092B2A2B190F8E2208AB962B6012482
:103DA00080F8E24072B6B0F8DE10D0F8D85001EBDF
:103DB0008101054A2944FFF720FB62B6204638BD41
:103DC00062B60020FBE700BFE13400082DE9F843AC
:103DD000D0E900846FF060430746A4EB08048946ED
:103DE000B3EBA40F4FEAA40202D1154814F0EFFD83
:103DF000012A114638BF0121521802D2934228BF2E
:103E000013469E00304614F0C6FDD9F80030002C51
:103E10000546035103DD2246414616F056F80434A8
:103E20002C44B8F1000F05D0B9684046A1EB080159
:103E300014F0AFFDC7E900543544BD60BDE8F88318
:103E40003AC001082DE9F043054687B03020894685
:103E5000174698461B4E14F09EFD00234FF0FF328C
:103E600006602036C362294686610446C0E90923FC
:103E70009DF84020C0E907330392BDF83C20029230
:103E8000BDF83820CDE900324A46FFF767FB0594BC
:103E9000D5E9170398420ED040F8044BE86501239A
:103EA00042463946204685F86430FFF7DDFD20465E
:103EB00007B0BDE8F08305A905F15800FFF786FFBC
:103EC000EDE700BF88C3010810B50C1A1346042C97
:103ED00007DD01462246184615F00AFF0346181969
:103EE00010BD04BF02681A60F9E7F8B51D46144614
:103EF000069B88420FD0AC420DD02268066892F82B
:103F000010C0377CBC4502D30430324600E0043494
:103F100043F8042BEDE71A46FFF7D6FF2946024681
:103F20002046FFF7D1FFF8BDF8B514461D46069AA6
:103F3000884201D0AC4207D1FFF7C6FF29460246AE
:103F40002046FFF7C1FFF8BD2368066893F810C04C
:103F5000377CBC452ABF33460434043042F8043B66
:103F6000E6E713460A1A042A10B5A3EB020405DD9E
:103F70000146204615F0BCFE204610BD04BF026875
:103F800043F8042CF8E708B5FFF7EBFF08BD8842BB
:103F9000F8B5054601D11046F8BD9142FCD00B1A88
:103FA000141A9B10A610C3EBA404A3420BD10B461A
:103FB000814201D10846EFE702681C6840F8044BD3
:103FC00043F8042BF4E7521A8418F11A8B422BDAC7
:103FD000012B0BD105EB86062F682A46281D31469A
:103FE000FFF772FF46F8047C2046D5E705EB830017
:103FF000A5F1040C002291420DDC21EAE171B6FB2F
:10400000F3F203FB126205EB8105002AECD019469E
:104010009B1A0E46D9E75CF804EF01320768CCF82A
:10402000007040F804EBE6E7012905EB860207D1B2
:104030001146284651F8046DFFF7A5FF2E60D3E71F
:1040400005EB830500202F4683420CDC23EAE37353
:104050006FF0030202FB0355B6FBF1F301FB1363A0
:10406000002BD6D1C0E757F804CD013052F804ED4B
:10407000C7F800E0C2F800C0E6E72DE9F04F87B0CE
:1040800083460E469846DDF84090039273B1B9F12D
:10409000000F0BD04B44022B0BD10A680368107C35
:1040A000197C884202D2CBF80020336007B0BDE80B
:1040B000F08FC8452EDD08EBD877049004A87F1058
:1040C0003946FFF761F9049D039930462A68FFF7E6
:1040D0007AF9A0EB060A044605904FEAAA0A22469E
:1040E00031462846FFF753FF3B460646024629461F
:1040F0005846CDF800A00495FFF7BFFFA9EB0A03CF
:10410000039A214630460093A8EB07030594FFF776
:10411000B4FFCBE709EBD97A05A805914FEA6A0A03
:104120005146FFF731F9059C314658462268FFF7A2
:1041300030F9A0EB0B0705460490BF10CFE7814292
:10414000F8B504460D4602D0011D8D4200D1F8BDE0
:104150000E46226856F8047B127C3B7C9A4208D9B2
:1041600032462046FFF70FFF27603146EDE741F862
:10417000042951F8042C107C9842F8D80F60F4E719
:104180002DE9F04F0F1A87B006460D46BB1090463A
:1041900017440446039320461C342B1A182B09DCC1
:1041A00007242946FFF7CBFF039BA34206DC07B099
:1041B000BDE8F08F2146FFF7C2FFECE7A300A3465E
:1041C0004FEA440930464FEAC40A41460493A5EB3E
:1041D000000C00EB0A03B9EBAC0F4FEAAC021FDD99
:1041E000A24200912B464FEA0B1BA8BF2246A40017
:1041F00000EB82021146FFF778FE314640463B1A3B
:10420000B4EBA30F4FEAA30215DD4A4500913B46EC
:10421000A8BF4A4600EB82021146FFF785FEC3E7BE
:10422000049A0091821805931146FFF75EFE059BE4
:1042300001461846CBE700EB0A0200EB0B030091A6
:1042400011460493FFF770FE049B01461846D6E71B
:10425000F7B50C1A06460D46382C04DC03B0BDE851
:10426000F040FFF76CBFE410A70000EB8404214688
:10427000FFF7EEFF29462046FFF7EAFF2A1BBB1097
:1042800021469210304600922A46FFF7F6FE03B010
:10429000F0BD2DE9F04716469046089A0746099D5D
:1042A0000C469342894682462A461BDCFFF70CFEE9
:1042B0000146A94214D0B1450ED0D9F800302A6881
:1042C0001C7C107C844202D30435134601E009F1C2
:1042D00004094AF8043BECE752462846FFF7F4FD90
:1042E000BDE8F08731462046FFF7EEFDBC420146AF
:1042F00004D132462846FFF734FEF1E78542EFD07D
:10430000043C04390B68A8F1040822681E7C107C68
:10431000864208D2BC42C8F8002002D1424604318D
:10432000E8E7043CEEE78D42C8F80030E9D1D7E772
:104330002DE9F04F8BB00E469B46DDF858A0049057
:1043400053450692DDE9148901DDC2450ADB5B466F
:10435000069A31460498CDE914890BB0BDE8F04FB8
:10436000FFF797BF434546DD03EBD37308A85B1007
:104370000593049B05990893FFF706F8089D3046BE
:1043800006992A68FFF71FF8871B04460990BF109B
:10439000059BABEB030BBB4542DDBA4540DB002F71
:1043A0005AD04A4621463046FFF78EFD2246314616
:1043B00007902846FFF7E7FD2A4607994846FFF78A
:1043C00083FD0646059B3246294604980097A8EBD4
:1043D00007070895CDE9019AFFF7AAFF5B46069A01
:1043E0002146304600970994CDE9019AFFF7A0FFD6
:1043F0000BB0BDE8F08F08EBD87709A809917F10C2
:104400003946FEF7C1FF099C314604982268FEF741
:10441000C0FF049B05460890C31A9B100593B7E79D
:10442000DA4513DBBBF1000F18D04A463146284667
:10443000FFF74AFD2A46214607903046FFF744FD24
:10444000224607994846FFF78CFDBAE722463146D7
:104450002846FFF79CFDB4E72E46B3E72646B1E7B2
:10446000F7B50C461E4615461A460746FFF788FE66
:10447000324629462046FFF783FE2A1BE31B2146CE
:10448000921038469B10019600922A46FFF701FFD2
:1044900003B0F0BD2DE9FF470C1A07460D4616463E
:1044A000A4109846013404EBD47464109C424FEA83
:1044B000840A00EB840918DD4946FFF7EBFF434609
:1044C000324629464846FFF7E5FFA5EB09032A4691
:1044D00049469B10384600934FEAAA03CDE901688C
:1044E000FFF726FF04B0BDE8F08713460A464946A9
:1044F00004B0BDE8F047FFF7B3BF2DE9F04F90F8E7
:1045000064308FB00446012B33D1D0E91678B8451A
:104510002CD0A8EB07039D10002B05F1010505EB3E
:10452000D5754FEA650540F3D280A9464FEA890A5E
:104530000DA9504614F040FA0646002840F0D280FB
:10454000B9F1010F00F0C68009F101094FEA6909CC
:10455000ECE7AA462E463346424607EB0A013846A8
:10456000FFF77EFF5146304614F013FA002384F81B
:1045700064304FF000085FFA88F35FFA88F20B931B
:1045800094F8D330934200F2A0800FB0BDE8F08FD2
:104590000A225FFA88F302FB0343334493F86C204A
:1045A000012A21D100214FF4406283F86C1094F865
:1045B000D03094F8D1705E430B9BD4F8D4005F43A5
:1045C00015F0AFFBE36D0A93A36D0993DDE90923B1
:1045D000934215D13A4631462046FFF759FB002851
:1045E0006FD02046FFF7D0FB089B0133089394F867
:1045F000D2309DF82060B342CAD808F10108BAE76A
:10460000099B53F8042B0993137C002BDED01389EC
:10461000B2F80CE0B34207931846079938BF30460A
:1046200094F8D03001EB0E0506EB030C80B2069334
:10463000AC45D4BFC0EB0C01C0EB05011FFA81FCF7
:1046400009B20029C2DDB2F80A903D4694F8D1B013
:104650004F45B2F80EA0BB4438BF4D46CA44ADB278
:10466000D345D4BFC5EB0B01C5EB0A011FFA81FA94
:1046700009B20029AADDA5EB070B811BA5EB0905F3
:104680001FFA8BFB89B2ADB203FB0B11D4F8D43007
:1046900003EB8101069BCDE901110799A3EB0C0304
:1046A000401A194680B2CDE903CA0EFB05005269D3
:1046B00002EB800220460092AEEB0C02FFF746FAB6
:1046C00084E7012005F00EFA84E700238EE7002D31
:1046D0003FF43FAF4FF0000A414638465646FFF7D9
:1046E000B7FD3FE74D453FF436AF4B4632464146B6
:1046F0003846FFF7CFFE35E7084605F0F3B900BFAF
:10470000143001F069BA00BF143001F061BA00BF83
:1047100010B540F203318EB000244FF60B7340F217
:104720000342ADF80810029909A8ADF81030ADF8B1
:1047300024300123ADF80C202246009407940C94F9
:10474000CDE90544CDE90A4402F03AF904A8012371
:1047500022460399009402F033F909A802F03EFAC8
:1047600010B901200EB010BD04A802F037FA80F095
:104770000100C0B240000EB010BD00BF2DE9F041F5
:1047800003239AB00125002414934FF60B78394B7C
:10479000064610941193A3F19F631595A3F57D43ED
:1047A000ADF84C80CDE916451293FFF7B1FFA84252
:1047B00007463DD002282BD12F4B2A460094CDF836
:1047C0004A3040F60133ADF82C80ADF8183023465E
:1047D00006990E94CDE918450BAD2846CDE90C4459
:1047E00002F0EEF82146284602F004FA10A906F17C
:1047F000700003F0DDFB214B0FCB85E80F00326F1B
:10480000294606F1140001F0A7F91AB0BDE8F081BD
:1048100040F60132184B06F158001995ADF82C20DE
:104820000BAD0B991894CDF84A3000F0A3F8DDE7F2
:104830001023114A06A906908DF828300BAD104BB5
:10484000CDF84A2009940294CDE90730CDE9180447
:1048500002A802F04FFB0823029A03A92846ADF8EC
:104860000C708DF80E40049705930B9400F0C2F87D
:10487000BCE700BF0402040404060403F8BF0108F7
:104880000704010B2DE9F041384B0446384D40F246
:104890000112012604F104082DED028B82B045605F
:1048A000A36003F58133ADF8042040F2027203F5F2
:1048B000807300202285E36040F606632682A3878A
:1048C000E662266400918DF8060005F0C1FA0546FF
:1048D00005F00AF96946074610BB0DB304F1500014
:1048E0008DF8066005F030FA072D36D104F1140575
:1048F0002046FFF743FF284601F06AF92846B0EE4C
:10490000408A01F061F9D0ED007AF8EE677A88EE1E
:10491000277A84ED1B7A02B0BDEC028BBDE8F081F2
:1049200004F1500005F010FA072D02D1002FDDD060
:1049300004E04146204602F087FE9FB104F12801C1
:10494000084601F023FE04F13C01084601F01EFE7A
:1049500004F1120000F068F9C8E74146204602F071
:1049600073FEC3E7002DE9D0C0E700BF05070506C9
:104970000508050930B585B0002504460122ADF8CB
:104980000C102B460399009502F01AF801212046DD
:1049900002F030F9012005F0A5F82946204602F082
:1049A00029F9012005F09EF80121204605B0BDE857
:1049B000304002F01FB900BF10B5C2F3002384B02D
:1049C0000C46017C8DF80D2043EA4402FA240223B0
:1049D0008DF80C2003AA009402F020FB18B10124EA
:1049E000204604B010BD04460A2005F07BF820469E
:1049F00004B010BD034670B5044684B043F8042BE0
:104A0000FA2507C983E80700A1791E23009503AAA8
:104A10001A31ADF80C3020460223C9B2217402F0DD
:104A2000FDFA10B1012004B070BD0A2005F05AF85B
:104A30004FF4B85200950223ADF80C20204603AA8B
:104A4000217C02F0EBFA0028ECD10A2005F04AF8AC
:104A500041F2027200950223ADF80C20204603AA11
:104A6000217C02F0DBFA0028DCD10A2005F03AF8BC
:104A7000042200950223ADF80C20204603AA217CD5
:104A800002F0CCFA0028CDD10A2005F02BF806223E
:104A900000950223ADF80C20204603AA217C02F0E9
:104AA000BDFA0028BED10A2005F01CF841F2082208
:104AB00000950223ADF80C20204603AA217C02F0C9
:104AC000ADFA0028AED10A200A2605F00BF80095B1
:104AD000022303AA217C2046ADF80C6002F09EFA66
:104AE00000289FD1304604F0FDFF23790C22009569
:104AF000002B217C8DF80C20204614BF622342231A
:104B00006A448DF80D30022302F088FA002889D11A
:104B1000304604F0E7FFA36800952046E268217C58
:104B20001343627943EA4213227982F0010243EA95
:104B300082130E228DF80D3002238DF80C2003AA6B
:104B400002F06CFA00287FF46DAF304604F0CAFF23
:104B5000102200950223ADF80C20204603AA217CE8
:104B600002F05CFA00287FF45DAF304604F0BAFF33
:104B7000122100950223ADF80C1003AA217C2046D7
:104B800002F04CFA00287FF44DAF304604F0AAFF43
:104B900001220921204604B0BDE87040FFF70CBF98
:104BA00070B586B000240125102602A94FF480526A
:104BB0001C480194CDE90256CDE904540EF0ECFAFC
:104BC000642005F0D1FE022302A94FF4805215485B
:104BD00002930594CDE903650EF0DEFA042302A9E1
:104BE0004FF480520F480396CDE904340323029317
:104BF0000EF0D2FA40F23223042202A909480193AE
:104C000010230495CDE90223019B4FF480520593B4
:104C10000EF0C2FA40F6060102480EF0DDFA204618
:104C200006B070BD8408002470B51D4B88B0082202
:104C30004FF4006400211B4E1A614FF0020C0392E6
:104C40000A225C62202406924022054699600320D5
:104C5000196210215E600126C3E905424FF4C0725B
:104C6000DE60DA6107229FED0C7BCDE900C20422F1
:104C7000CDE904016946181D029283ED0A7B0EF00E
:104C800061FA30B904462846FFF78AFF204608B08B
:104C900070BD304608B070BD00100000000000007C
:104CA00080080024404100525E4A0023F0B5146899
:104CB0008FB00A93002C40F0B2805B4B0121032699
:104CC0000C2511600227D3F8D420584842F48052B2
:104CD000C3F8D420D3F8D42002F480520092009A72
:104CE000D3F8E02042F01002C3F8E020D3F8E0202F
:104CF00002F010020192019AD3F8E02042F0400243
:104D0000C3F8E020D3F8E02002F040020292029AB9
:104D1000D3F8E02042F00802C3F8E020D3F8E02006
:104D200002F008020392039AD3F8E02042F4807262
:104D3000C3F8E020D3F8E02002F480720492049AD1
:104D4000D3F8E02042F08002C3F8E020D3F8E0205E
:104D500002F080020592059AD3F8E02042F020028A
:104D6000C3F8E020D3F8E02002F020020692069A71
:104D7000D3F8E02042F00402C3F8E0204FF683723B
:104D8000D3F8E0300B9603F004030C95079302234D
:104D9000079908A9CDE9082307F0C4FF48F23713A3
:104DA00008A9234808930C950997CDE90A4607F00E
:104DB000B9FF4CF2037308A91E480893CDE90974A2
:104DC000CDE90B6507F0AEFF40F2FF6308A91A4872
:104DD0000893CDE90974CDE90B6507F0A3FF4FF601
:104DE0000C7308A915480893CDE90974CDE90B6542
:104DF00007F098FF4FF63F0308A911480893CDE943
:104E00000974CDE90B6507F08DFF202308A90B4835
:104E100009970C950893CDE90A4607F083FF0FB078
:104E2000F0BD00BF7C080024004402580010025866
:104E300000180258000C025800200258001C0258AA
:104E4000001402582DE9F04F8BB0DFF85881064668
:104E50004E4800AF0D46144603F0A8F94369D8E95F
:104E60000621002A00F0E081002940F09D80022206
:104E7000D8F804A04FF008097A62BAF1000F00F0E8
:104E80009D80A200E946012B02F1070222F00702F1
:104E9000ADEB020D6846ADEB020DEB4600F0CB81A9
:104EA000022B00F05982002B40F0BA81002C00F058
:104EB000B7811A46D8ED0C6A9FED357A0146331D4D
:104EC00036F922C0083107EE90CA33F922C0023207
:104ED000F8EEE77A944267EE877A67EEA67A41EDBC
:104EE000027A07EE90CAF8EEE77A67EE877A67EE05
:104EF000A67A41ED017AE3D859462246D0470021EF
:104F000098ED0D6A2B1DDFED236A23489FED237A70
:104F1000DFED235ADBED007A024666EE277AF4EEE7
:104F2000E67AF1EE10FA0CD9F4EEC77AF1EE10FA47
:104F300067FE277A67EEA57AFDEEE77A17EE902AEC
:104F400012B2DBED017A45F8212066EE277AF4EE05
:104F5000E67AF1EE10FA40F2DB81F4EEC77A0BF15B
:104F6000080BF1EE10FA67FE277A67EEA57AFDEEE0
:104F7000E77A17EE902A12B243F821200231A142BB
:104F8000C8D3CD462C37BD46BDE8F08FD0080024ED
:104F90000000003804FF7FBF0280FFFF04FF7F3F57
:104FA00000FEFF46B80800240422D8F804A04FF001
:104FB00010097A62BAF1000F7FF463AF3B62D8F850
:104FC0000030BB61002BDDD0DA48C7F810D003F009
:104FD00057F97B6AF860022B3B6A00F044826A460C
:104FE00060084946012BA2EBC4029546B860C4F3A1
:104FF0005D02EB46ABEBC4008546EE46ADEB090D1A
:105000000BEB820968460EEB820CADEB010D0146FD
:10501000C7F820D0F961C0E900B909EB82008860C7
:105020000CEB820178617869029101EB820100EB5F
:1050300082000391F969CDE900ECC86000F0EE83CD
:10504000022B00F00183002B40F0F581002C00F0D2
:105050004B847A6A022A00F04D841946D8F824203D
:10506000FB68DFEDB55A02EB8302FB697D6102F15B
:10507000040ED3E902A0331D844636F92100D8ED91
:105080000C7A06EE100A33F9210006EE900A32F986
:105090002100B8EEC66A07EE100AF8EEE66A3EF99D
:1050A0002100B8EEC77A26EE256A66EEA56A27EEDD
:1050B000257A26EE276A66EEA76A27EE277A07EE9C
:1050C000900A48080231F8EEE77A0BEB80058C4233
:1050D00085ED006A09EB800567EEA57AC5ED006AEB
:1050E0000AEB80050CEB800085ED007A98ED0C7AD8
:1050F00067EE877AC0ED007ABFD87D69BB69BA6870
:10510000D7E9070198473B6A98ED0D7AD3E900CEBD
:105110007B6A022B00F03D84D8F82C300020FA681E
:10512000DFED8C6A03EB820A3B6A9FED846ADFED58
:10513000845A0AF10408834ED3E9029B2B1D4208CE
:105140000CEB82019200D1ED007A67EE277AF4EE43
:10515000E67AF1EE10FA40F28481F4EEC67AF1EECE
:1051600010FA66FE277A67EEA57AFDEEE77A17EE6B
:10517000901A09B245F820100EEB0201D1ED007A29
:1051800067EE277AF4EEE67AF1EE10FA40F26781E4
:10519000F4EEC67AF1EE10FA66FE277A67EEA57A8B
:1051A000FDEEE77A17EE901A09B243F8201009EBEA
:1051B0000201D1ED007A67EE277AF4EEE67AF1EE9D
:1051C00010FA40F24A81F4EEC67AF1EE10FA66FE69
:1051D000277A67EEA57AFDEEE77A17EE901A09B204
:1051E0005A444AF82010D2ED007A67EE277AF4EE9E
:1051F000E67AF1EE10FA40F22981F4EEC67AF1EE89
:1052000010FA66FE277A67EEA57AFDEEE77A17EECA
:10521000902A12B248F82020023084428FD80FE141
:1052200022465946D047ACE600297FF420AE2C3701
:10523000BD46BDE8F08F002CF2D0D8ED0C6A844654
:105240009FED417A0021331D56F821200CF1080C06
:1052500082F40002A2F5000207EE902A53F8212002
:105260000231F8EEE77A82F400028C42A2F50002E5
:1052700067EE877A67EEA67A4CED027A07EE902AFF
:10528000F8EEE77A67EE877A67EEA67A4CED017A58
:10529000DAD822465946D047002298ED0D6A2B1DD8
:1052A000DFED2C6A29489FED257ADBED007A014677
:1052B00066EE277AF4EEE67AF1EE10FA0BD9F4EE08
:1052C000C77AF1EE10FA67FE277AF0EE675AFEEE23
:1052D000E45A15EE901ADBED017A45F8221066EEDD
:1052E000277AF4EEE67AF1EE10FA1AD9F4EEC77ADC
:1052F0000BF1080BF1EE10FA67FE277AFEEEE47A66
:1053000017EE901A43F8221002329442CDD838E6B4
:1053100043F8210002310BF1080B8C423FF6FAAD45
:105320002FE643F8220002320BF1080B9442BCD85E
:1053300027E600BFD40800240000003804FF7F3FA8
:1053400000FEFF460280FFFF000000347E0080FF69
:105350000000003004FF7FBF002C3FF461AFD8EDA8
:105360000C6A01461FED067A0022331D844656F86A
:105370002200083107EE900A53F822000232F8EEBC
:10538000E77A944267EE877A67EEA67A41ED027A71
:1053900007EE900AF8EEE77A67EE877A67EEA67A6C
:1053A00041ED017AE3D8604622465946D0470022B3
:1053B00098ED0D6A2B1D5FED196A9D489FEDA17A4E
:1053C000DBED007A014666EE277AF4EEE67AF1EE3E
:1053D00010FA0BD9F4EEC77AF1EE10FA67FE277ACD
:1053E000F0EE675AFEEEE05A15EE901ADBED017A08
:1053F00045F8221066EE277AF4EEE67AF1EE10FA1E
:1054000011D9F4EEC77A0BF1080BF1EE10FA67FE32
:10541000277AFEEEE07A17EE901A43F82210023255
:105420009442CDD8ADE543F8220002320BF1080BCF
:105430009442C5D8A5E5BA68BB69D7E90701984782
:10544000D7F810D02C37BD46BDE8F08F48F8206063
:10545000023084423FF673AEF2E73146C0E6314691
:10546000A3E6314686E6A00049466208012B00F11A
:10547000070020F00700ADEB000DEB46ADEB000D93
:10548000BA606846ADEB090D0BEB8209EC46C7F834
:105490001CD0ADEB010D00EB8201CCE900B9C7F8DF
:1054A00020D0009001917FF4CBAD002C00F01C8245
:1054B00098ED0C6A331DDFED5F6A56F82A1081F40F
:1054C0000001A1F5000107EE901A53F82A1081F4AB
:1054D0000001B8EEE77AA1F5000127EE267A07EE83
:1054E000901A4FEA5A010AF1020AF8EEE77A0BEB3A
:1054F000810027EE067A09EB8101544567EEA67A12
:1055000080ED007A67EE867AC1ED007AD5D8BB6966
:10551000D7E9070198473B6A98ED0D7AD3E900CEA9
:105520007B6A022B00F0D282D8F82C300020FA6877
:10553000DFED436A03EB820A3B6A9FED426A0AF1A0
:1055400004083D4ED3E9029B2B1D42080CEB82015F
:105550009200D1ED007A67EE277AF4EEE67AF1EE6A
:1055600010FA63D9F4EEC67AF1EE10FA66FE277AE5
:10557000F0EE675AFEEEE45A15EE901A45F8201048
:105580000EEB0201D1ED007A67EE277AF4EEE67AAF
:10559000F1EE10FA48D9F4EEC67AF1EE10FA66FE92
:1055A000277AF0EE675AFEEEE45A15EE901A43F8A9
:1055B000201009EB0201D1ED007A67EE277AF4EEB4
:1055C000E67AF1EE10FA2DD9F4EEC67AF1EE10FA81
:1055D00066FE277AF0EE675AFEEEE45A15EE901A50
:1055E0005A444AF82010D2ED007A67EE277AF4EE9A
:1055F000E67AF1EE10FA0FD9F4EEC67AF1EE10FA6F
:1056000066FE277AFEEEE47A17EE902A48F820200C
:105610000230844299D813E748F82060023084426F
:1056200093D80DE73146DBE73146C0E73146A5E7C1
:10563000007E0080000000347E0080FF000000300B
:1056400004FF7FBF04FF7F3F002C00F04D817B6A89
:10565000022B00F07781D8F82430FA687D6103EBE3
:10566000820CFB695FED0B5A00220CF1040ED3E9AA
:1056700002A1331D0D4656F82210D8ED0C7A07EE24
:10568000101A53F82210B8EEC76A07EE101A5CF829
:105690002210F8EEC76A07EE101A26EE256A5EF8A9
:1056A0002210B8EEC77A66EEA56A26EE276A27EEC4
:1056B000257A66EEA76A27EE277A07EE901A510838
:1056C0000232F8EEE77A0BEB8100944280ED006A3B
:1056D00009EB810067EEA57AC0ED006A0AEB810054
:1056E00005EB810180ED007A98ED0C7A67EE877A00
:1056F000C1ED007ABFD87D69BB69BA68D7E90701F7
:1057000098473B6A98ED0D7AD3E900CE7B6A022B6D
:1057100000F08881D8F82C300020FA685FED386AF4
:1057200003EB820A3B6A1FED396A0AF10408DF4E77
:10573000D3E9029B2B1D42080CEB82019200D1EDB4
:10574000007A67EE277AF4EEE67AF1EE10FA63D982
:10575000F4EEC67AF1EE10FA66FE277AF0EE675A9A
:10576000FEEEE05A15EE901A45F820100EEB0201FD
:10577000D1ED007A67EE277AF4EEE67AF1EE10FAD0
:1057800048D9F4EEC67AF1EE10FA66FE277AF0EE0A
:10579000675AFEEEE05A15EE901A43F8201009EB16
:1057A0000201D1ED007A67EE277AF4EEE67AF1EEA7
:1057B00010FA2DD9F4EEC67AF1EE10FA66FE277AC9
:1057C000F0EE675AFEEEE05A15EE901A5A444AF887
:1057D0002010D2ED007A67EE277AF4EEE67AF1EE49
:1057E00010FA0FD9F4EEC67AF1EE10FA66FE277AB7
:1057F000FEEEE07A17EE902A48F82020023084422C
:1058000099D81DE648F820600230844293D817E604
:105810003146DBE73146C0E73146A5E7002C63D0CF
:10582000D8F824305246F9687D6003EB810CDFED37
:10583000A05A331D7D690CF1040E56F82210D8EDE4
:105840000C7A81F40001A1F5000107EE101A53F85B
:10585000221081F40001B8EEC76AA1F5000126EE1E
:10586000256A07EE101A5CF8221081F40001F8EEA8
:10587000C76A26EE276AA1F5000166EEA56A07EE63
:10588000101A5EF82210B8EEC77A81F4000166EEB5
:10589000A76AA1F5000127EE257A27EE277A07EE01
:1058A000901A51080232F8EEE77A0BEB810A944223
:1058B0008AED006A09EB810A67EEA57ACAED006AF3
:1058C00005EB810A00EB81018AED007A98ED0C7AF4
:1058D00067EE877AC1ED007AAFD8BB69D7E901528C
:1058E000D7E90701984716E60022BB69D7E9070107
:1058F0009847A5E51A4698ED0C6ADFED6E6A331DF0
:1059000036F9221007EE101A33F9221007EE901A1A
:10591000B8EEC77A51080232F8EEE77A27EE267A17
:105920000BEB8100944209EB810167EEA67A27EE2A
:10593000067A67EE867A80ED007AC1ED007ADFD8CC
:10594000FFF7DCBB98ED0C6A0022DFED5B6A331DCC
:1059500056F8221007EE901A53F82210B8EEE77AA4
:1059600007EE901A51080232F8EEE77A27EE267A0F
:105970000BEB8100944209EB810167EEA67A27EEDA
:10598000067A67EE867A80ED007AC1ED007ADFD87C
:10599000B2E60021DFED4B6A9FED4B6A2B1DDFED78
:1059A000475A47484A0806460CEB82089200D8ED51
:1059B000007A67EE277AF4EEE67AF1EE10FA0CD967
:1059C000F4EEC67AF1EE10FA66FE277A67EEA57A53
:1059D000FDEEE77A17EE906A36B2724445F8216020
:1059E000D2ED007A67EE277AF4EEE67AF1EE10FA5D
:1059F00012D9F4EEC67AF1EE10FA66FE277A67EE57
:105A0000A57AFDEEE77A17EE902A12B243F821202C
:105A100002318C42C6D813E543F8210002318C4292
:105A2000C0D80DE50021DFED276A9FED276A2B1D09
:105A30001E484A0806460CEB82089200D8ED007A10
:105A400067EE277AF4EEE67AF1EE10FA0BD9F4EE6F
:105A5000C67AF1EE10FA66FE277AF0EE675AFEEE8D
:105A6000E05A15EE906A724445F82160D2ED007A52
:105A700067EE277AF4EEE67AF1EE10FA0FD9F4EE3B
:105A8000C67AF1EE10FA66FE277AFEEEE07A17EE9D
:105A9000902A43F8212002318C42CAD8D0E443F83E
:105AA000210002318C42C4D8CAE400BF007E0080CD
:105AB00000000034000000380000003000FEFF4607
:105AC0000280FFFF04FF7FBF04FF7F3F00215FEDE7
:105AD000036A1FED036A2B1D1E484A0806460CEB9D
