:020000040800F2
:10000000000002206503000859030008FD250008D0
:1000100059030008590300085903000800000000B4
:10002000000000000000000000000000590300086C
:10003000590300080000000059030008812500084A
:100040005903000859030008590300085903000820
:100050005903000859030008590300085903000810
:100060005903000859030008590300080523000834
:1000700011230008590300081D2300082923000844
:10008000CDDB0008091300085903000859030008D4
:1000900059030008590300085903000859030008D0
:1000A00059030008590300085903000859030008C0
:1000B0005DCD000869CD000875CD00083D1300082E
:1000C000590300084913000859030008F9C500083E
:1000D00005C60008DDD900080DDA000845DA000879
:1000E00059030008590300080000000059030008E4
:1000F0005903000859030008590300085903000870
:10010000590300085903000881CD000811C60008F2
:100110007DDA0008B5DA0008590300085903000821
:10012000590300085903000835C6000869C60008CD
:1001300001DC0008590300085903000859030008AE
:1001400000000000000000000000000000000000AF
:10015000590300085903000859030008EDDA0008A4
:10016000551300085903000891250008B52500081B
:1001700059030008D925000859030008590300084D
:10018000590300085903000825DB00085DDB00085F
:100190001DC6000829C600085903000859030008B5
:1001A00059030008590300085903000859030008BF
:1001B000491F0008590300085903000859030008A3
:1001C000590300085903000859030008590300089F
:1001D000590300085903000859030008590300088F
:1001E000590300085903000859030008590300087F
:1001F000590300085903000859030008590300086F
:10020000590300085903000859030008590300085E
:10021000590300085903000859030008590300084E
:1002200059030008590300085903000800000000A2
:100230005903000859030008000000005903000892
:10024000590300085903000859030008590300081E
:10025000590300085903000859030008590300080E
:1002600059030008590300085903000859030008FE
:10027000590300085903000895DB0008000000003E
:100280005903000859030008590300080000000042
:08029000000000005903000802
:1002980053B94AB9002908BF00281CBF4FF0FF31E5
:1002A8004FF0FF3000F00CB8ADF1080C6DE904CE4A
:1002B8000FF016FFDDF804E0DDE9022304B0704713
:1002C800704700BF0348044B834202D0034B03B17D
:1002D800184770477C0300247C03002400000000BA
:1002E8000548064B1B1AD90F01EBA301491002D090
:1002F800034B03B1184770477C0300247C03002498
:100308000000000010B5064C237843B9FFF7DAFF68
:10031800044B13B10448AFF300800123237010BDD0
:100328008003002400000000EC04010808B5054B18
:100338001BB105490548AFF30080BDE80840FFF749
:10034800CFBF00BF0000000084030024EC040108B4
:10035800684620F007018D46FEE700BF0C4A08B545
:100368000C4B934204D0D21A0B4918460FF0AAFE40
:100378000A4A0B4B934204D0D21A002118460FF0B8
:1003880075FE02F0A3FB0FF079FE00F00DF8FEE712
:100398007C0300240000002420050108F03000241C
:1003A80080030024704700BF10B50948012400F0FD
:1003B80039F80021064800F0F5F82146044800F015
:1003C80033F84FF47A7084F0010402F083F9F4E70B
:1003D8009C03002410B44FF60B710F4C00236FF0F0
:1003E800F4102185A187A4F8581063612362636320
:1003F800A36463662367094A0949C4E90030C4E96C
:100408000200C4E90B332046C4E91033C4E91733AA
:100418005DF8044B0FF016BE9C0300240000002476
:10042800AD030008704700BF283000F015BE00BFBC
:1004380010B540F203318EB000244FF60B7340F232
:100448000342ADF80810029909A8ADF81030ADF8CC
:1004580024300123ADF80C202246009407940C9414
:10046800CDE90544CDE90A4400F0DCFC04A80123E9
:1004780022460399009400F0D5FC09A800F0E0FD9D
:1004880010B901200EB010BD04A800F0D9FD80F00D
:100498000100C0B240000EB010BD00BF2DE9F04110
:1004A80003239AB00125002414934FF60B78394B97
:1004B800064610941193A3F19F631595A3F57D4308
:1004C800ADF84C80CDE916451293FFF7B1FFA8426D
:1004D80007463DD002282BD12F4B2A460094CDF851
:1004E8004A3040F60133ADF82C80ADF81830234679
:1004F80006990E94CDE918450BAD2846CDE90C4474
:1005080000F090FC2146284600F0A6FD10A906F14F
:10051800700001F00DFF214B0FCB85E80F00326F03
:10052800294606F1140000F01DFB1AB0BDE8F08161
:1005380040F60132184B06F158001995ADF82C20F9
:100548000BAD0B991894CDF84A3000F0A3F8DDE70D
:100558001023114A06A906908DF828300BAD104BD0
:10056800CDF84A2009940294CDE90730CDE9180462
:1005780002A800F0F1FE0823029A03A92846ADF864
:100588000C708DF80E40049705930B9400F0C2F898
:10059800BCE700BF0402040404060403E0030108E6
:1005A8000704010B2DE9F041384B0446384D40F261
:1005B8000112012604F104082DED028B82B045607A
:1005C800A36003F58133ADF8042040F2027203F50D
:1005D800807300202285E36040F606632682A387A5
:1005E800E662266400918DF8060002F023FA0546BB
:1005F80002F072F86946074610BB0DB304F15000CB
:100608008DF8066002F098F9072D36D104F114052B
:100618002046FFF743FF284600F0E0FA2846B0EEF0
:10062800408A00F0D7FAD0ED007AF8EE677A88EEC3
:10063800277A84ED1B7A02B0BDEC028BBDE8F0810D
:1006480004F1500002F078F9072D02D1002FDDD017
:1006580004E04146204601F02BFA9FB104F128013D
:10066800084600F0CFFA04F13C01084600F0CAFA47
:1006780004F1120000F068F9C8E74146204601F08D
:1006880017FAC3E7002DE9D0C0E700BF0507050644
:100698000508050930B585B0002504460122ADF8E6
:1006A8000C102B460399009500F0BCFB0121204655
:1006B80000F0D2FC012002F00DF82946204600F097
:1006C800CBFC012002F006F80121204605B0BDE868
:1006D800304000F0C1BC00BF10B5C2F3002384B0A5
:1006E8000C46017C8DF80D2043EA4402FA240223CB
:1006F8008DF80C2003AA009400F0C2FE18B1012462
:10070800204604B010BD04460A2001F0E3FF20464D
:1007180004B010BD034670B5044684B043F8042BFA
:10072800FA2507C983E80700A1791E23009503AAC3
:100738001A31ADF80C3020460223C9B2217400F0FA
:100748009FFE10B1012004B070BD0A2001F0C2FF65
:100758004FF4B85200950223ADF80C20204603AAA6
:10076800217C00F08DFE0028ECD10A2001F0B2FFB8
:1007780041F2027200950223ADF80C20204603AA2C
:10078800217C00F07DFE0028DCD10A2001F0A2FFC8
:10079800042200950223ADF80C20204603AA217CF0
:1007A80000F06EFE0028CDD10A2001F093FF06224A
:1007B80000950223ADF80C20204603AA217C00F006
:1007C8005FFE0028BED10A2001F084FF41F2082212
:1007D80000950223ADF80C20204603AA217C00F0E6
:1007E8004FFE0028AED10A200A2601F073FF0095BB
:1007F800022303AA217C2046ADF80C6000F040FEDD
:1008080000289FD1304601F065FF23790C2200951E
:10081800002B217C8DF80C20204614BF6223422334
:100828006A448DF80D30022300F02AFE002889D191
:10083800304601F04FFFA36800952046E268217C0E
:100848001343627943EA4213227982F0010243EAB0
:1008580082130E228DF80D3002238DF80C2003AA86
:1008680000F00EFE00287FF46DAF304601F032FF35
:10087800102200950223ADF80C20204603AA217C03
:1008880000F0FEFD00287FF45DAF304601F022FF46
:10089800122100950223ADF80C1003AA217C2046F2
:1008A80000F0EEFD00287FF44DAF304601F012FF56
:1008B80001220921204604B0BDE87040FFF70CBFB3
:1008C80070B586B000240125102602A94FF4805285
:1008D8001C480194CDE90256CDE9045409F0CCFD39
:1008E800642002F085FA022302A94FF480521548C9
:1008F80002930594CDE9036509F0BEFD042302A91E
:100908004FF480520F480396CDE904340323029331
:1009180009F0B2FD40F23223042202A909480193EA
:1009280010230495CDE90223019B4FF480520593CF
:1009380009F0A2FD40F60601024809F0BDFD204677
:1009480006B070BD1C04002470B51D4B88B0082289
:100958004FF4006400211B4E1A614FF0020C039201
:100968000A225C62202406924022054699600320F0
:10097800196210215E600126C3E905424FF4C07276
:10098800DE60DA6107229FED0C7BCDE900C204220C
:10099800CDE904016946181D029283ED0A7B09F02E
:1009A80041FD30B904462846FFF78AFF204608B0C3
:1009B80070BD304608B070BD001000000000000097
:1009C80018040024404100525E4A0023F0B5146820
:1009D8008FB00A93002C40F0B2805B4B01210326B4
:1009E8000C2511600227D3F8D420584842F48052CD
:1009F800C3F8D420D3F8D42002F480520092009A8D
:100A0800D3F8E02042F01002C3F8E020D3F8E02049
:100A180002F010020192019AD3F8E02042F040025D
:100A2800C3F8E020D3F8E02002F040020292029AD4
:100A3800D3F8E02042F00802C3F8E020D3F8E02021
:100A480002F008020392039AD3F8E02042F480727D
:100A5800C3F8E020D3F8E02002F480720492049AEC
:100A6800D3F8E02042F08002C3F8E020D3F8E02079
:100A780002F080020592059AD3F8E02042F02002A5
:100A8800C3F8E020D3F8E02002F020020692069A8C
:100A9800D3F8E02042F00402C3F8E0204FF6837256
:100AA800D3F8E0300B9603F004030C950793022368
:100AB800079908A9CDE9082303F0B2FD48F23713D6
:100AC80008A9234808930C950997CDE90A4603F02D
:100AD800A7FD4CF2037308A91E480893CDE90974D1
:100AE800CDE90B6503F09CFD40F2FF6308A91A48A5
:100AF8000893CDE90974CDE90B6503F091FD4FF634
:100B08000C7308A915480893CDE90974CDE90B655C
:100B180003F086FD4FF63F0308A911480893CDE975
:100B28000974CDE90B6503F07BFD202308A90B4868
:100B380009970C950893CDE90A4603F071FD0FB0AB
:100B4800F0BD00BF100400240044025800100258F1
:100B580000180258000C025800200258001C0258C5
:100B68000014025830B5184C85B01546046004F1DD
:100B7800080E0FC98EE80F00D4ED047AF5EEC07A9E
:100B88008DE80F00F1EE10FA1ADDB7EE006A94ED69
:100B9800057A27EE277AC6EE276A84ED0D7AC4ED2A
:100BA8000C6A6DB1204640F8185F01F0BFFC074998
:100BB80003690020064A2162A262E36005B030BDE5
:100BC800012005B030BD00BF5004002400200030D3
:100BD8000000003000680830704700BF0068183017
:100BE80001F0A6BC064B302003214FF07E52C3E92A
:100BF8000201002000211A615A61C3E90601704709
:100C08005004002484460FC98CE80F009CF800307B
:100C18000B2B47D000B59CF801E091B0BEF10F0F47
:100C28003DD802293FD0032904D0A1F10101B1FA2E
:100C380081F14909DCF808200C91012A05D0A2F1BC
:100C48000202B2FA82F252095200DCF80C100D923C
:100C5800022906D0032904D0A1F10101B1FA81F1DA
:100C680049090A2B0E910FD8624A591E02EB8323B9
:100C7800CCF81030092900F2AE80DFE801F0253405
:100C8800435261707F8E9D1600231846CCF81030B1
:100C980001230BA903FA0EF30B9303F0C1FC11B067
:100CA8005DF804FB70471121C4E7534B5348D3F850
:100CB800E02042F48062C3F8E020D3F8E03003F487
:100CC80080630A930A9BE3E74B4B4D48D3F8E02037
:100CD80042F00202C3F8E020D3F8E03003F0020348
:100CE8000193019BD4E7444B4648D3F8E02042F0F7
:100CF8000402C3F8E020D3F8E03003F004030293C1
:100D0800029BC5E73C4B4048D3F8E02042F008027C
:100D1800C3F8E020D3F8E03003F008030393039B03
:100D2800B6E7354B3948D3F8E02042F01002C3F853
:100D3800E020D3F8E03003F010030493049BA7E706
:100D48002D4B3348D3F8E02042F02002C3F8E020CE
:100D5800D3F8E03003F020030593059B98E7264B72
:100D68002C48D3F8E02042F04002C3F8E020D3F842
:100D7800E03003F040030693069B89E71E4B2648A4
:100D8800D3F8E02042F08002C3F8E020D3F8E03046
:100D980003F080030793079B7AE7174B1F48D3F8A4
:100DA800E02042F48072C3F8E020D3F8E03003F486
:100DB80080730893089B6BE70F4B1948D3F8E02022
:100DC80042F40072C3F8E020D3F8E03003F4007373
:100DD8000993099B5CE7084B0648D3F8E02042F0EA
:100DE8000102C3F8E020D3F8E03003F001030093D8
:100DF800009B4DE7000002580044025800280258A2
:100E08000004025800080258000C0258001002584A
:100E18000014025800180258001C025800200258FA
:100E28000024025810B592B00180ADF80410C9B280
:100E3800149C0B29C460C0E901233FD090F801E05D
:100E48008446BEF10F0F39D8022A39D0032A04D0BC
:100E5800A2F10102B2FA82F25209012B0E9205D0D8
:100E6800A3F10203B3FA83F35B095B00022C0F932F
:100E780006D0032C04D0A4F10104B4FA84F4640964
:100E88000A2910940FD8624B4A1E03EB8123CCF831
:100E98001030092A00F2AC80DFE802F0233241501A
:100EA8005F6E7D8C9B1400231846CCF8103001230C
:100EB8000DA903FA0EF30D9303F0B2FB12B010BDA7
:100EC8001122CAE7534B5448D3F8E02042F4806219
:100ED800C3F8E020D3F8E03003F480630C930C9B54
:100EE800E5E74C4B4D48D3F8E02042F00202C3F846
:100EF800E020D3F8E03003F002030393039BD6E726
:100F0800444B4748D3F8E02042F00402C3F8E020FD
:100F1800D3F8E03003F004030493049BC7E73D4B88
:100F28004048D3F8E02042F00802C3F8E020D3F8A4
:100F3800E03003F008030593059BB8E7354B3A48C2
:100F4800D3F8E02042F01002C3F8E020D3F8E030F4
:100F580003F010030693069BA9E72E4B3348D3F8FA
:100F6800E02042F02002C3F8E020D3F8E03003F09C
:100F780020030793079B9AE7264B2D48D3F8E020D8
:100F880042F04002C3F8E020D3F8E03003F0400319
:100F98000893089B8BE71F4B2648D3F8E02042F0C4
:100FA8008002C3F8E020D3F8E03003F0800309930F
:100FB800099B7CE7174B2048D3F8E02042F4807265
:100FC800C3F8E020D3F8E03003F480730A930A9B57
:100FD8006DE7104B1948D3F8E02042F40072C3F8CB
:100FE800E020D3F8E03003F400730B930B9B5EE72B
:100FF800084B0748D3F8E02042F00102C3F8E0208C
:10100800D3F8E03003F001030293029B4FE700BFDF
:1010180000000258004402580028025800040258F0
:1010280000080258000C0258001002580014025818
:1010380000180258001C02580020025800240258C8
:1010480008B5012143780069994089B203F01CFE74
:10105800003818BF012008BD01230A4641780069FD
:1010680003FA01F189B203F015BE00BF10B50023E1
:1010780086B0122204460393CDE901230368022BAC
:101088001FDC002B01DB0423049323790A2B1FD8D0
:10109800114800EB8320627901236946934000934D
:1010A80003F0BEFAA3790A2B14D80B4800EB83206F
:1010B800E279012369469340009303F0B1FA06B040
:1010C80010BD032BE1D10623049323790A2BDFD922
:1010D8000020E0E70020EBE700000258634A0368BD
:1010E800934210B58CB028D0614A934258D0614AD7
:1010F800934200F09480604A934201D00CB010BD36
:101108005E4C5F48D4F8E03043F00203C4F8E030A6
:10111800D4F8E03003F002030A930A9BFFF7A6FF16
:10112800D4F8F43043F08003C4F8F430D4F8F43041
:1011380003F080030B930B9BE0E7504C5148D4F825
:10114800E03043F00203C4F8E030D4F8E03003F0B4
:1011580002030193019BFFF789FFD4F8E8300022CE
:101168001F2043F400131146C4F8E830D4F8E830DF
:1011780003F400130293029BD4F8D83043F0010320
:10118800C4F8D830D4F8D83003F001030393039B94
:1011980001F058FE1F200CB0BDE8104001F08EBED3
:1011A800364C3948D4F8E03043F08003C4F8E030D6
:1011B800D4F8E03003F080030493049BD4F8E030C3
:1011C80043F00203C4F8E030D4F8E03003F002033F
:1011D8000593059BFFF74AFFD4F8E8300022212049
:1011E80043F480031146C4F8E830D4F8E83003F437
:1011F80080030693069BD4F8D83043F00103C4F863
:10120800D830D4F8D83003F001030793079B01F0D6
:1012180019FE21200CB0BDE8104001F04FBE1B485C
:10122800FFF724FF154B00224820D3F8E840114669
:1012380044F40004C3F8E840D3F8E84004F4000498
:101248000894089CD3F8D84044F00104C3F8D84067
:10125800D3F8D83003F001030993099B01F0F2FD9C
:1012680048200CB0BDE8104001F028BE00540040F2
:1012780000580040005C0040001C00580044025820
:101288002C0700248C0400246C0500244C06002440
:10129800F0B5002287B0184B1021CDF802206F4618
:1012A800CDF806209C46CDF80A206E46CDF80E20D3
:1012B8000CF11805CDF812200CF1300EADF81620FF
:1012C800FF220E4B6C46ADF800101A700FCFACE839
:1012D8000F0097E803008CE803000FCE0FC596E8CF
:1012E800030085E803000FCCAEE80F0094E8030084
:1012F8008EE8030007B0F0BD040000248804002431
:1013080010B5EFF3108472B6084B1A78120602D59E
:1013180004B962B610BD1B7805485BB2C3EBC303C2
:1013280000EB431002F068FFF2E700BF88040024D6
:10133800A0040024014804F04DBE00BF1805002495
:10134800014804F047BE00BFF8050024014804F036
:1013580041BE00BFD80600242DE9F0430D6885B0D2
:101368003E4EC5EBC503032D4FEA431706EB431367
:1013780003605BDCCA680C46012A57D84FEAC508E7
:1013880050D020689C466168A8EB0509A2680DF159
:10139800100EE36806EB4919ACE80F00304B227CCD
:1013A8008CF80020D9F808C00FCB0EE90F000EEB1F
:1013B8008503BCF1010F53F8103CC9F88C3043D0B9
:1013C800BCF1020F36D0BCF1000F08D101F030FBA0
:1013D800244B98420CBF244B244BC9F890308C37CF
:1013E800227CA8EB050800233744520006EB481678
:1013F80001213846C6F8AC30C6E92521C6E92733AD
:10140800C6E9293304F086FA80B90146384604F063
:10141800EDFD58B90146384604F012FE003818BFF1
:10142800012004E00A7C103A672AAAD9012005B0F5
:10143800BDE8F08301F0FCFA0A4B98420CBF0C4B54
:101448000C4BC9F89030CAE701F0F2FA054B984204
:101458000CBF094B094BC9F89030C0E78C04002435
:10146800F0030108000E27075F4390608A62E030AE
:10147800200BA0101A0980102D0FB0303211D02087
:101488002DE9F041D0F8008082B00D4617461E467F
:1014980008F18C04204604F0A5FD2028FAD1D8F8DC
:1014A8000C3073B96D002046089C33463A46A9B201
:1014B800009404F085FA003818BF012002B0BDE896
:1014C800F081089B32463946204604F045FCF2E795
:1014D800094B6FF0F41110225960C3F8E410C3F8F7
:1014E800C411C3F8A4121A7483F8F02083F8D02129
:1014F80083F8B022704700BF8C04002430B5002365
:1015080095B04FF48071062204460B93069213930C
:10151800CDE90C13CDE90E33CDE9113301F08AFA88
:1015280007282AD004F1100541F2883206A9284676
:1015380005F0DCFD28B1012384F85C30012015B0EA
:1015480030BD0223102206A9284602920022CDE9C6
:101558000033012303934FF48003CDE904230522CC
:101568004FF0807306926A460F9341F2883305F074
:1015780059FF0028DFD115B030BD032384F85C3053
:10158800DCE700BF0000000070B50023A4B04FF0F6
:1015980080724FF480750446ADF806301B93CDE990
:1015A8001E320122CDE91C53CDE92023CDE9223397
:1015B800002942D0F02300F1100516AEADF8063030
:1015C800C02341F2883231462846169305F08EFD35
:1015D80028B1012384F85C30012024B070BD41F2A9
:1015E80088320DF10601284605F0FCFD0346002867
:1015F800EFD14FF480710522284601250892102268
:1016080010930D93159302930595CDE90E139FED55
:101618001E7B4FF08071CDE91333119141F288336D
:1016280008A9CDE9035202AA8DED067B05F0FAFE62
:101638000028D2D084F85C50CEE700F1100516AE31
:10164800612341F2883231462846169305F04EFD53
:101658000028BED141F288320DF10601284605F076
:101668004FFE0028B5D1BDF80630204623F0780398
:1016780043F04003ADF80630FFF740FF00289FD045
:10168800A7E700BFAFF300800000000000004000A3
:101698002DE9F04F00234FF4807601254FF0807834
:1016A80004462DED028BABB08DF8073021931393D0
:1016B8001B9322961C95CDF89480CDE92333CDE970
:1016C8002653CDE92833CDE91463CDE91633CDE9A6
:1016D800193306230E9301F0ADF9072808D004F159
:1016E800100741F288320EA9384605F0FFFC40B1D8
:1016F800012384F85C3001202BB0BDEC028BBDE8DF
:10170800F08F02234FF0100A4FF0050908AA0EA91E
:1017180038460B95CDF85C80CDF828A0CDF83890E8
:101728009FED2B8BCDE9083341F288338DED0C8B7F
:1017380005F078FE0028DBD141F2883238461CA932
:1017480005F0D4FC0028D3D14FF0400B41F2883289
:101758000DF1070138468DF807B005F043FD002864
:10176800C6D143224FF400431CA93846CDF808B02F
:101778000595CDF87090CDF89480CDE9032341F21A
:10178800883302AA8DED068B05F04CFE034600282F
:10179800AED1139308AA1B930EA938461496CDF818
:1017A8003890CDF85C80CDF828A00B95CDE915339D
:1017B800CDE91933CDE9083541F288338DED0C8B2D
:1017C80005F030FE002897D084F85C5093E700BFFE
:1017D80000000000000040002DE9F04700234FF40E
:1017E800807601254FF0807804462DED028BAAB053
:1017F800CDE92333219313931B9322961C95CDF89F
:101808009480CDE92653CDE92833CDE91463CDE999
:101818001633CDE9193306230E9301F00BF9072887
:1018280008D004F1100741F288320EA9384605F0B5
:101838005DFC40B1012384F85C3001202AB0BDEC86
:10184800028BBDE8F08702234FF0100A4FF005091C
:1018580008AA0EA938460B95CDF85C80CDF828A0CB
:10186800CDF838909FED2C8BCDE9083341F28833C1
:101878008DED0C8B05F0D6FD0028DBD141F28832C6
:1018880038461CA905F032FC0028D3D1402341F288
:1018980088320DF1070138468DF8073005F0A2FCB3
:1018A8000028C7D19DF8073008AA0C90FF2008939C
:1018B8004FF400431CA90B95CDF87090CDF8948097
:1018C800CDE909034FF4800338460D9341F288337C
:1018D80005F0A8FD03460028ACD113930EA91B936D
:1018E8003846029302AA1496CDF83890CDF85C8059
:1018F800CDF810A003950595CDE91533CDE9193339
:1019080041F288338DED068B05F08CFD002895D0CB
:1019180084F85C5091E700BF000000000000400020
:1019280070B50122AAB004460D465D48C02103F0F7
:10193800B1F900265B4B0696594895FAA5F5CDE90D
:101948000466D3F8E02042F02002C3F8E020C02269
:10195800D3F8E03003F0200301930123019902A991
:10196800CDE9022302F05CFE142001F041FA324670
:10197800C0214B4803F08EF9142001F039FA0122F6
:10198800C021474803F086F9142001F031FA0123F9
:10199800454AE6612261C4E90533002D77D0B5FADE
:1019A80085F1013900234FF4807604F11005C4E96C
:1019B80008162846C4E90B3305F022FB30B1012391
:1019C8001D4684F85C3028462AB070BD6623169000
:1019D800179041F2883213900EA91B900E93CDE90F
:1019E8001460CDE91900284605F080FB0028E6D1EF
:1019F80099230EA941F2883228460E9305F076FB0A
:101A08000028DCD105230122102124901C934FF0DB
:101A180080732190259341F28833299008900B9286
:101A28009FED1D7BCDE90921CDE92260CDE9270095
:101A380008AA1CA928468DED0C7B05F0F3FC0028AC
:101A4800BDD12046FFF7C8FE0028B8D1284605F0CA
:101A58003BFB05460028B2D123790A2B02D813484C
:101A680000EB832063790121994002F0DDFFA3791F
:101A78000A2B0ED80D4800EB83200126E17906FADF
:101A880001F102F0D1FF266684F864609BE71F210C
:101A980088E70020F1E700BF0000000000004000D8
:101AA8000014025800440258005000520000025826
:101AB8002DE9F041684CA2B00D46046000F0BAFF71
:101AC800072858D028682346AA68696807C3AA89DE
:101AD800184620F8042B267B677B05F0F5FA0028CA
:101AE80038D194F86430002B3CD1012E204623666F
:101AF8000CBF4FF400054FF480152946FFF710FF7F
:101B0800564B95FAA5F523610123C4E90533002353
:101B1800E361002D6FD0B5FA85F1013900234FF448
:101B280080754F48C4E90815C4E90B3305F068FA15
:101B380080B966230B90139041F2883206A9069368
:101B4800CDE90C50CDE90E00CDE91100444805F06F
:101B5800CDFAA0B1012384F85C300126304622B0CA
:101B6800BDE8F08101239E42236614BF4FF480151F
:101B78004FF40005C4E7032384F85C30EDE79923AC
:101B880041F2883206A93648069305F0AFFA0028D4
:101B9800E0D105234FF001081C906A4614934FF0DA
:101BA8008073199014A91D9310232190009002931B
:101BB80041F28833CDF80480CDF80C809FED227B6C
:101BC800CDE91A50CDE91F0025488DED047B05F0BD
:101BD80029FC0028BED131461F48FFF7D5FC002854
:101BE800B8D11D48FFF754FD06460028B2D127B1E9
:101BF80002232366B2E71F2190E7EB2306AA14A964
:101C0800174814934FF440631A951B934FF40053ED
:101C1800189717934FF440431C93A0231693062359
:101C280019934FF080539FED0A7B21934FF0407337
:101C3800CDE91F771D938DED067B05F081FC00280B
:101C4800D6D084F85C8088E70000000000004000DF
:101C5800000000000000000010080024005000529E
:101C6800200800245D4A01682DE9F04F91428FB0A9
:101C78004FF00004CDE90944CDE90B440D9402D09E
:101C88000FB0BDE8F08F564A06ADDFF860A10DF140
:101C98001C0BD2F8D4305AF8080CAAF1680743F4A0
:101CA8008043DFF844814F4EC2F8D430D2F8D430A4
:101CB800DFF83C9103F480430193019BD36F43F415
:101CC8008043D367D36F23F48043D367D2F8E030DF
:101CD80043F04003C2F8E030D2F8E03003F04003AC
:101CE8000293029BD2F8E03043F02003C2F8E030C0
:101CF800D2F8E03003F020030393039BD2F8E030DE
:101D080043F01003C2F8E030D2F8E03003F01003DB
:101D18000493049BD2F8E03043F00203C2F8E030A9
:101D2800D2F8E03003F002030593059BE3B228BB29
:101D3800032B3ED8DAF818301A780A2A44D859788A
:101D4800294B03EB822301228A40022009920022B8
:101D5800CDF81890CDE90A0203220C922A78184689
:101D680009A901340D9202F05BFC386E01350BF1C4
:101D7800010B0AF1040AE3B20028D9D0062B18D0C7
:101D8800DAF8002010780A2823D85178012208EBC5
:101D980080238A40022109920022CDE90A120322F7
:101DA80096E803000C920790ADF820109BF80020ED
:101DB800D5E700225C20114601F044F85C2001F0D0
:101DC8007DF80FB0BDE8F08F5978012203468A40AC
:101DD800BBE7537801229A400023DBE7005000520A
:101DE800004402582404010800000258780800241E
:101DF8000A0A090A4E4B02689A4200D070474D4AB7
:101E08002DE9F041D2F8D4304B4C23F48043216EB5
:101E1800C2F8D43000296FD0A36E1A780A2A79D86C
:101E2800464800EB82205B780121994089B202F094
:101E3800FBFD236E002B67D0E36E1A780A2A6ED852
:101E48003E4800EB82205B780121994089B202F07C
:101E5800EBFD236E002B5AD0236F1A780A2A60D81C
:101E6800364800EB82205B780121994089B202F064
:101E7800DBFD236E002B4FD0636F1A780A2A52D8E5
:101E88002E4800EB82205B780121994089B202F04C
:101E9800CBFD236E002B32D0A36F1A780A2A44D8C0
:101EA800264800EB822059780126DFF88C8005252A
:101EB80006FA01F1214F89B202F0B6FD236EB3B9DB
:101EC800032D1CD8D8F8943018780135597808F1C2
:101ED80004080A2807EB802006FA01F1EDB288BF52
:101EE800002089B202F0A0FD236E002BE8D0062D59
:101EF80005D0D8F87C30E7E7D4F880308DE75C204F
:101F0800BDE8F04100F0E8BFD4F8843095E7D4F894
:101F18008830A2E7002086E7D4F88C30ADE70020AF
:101F280091E700209FE70020ADE70020BBE700BF56
:101F380000500052004402581008002400000258C3
:101F4800014805F08BBB00BF200800240E4B6FF042
:101F5800F4120021981C30B41C1D9D1D9A6019664E
:101F680083F8641003F108015D671C67C3E9002268
:101F780003F10A0230BCC3E91A30C3E91E12C3E9EF
:101F88002030C3E922127047100800242DE9F043DD
:101F9800C2888BB005468388ADF80420008969891A
:101FA800AA89ADF80630AB69ADF80800ADF80A109B
:101FB800ADF80C20002B42D0EB69B3FA83F94FEA55
:101FC80059190126022301AC0DF10E07DFF88080B4
:101FD8000796CDE9053623782A7961789A4216D092
:101FE8002A6806FA01F0EAB1012A02D10BB30A22E3
:101FF80008920A2B04901AD808EB832004A902F04F
:102008000FFB0234BC42E6D10BB0BDE8F0836A791D
:102018008A42E5D1B9F1000FF3D02A6806FA01F037
:10202800002AE1D106220A2B04900892E4D9002064
:10203800E4E7022906D00A2204900892DCE74FF070
:102048000109BEE70822089204220492D4E700BFDF
:1020580000000258A04A0368934270B505468AB04A
:102068007FD0203293427CD09C4A934204D02032C5
:10207800934201D00AB070BD994C9A48D4F8E03028
:1020880043F00103C4F8E030D4F8E03003F0010372
:102098000593059BD4F8E03043F00803C4F8E0301A
:1020A800D4F8E03003F008030693069BD4F8E03038
:1020B80043F04003C4F8E030D4F8E03003F04003C4
:1020C8000793079BD4F8F03043F40003C4F8F030CA
:1020D800D4F8F03003F400030893089BFFF756FF89
:1020E800D4F8D820804B42F001022968D3F85C026A
:1020F800C4F8D820D4F8D82002F001020992774A0F
:10210800099C914200F0AB80D3F88022013A18BFB5
:1021180001229201002840F0CC807448582103F233
:102128002C4403F54775C3F82C0400232046C4E962
:1021380001124FF480524FF48061636262614FF480
:102148008042C4E903314FF48073C4E906234FF495
:102158000033236201F028F8002800F09580FFBEC4
:10216800FEE75F4C604ED4F8E030304643F00103A0
:10217800C4F8E030D4F8E03003F001030093009B8A
:10218800D4F8E03043F01003C4F8E030D4F8E0307D
:1021980003F010030193019BD4F8E03043F04003AF
:1021A800C4F8E030D4F8E03003F040030293029B17
:1021B800D4F8F03043F48003C4F8F030D4F8F030A9
:1021C80003F480030393039BFFF7E0FED4F8D830B1
:1021D800296843F00103404A3068C4F8D830914276
:1021E800D4F8D83003F001030493049B27D0736A12
:1021F800013B18BF01239B01002852D13B4A06F539
:10220800E8745821C036C6F8102100222046C4E9D7
:1022180001134FF480534FF48061626263614FF49D
:102228008073C4E903214FF48042C4E906234FF4C4
:102238000033236200F0B8FF08B3FFBEFEE7336A3D
:10224800013B18BF01239B0118BB02F5284206F584
:10225800AC74572128360C32C6F83021D5E7D3F8AC
:102268007C22013A18BF0122920158BB204857210D
:1022780003F56D7403F52175C3F8B40355E7C6E992
:102288002044A6630AB070BDC5E92044A5630AB01E
:1022980070BD184A06F5AC7459212836C6F83021A5
:1022A800B3E7154A06F5E8745A21C036C6F8102176
:1022B800ABE711485A2103F22C4403F54775C3F8DC
:1022C8002C0432E70B48592103F56D7403F5217589
:1022D800C3F8B40329E700BF04580140045C014077
:1022E80000440258FC0A0024A008002428000240E8
:1022F800100002405800024070000240014801F0FE
:102308007BBF00BFF8090024014801F075BF00BF7A
:10231800700A0024014801F06FBF00BF540C00246C
:10232800014801F069BF00BFCC0C00240000000088
:102338002DE9F0470C684FF41776794D84B004FB0B
:1023480006F6012C05EB0608C0F8008000F398801B
:10235800002206F512730F468E46EA502B44C446F7
:102368005A60C8F850226AA3D3E900236AA1D1E9C8
:102378000001CDE900230DEB8403CDE90201D3F878
:1023880000A0D3F80890BEE80F00ACE80F00BEE844
:102398000F00ACE80F009EE80300C8F828A0C8F8B2
:1023A800C0908CE803003B69042B0DD8DFE803F0EC
:1023B80077818B0395004FF417734BF6803203FB3C
:1023C80004539A64C3F8E020BA69396A002A53D0E2
:1023D80000294FF0010214BF032102214FF41773A3
:1023E80003FB0453C3E90B12FA69796A002A4BD13B
:1023F800003918BF012178694FF41773012803FBCE
:102408000453C3E931127DD0022844D14FF00309A7
:102418004FF000084FF41773424F06F1280004FBF1
:1024280003F30024284403F1380203F1500C03F1AC
:10243800D001BC503A44546003F1E8022B445C6478
:102448005C6347F80C40BC44CCF80440DC657C5025
:1024580039444C604146C3F8DC40C3F8CC40BC501A
:102468003A4454604A46C3F8F440022307F03EFF5A
:1024780000283BD0FFBEFEE7003918BF0121ADE7B9
:10248800012004B0BDE8F08700294FF0010214BF15
:1024980003210221AFE74FF00009C846BAE74FF41D
:1024A80017734FF4FA5203FB04539A64C3F8E020FD
:1024B8008AE74FF417734FF47A5203FB04539A6474
:1024C800C3F8E02080E74FF417734FF4FA4203FB98
:1024D80004539A64C3F8E02076E74FF41773124A5E
:1024E80003FB04539A64C3F8E0206DE706F1C000CB
:1024F80002234A464146284407F0F8FE0028C0D087
:10250800FFBEFEE74FF00209804683E7AFF3008085
:1025180004580140045C014024580140245C0140F7
:10252800A0080024A4080024007701000068704770
:1025380003681B69042B05D8044A02EB830393ED57
:10254800000A70479FED020A704700BF2C0401087B
:1025580000803B47064B6FF0F4124FF60B71C3E94E
:1025680001229981A3F86812C3E99822704700BF35
:10257800A0080024704700BF08B500F027FCBDE89C
:10258800084000F023BD00BF064808B503680BB13A
:1025980002F084FB044803681BB1BDE8084003F05F
:1025A8007BBD08BD70120024600D0024064808B5E4
:1025B80003680BB102F072FB044803681BB1BDE865
:1025C800084003F069BD08BD70120024600D0024A6
:1025D800064808B503680BB102F060FB04480368BD
:1025E8001BB1BDE8084003F057BD08BD70120024B8
:1025F800600D0024364BDA6A520062D59A6A9A6AEC
:102608009A6A9B6A180600D500BE314B9B6A9906E8
:1026180000D500BE2E4B9B6ADA0600D500BE2C4BB7
:102628009B6A1B0700D500BE294B9B6A980700D5FB
:1026380000BE274B9B6AD90700D500BE244B9B6A76
:102648001A0400D500BE224B9B6A9B0400D500BE2D
:102658001F4B9B6AD80400D500BE1D4B9B6A190509
:1026680000D500BE1A4B9B6A5A0500D500BE184B10
:102678009B6A9B0500D500BE154B9B6AD80500D503
:1026880000BE134B9B6A990100D500BE104B9B6A94
:10269800DA0100D500BE0E4B9B6A1B0300D500BEB5
:1026A8000B4B9B6A580300D500BE094B9B6A9903E4
:1026B80000D500BE064B9B6ADA0306D400BE00BEF6
:1026C800FEE7DB6A9B07FAD5F8E700BEF6E700BF2E
:1026D80000ED00E000F08CBB0A4B9B6803F17843E7
:1026E800B3F5003F0BD3084B986848B198680128A8
:1026F80006D09868022803D0986803207047012004
:10270800704700BF00ED00E00000803800000000C6
:102718002DE9F043CFB005464C2200210AAC2046F3
:102728000DF0A4FC2022002102A80DF09FFCC0227D
:1027380000211EA80DF09AFC022004F071FB2B6802
:10274800012B54D05A49002202260192C86A594ADC
:1027580020F00100C862C820C96A01F00101019196
:10276800916941F440419161926902F440420192B9
:10277800019B504A93699904FCD54F4902250022D0
:1027880001278B6A4FF004094FF0080823F0030370
:102798002B438B62052320632046A3634FF48033C9
:1027A800A7616563E563C4F84080C4E9112221226A
:1027B800CDE91355CDE90A23C4F82C9005F0C8F8E3
:1027C80000B1FEE740233F224FF480640490099350
:1027D800314602A8CDF814800894CDE906330323C6
:1027E800CDE9022305F032FC0346C8B1FEE73149C2
:1027F80000226B460426009288692D4A40F4404026
:102808008861F020896901F440410091D16A41F062
:102818000101D162D26A02F0010200921B68A8E7A6
:10282800202226933F9380212C924FF480522D949E
:10283800002427921EA83692062225914FF44011B3
:10284800289240F22712CDF8AC90299210222097B6
:102858002A92022224974091CDE92E334FF48033F7
:10286800CDE922853293002547938023CDE93C4565
:10287800CDE934234FF480740C23002544940224BA
:10288800219309A3D3E90023CDE93045CDE91E23DF
:1028980005F0B6FE00B1FEE704F0E6FA4FB0BDE879
:1028A800F08300BFAFF300800F130F030000000098
:1028B80000040058004802580044025870B584B01B
:1028C800012400F031FB4FF480764FF04052194B51
:1028D8006846ADF80040019200250293039600F087
:1028E80041FB192368468DF80F408DF808304FF0EA
:1028F8004043ADF80D6001938DF801408DF80A5002
:1029080000F030FB02230B2268468DF80F508DF83B
:1029180001304FF062538DF808200193ADF80D4057
:102928008DF80A4000F01EFB042000F00BFB04B0F9
:1029380070BD00BF0E00010330B50C46054685B0DA
:10294800D1E9000185E8030000F010FAA379002B13
:1029580063D00BF023FBFEF79BFC09F009FE0AF09D
:10296800BBFF23795BB330494B6913F4803326D11D
:10297800C1F88430BFF34F8FD1F8805043F6E07E22
:10298800C5F34E3CC5F3C9054FEA4C1C0CEA0E00D2
:102998002B4640EA8372013BC1F860225A1CF8D1E9
:1029A800ACF1200C1CF1200FF0D1BFF34F8F4B6915
:1029B80043F480334B61BFF34F8FBFF36F8F63795D
:1029C800B3B1194A536913F4003311D1BFF34F8FD0
:1029D800BFF36F8FC2F85032BFF34F8FBFF36F8FC3
:1029E800536943F400335361BFF34F8FBFF36F8FC5
:1029F8004FF0FF3200230024002569460B4802925D
:102A08008DF80C30CDE900450AF0BCF907480AF00A
:102A18001DFA08F0CFFF05B030BD2846FFF778FE55
:102A28002846FFF74BFF94E700ED00E0580D00241F
:102A380005F076BC1C4B9B6803F17842B2F5003F69
:102A480025D3B3F5803F20D303F16042B2F5003FB0
:102A58001FD303F15C42B2F5002F1CD303F170427F
:102A6800B2F5902F19D303F14842B2F5803F16D33F
:102A780003F18042B2F1806F13D303F1E043B3F561
:102A8800000F34BF0720082070470120704700203E
:102A980070470220704703207047042070470520C4
:102AA80070470620704700BF00ED00E010B4002317
:102AB8000348044A04495DF8044B03600DF0C2BAA8
:102AC800580D0024000000247D25000810B4204C77
:102AD80083B0204B0022D4F888001F4940F47000CE
:102AE800C4F8880018681D4C40F0010018601A618D
:102AF8001868014019609A61DA611A629A62DA62AA
:102B08001A635A639A63DA631A645A64196821F477
:102B1800802119601A66D3F8DC2042F06042C3F8BD
:102B2800DC20D3F8DC300193019B23686FF30F039B
:102B3800B3F1005F03D20A4B0122C3F80821044B0A
:102B48004FF000629A6003B05DF8044B704700BF15
:102B580000ED00E0004402587FEDF6EA0010005C4A
:102B68000080005100F2C441D0F8080508F094BA7A
:102B780001EBC10300EB8303D0F80805D3F88822E2
:102B880008F0BABA01EBC10300EB8303D0F80805DB
:102B98009A6C08F0EBBA00BFD0F8080508F094BBAF
:102BA800016910B5044619B1022900D0FEE70121D8
:102BB800D4F8080508F068FBD4F80805BDE810400B
:102BC80008F034BB10B50446D0F8080508F060FBDF
:102BD8002268D2F8003E43F00103C2F8003E236A9F
:102BE80023B1034A136943F00603136110BD00BF04
:102BF80000ED00E0D0F8080508F05ABBD0F8080549
:102C080008F088BBD0F8080508F06EBBD0F80805B6
:102C180008F096BBD0F8080508F094BB9446D0F8A5
:102C2800C8021A4608B5634604F002F818B102282B
:102C38000CBF0120032008BD08B5D0F8C80204F075
:102C480073F818B102280CBF0120032008BD00BF8B
:102C580008B5D0F8C80204F0A9F818B102280CBFCA
:102C68000120032008BD00BF0A06D0F8C83206D4E8
:102C780001EBC10103EB810393F87E02704701F079
:102C88007F0101EBC10103EB810393F83E0070471C
:102C980008B5D0F8C80203F0B5FF18B102280CBF78
:102CA8000120032008BD00BF08B5D0F8C80204F011
:102CB80019F818B102280CBF0120032008BD00BF75
:102CC80008B5D0F8C80203F0EBFF18B102280CBF12
:102CD8000120032008BD00BFD0F8000308F024BE7F
:102CE800D0F8000308F038BED0F8000308F040BE62
:102CF800704700BFD0F8000308F026BED0F80003E4
:102D080008F026BE08B5D0F8D40302F065FC18B167
:102D180002280CBF0120022008BD00BF704700BF79
:102D28000F4B1B780BB90120704710B504464FF4C0
:102D38007A700C4AB0FBF3F31068B0FBF3F000F0C4
:102D4800DDF80F2C00D808B1012010BD0022214663
:102D58004FF0FF3000F076F8034B00201C6010BDE8
:102D680054000024500000245800002410B503200B
:102D7800124C00F055F805F0DBF8114B11499A692F
:102D88009B69C2F3032203F00F03A25CE35C02F029
:102D98001F020D4C03F01F03D04020FA03F32060FC
:102DA8000E200B60FFF7BCFF10B10124204610BDB8
:102DB8000446FFF7B3FF204610BD00BF40040108DA
:102DC800004402584C00002450000024034A044BDD
:102DD80011681B780B441360704700BF74150024FA
:102DE80054000024014B1868704700BF7415002474
:102DF80038B50446FFF7F6FF0546631C02D0044BBE
:102E08001B781C44FFF7EEFF401BA042FAD338BDE5
:102E180054000024014B1868000C70470010005C37
:102E280006494FF6FF0C0002054BCA6800F4E06043
:102E380002EA0C0210430343CB60704700ED00E048
:102E48000000FA051A4BDB68C3F3022300B5C3F18F
:102E5800070E03F1040CBEF1040F28BF4FF0040E57
:102E6800BCF1060F1AD9A3F1030C4FF0FF3303FA94
:102E78000CF322EA03024FF0FF33002803FA0EF3A3
:102E880021EA030303FA0CF343EA02034FEA0313AC
:102E9800DBB206DB074A13545DF804FB00229446B4
:102EA800E9E700F00F00044A13545DF804FB00BF83
:102EB80000ED00E000E400E014ED00E0002807DB8E
:102EC800012300F01F01034A40098B4042F82030DB
:102ED800704700BF00E100E000280CDB4309012235
:102EE80000F01F0004492033824041F82320BFF33B
:102EF8004F8FBFF36F8F704700E100E0431EB3F1BF
:102F0800807F01D3012070474FF0E022002005495F
:102F18004FF0F00C5361072381F823C090611361CF
:102F2800704700BF00ED00E0BFF35F8F044B002146
:102F38005A6A22F480325A62C3F89410704700BF6C
:102F480000ED00E0064B40F00100C3F894005A6A17
:102F580042F480325A62BFF34F8FBFF36F8F7047CE
:102F680000ED00E0174A4378C2F89830017821B3A1
:102F7800436800B5C2F89C30C37A90F80CC01B06B1
:102F880090F80FE043EA0C7390F80AC00B43817B7A
:102F980043EACC4390F80DC043EA8C4390F809C04B
:102FA80043EA4143017A43EA0E4343EA0C2343EAE6
:102FB8004103C2F8A0305DF804FBC2F89C10C2F8C7
:102FC800A010704700ED00E0704700BF08B5FFF79C
:102FD800FBFF08BD3649024603688B4233D01831DF
:102FE800591AB1FA81F1490969BB3248834239D08B
:102FF800183083423ED01830834239D0183083428B
:103008003BD0183083423ED0183083422FD000F591
:103018005670834235D028498B4231D018318B42C3
:1030280034D018318B4234D018318B4234D0183117
:103038008B4234D018318B4234D018318B4234D083
:1030480023F0FF0011E0DBB21C491D48103BA1FB37
:10305800031310B41B091B4CE15C5DF8044BC2E977
:103068001601704710211648D165906570471621E2
:103078001548F9E716211248F6E706211248F3E742
:1030880006211248F0E710210F48EDE710210F48FC
:10309800EAE716210D48E7E700210D48E4E7062195
:1030A8000B48E1E710210A48DEE716210848DBE76C
:1030B800100002404000024028040240ABAAAAAA1D
:1030C80000000240500401080400024000040240CD
:1030D800040402400268284B284930B4284D294C82
:1030E800AA4218BF9A420CBF012300238A4208BF94
:1030F80043F001032831A24208BF43F001032834FA
:103108008A4208BF43F001032831A24208BF43F0B6
:1031180001038A4208BF43F00103D1B213B91A4B25
:103128009A4211D1A1F10803184C194A0121A4FBB4
:103138000343184C1D0902EB1313A9409B00816639
:10314800C0E9183430BC7047A1F110031249134C80
:103158001144A4FB0343A8294FEA131308D903F029
:103168001F040F4A01211A44A1400E4C9300E6E7C0
:1031780008331C46F5E700BF08540258305402587B
:103188001C5402584454025894540258CDCCCCCC08
:103198000096001680580258F0FBFDBFABAAAAAAF9
:1031A80000820010800802402DE9F04F054683B0E8
:1031B800FFF718FE002D00F0AB812C680646AE4BD9
:1031C800AE4A944218BF9C4202F118020CBF012378
:1031D8000023944208BF43F001031832944208BF09
:1031E80043F001031832944208BF43F00103183238
:1031F800944208BF43F001031832944208BF43F0D9
:1032080001031832944208BF43F0010302F55672D5
:10321800944208BF43F001031832944208BF43F0B8
:1032280001031832944208BF43F001031832944254
:1032380008BF43F001031832944208BF43F001036A
:103248001832944208BF43F001031832944208BF71
:1032580043F001031BB98A4B9C4240F0968100233E
:10326800022285F8343085F83520236823F00103DD
:10327800236006E0FFF7B6FD801B052800F24381B6
:103288002C682368DF07F5D4D5E9023029690343A0
:10329800AA6920680B4369690B43E96913430B4327
:1032A80078490140286A034377480B43696A04292F
:1032B80000F03E8100686FF30F00B0F1005F80F00E
:1032C800F5802360636923F007030B436361284695
:1032D800FFF780FEEA6D3F236C4902F01F026C4F36
:1032E800611A6C4E93406C4AB1FA81F1E71B836016
:1032F800A4EB020A694B4909604ABAFA8AFAA4EBB4
:1033080003095D4B4FEA5A1AB7FA87F7944218BF78
:103318009C4202F11802B9FA89F9A4EB06060CBF1F
:10332800012300234FEA5919B6FA86F6944208BFDA
:1033380043F0010318327F09944208BF43F00103A8
:1033480018327609944208BF43F0010318329442B8
:1033580008BF43F001031832944208BF43F0010349
:103368001832944208BF43F0010302F556729442A2
:1033780008BF43F001031832944208BF43F0010329
:103388001832944208BF43F001031832944208BF30
:1033980043F001031832944208BF43F00103183286
:1033A800944208BF43F001031832944208BF43F027
:1033B80001031832944208BF43F00103384A4AEA2D
:1033C8000303A4EB02083C320B43B8FA88F8A4EBD9
:1033D800020B143249EA03034FEA5818BBFA8BFB75
:1033E800A21A48EA03034FEA5B1BB2FA82F23B4394
:1033F8005209334301925BEA030301D1002A33D017
:1034080028460091FFF766FEAB68A86E802B0099EE
:10341800D5E9184200F08380D5F804C05FFA8CF330
:103428000CF1FF3CBCF1070F236050607BD84AEADF
:10343800010A581E49EA0A0948EA090847EA08073A
:103448003E435BEA060603D1019A002A00F019817F
:10345800144A15491A449200012383400020C5E903
:103468001B216B6710604B6000200123686585F89D
:10347800353003B0BDE8F08F10000240280002404C
:10348800B80402403F8010FE0010005C1C54025833
:10349800585402586C540258085402583054025870
:1034A800445402583F9600164059025868682E281E
:1034B80032D93F38132806D8784E26FA00F0C007CC
:1034C80001D543F4801323600429636923F00703BB
:1034D80043EA01037FF4FAAEE86AA96A0B430028BD
:1034E8003FF4F4AE002A35D1012949D031F0020267
:1034F8007FF4ECAEC2017FF5E9AE402201236A6594
:1035080085F8353004E0202203236A6585F83530D4
:10351800012003B0BDE8F08F2828D4D9D1E70023D3
:103528006B60236050600023C5E91B336B679BE722
:103538000668D5E90B076FF30F060743B6F1005F7E
:1035480043EA0703B2D22360636923F0070343F019
:103558000403C2E7B2F5005F04D00229CDD90329DC
:10356800C8D0B3E603293FF6B1AE01A252F821F064
:1035780003350008FD3400080335000889350008C4
:10358800B0F1C07F7FF4A2AEB7E7454A4549464B44
:10359800A4EB020A611A454FA4EB0309BAFA8AFAA6
:1035A8001433B1FA81F14FEA5A1AB9FA89F9A4EB3E
:1035B800030849094FEA5919E71BB8FA88F84AEA93
:1035C80001033B4E78324FEA581849EA0303B7FA29
:1035D80087F7A61BA4EB020B48EA03037F09B6FA98
:1035E80086F61432BBFA8BFB3B437609A21A4FEAE4
:1035F8005B1B3343B2FA82F25BEA03034FEA5212CF
:10360800019201D1002A43D00223DFF8B8E085F8FF
:103618003530002385F83430AB682268402B02EA45
:103628000E0E33D0A3F18003B3FA83F35B0998033A
:103638000091D5E9033243EA020C6A69AB694CEAA6
:10364800020C1C4A4CEA030CEB6922444CEA030CBA
:103658002B6A4EEA131343EADC031843164BA3FB09
:103668000223206028461B099B00EB65FFF7B2FC8C
:10367800EB6D0246009903F01F000123834053605D
:10368800BEE60E4A0E491A449200E5E61020CFE73E
:10369800402203236A6585F8353039E70F030F00A8
:1036A800085402581C5402583054025858540258AE
:1036B8006C540258F8ABFDA7CDCCCCCC3F8200109F
:1036C800400902400F00FEFF002800F03B822DE970
:1036D800F04390F83440012C00F0F781012480F881
:1036E800344090F83540012C08D04FF40062002394
:1036F800426580F834300120BDE8F0830224674E2B
:10370800DFF8A4E180F835400024654D446504687D
:10371800DFF8A881744518BFB442624FD0F858C08A
:103728000CBF01260026444514BFB14646F00109E6
:10373800BC4218BFAC420CBF0125002540F0C08038
:10374800276827F001072760D0F86CE0D0E91976E0
:103758007E60BEF1000F07D0D0E91C767E601DB9EF
:10376800B9F1000F00F01F81C76D07F01F083F2750
:1037780007FA08F7CCF80870276827F4802727602D
:1037880063608368402B00F0A381A160E260002D94
:1037980040F08581444B026C9C4200F0C081183394
:1037A8009C4200F0DA81B9F1000F40F0A9813F4B4B
:1037B8009C4200F0E5813E4B9C4200F006821833A3
:1037C8009C4200F00E8203F556739C4200F027825B
:1037D80018339C4200F02E8218339C4200F03E823F
:1037E80018339C4200F0458218339C4200F0558201
:1037F80018339C4200F0538218339C4200F05A82DE
:1038080018339C4200F06182236823F00E0343F0D2
:103818000A0323601AB1236843F004032360254B8D
:10382800254A944218BF9C4202F114020CBF01239E
:103838000023944208BF43F001031432944208BFA6
:1038480043F001031432944208BF43F001031432D9
:10385800944208BF43F001031432944208BF43F076
:1038680001031432944208BF43F001037BB1036E95
:10387800D0F86CE01A68D20300F12281BEF1000F83
:1038880005D0DEF8003043F48073CEF800302368AA
:10389800002043F001032360BDE8F083700002407C
:1038A8001000024028000240400002408800024008
:1038B800A0000240085402581C5402585800024004
:1038C800744500F03681444500F03E81B9F1000F9F
:1038D80040F00181B04FBC4200F049811837BC422A
:1038E80000F06A811837BC4200F0878107F55677E7
:1038F800BC4200F08B811837BC4200F0A681183713
:10390800BC4200F0AD811837BC4200F0B4811837D2
:10391800BC4200F0B9811837BC4200F0C2811837A8
:10392800BC4200F0C9811837BC4200F0D0819B4FDF
:10393800DFF874E2744518BFBC420EF1280E0CBFC4
:1039480001270027744508BF47F001070EF1140E40
:10395800744508BF47F001070EF1140E744508BFFF
:1039680047F001070EF1140E744508BF47F0010730
:10397800D4F800E02EF0010EC4F800E0DFF830E2E1
:10398800744508BF47F0010717B9854FBC424AD1B3
:10399800D0F86CE0D0E919767E60BEF1000F02D055
:1039A800D0E91C767E607C4FDFF80882444518BF5A
:1039B800BC4208F118080CBF01270027444508BF7E
:1039C80047F0010708F55678444508BF47F0010756
:1039D80008F11808444508BF47F0010708F118081E
:1039E800444508BF47F0010708F11808444508BFD7
:1039F80047F0010708F11808444508BF47F00107D8
:103A080008F11808444508BF47F0010708F11808ED
:103A1800444508BF47F00107002F7FF4A5AE614F6A
:103A2800BC423FF4A1AE604FDFF870E1744518BFA7
:103A3800BC420EF1140E0CBF01270027744508BFC5
:103A480047F001070EF1140E744508BF47F001074F
:103A58000EF1140E744508BF47F001070EF1140E5D
:103A6800744508BF47F001070EF1140E744508BFEE
:103A780047F001071FB94A4FBC4240F03481C76D77
:103A880007F01F0E012707FA0EF7CCF804706360E1
:103A98008368402B00F02481A160E2607AE6236805
:103AA800026C23F01E0343F0160323601AB1236847
:103AB80043F008032360036E1A68D2037FF5DEAE75
:103AC8001A6842F480721A60D8E60220BDE8F083D2
:103AD800A260E1605BE6DFF8D4E0DEF8707027F002
:103AE8000107CEF87070D0F86CE0D0E919767E60E6
:103AF800BEF1000F3FF438AED0E91C767E6033E6A5
:103B08002A490B6F23F01E0343F016030B67002AA4
:103B18003FF4ADAE236843F008032360A7E62349CA
:103B28000B6C23F01E0343F016030B64002AF1D13B
:103B38009DE6DFF878E0DEF8407027F00107CEF860
:103B4800407001E601207047DFF860E0DEF8587049
:103B580027F00107CEF85870C5E714498B6D23F09C
:103B68001E0343F016038B65002AD3D17FE6DFF8E6
:103B78003CE0DEF8887027F00107CEF8887007E788
:103B88000A49D1F8883023F01E0343F01603C1F820
:103B98008830002ABED16AE6880002401C540258C8
:103BA80094540258B80402400854025800000240D5
:103BB80080540258A0000240DFF830E1DEF8A0701F
:103BC80027F00107CEF8A070E2E64849D1F8A03006
:103BD80023F01E0343F01603C1F8A030002A99D140
:103BE80045E64249D1F8B83023F01E0343F01603E6
:103BF800C1F8B830002A8DD139E6DFF8F0E0DEF8F8
:103C0800B87027F00107CEF8B870C1E6DFF8E0E039
:103C1800DEF8107027F00107CEF81070B8E63449C6
:103C28000B6923F01E0343F016030B61002A7FF48F
:103C380071AF1CE62E498B6A23F01E0343F016036E
:103C48008B62002A7FF466AF11E6DFF8A4E0DEF8A5
:103C5800287027F00107CEF8287099E624495FE715
:103C6800DFF88CE0DEF8407027F00107CEF84070EE
:103C78008EE61F4972E7DFF878E0DEF8587027F023
:103C88000107CEF8587083E6DFF864E0DEF870705C
:103C980027F00107CEF870707AE6154931E7144924
:103CA8006FE7DFF84CE0DEF8887027F00107CEF800
:103CB80088706DE60E4989E7DFF834E0DEF8A07019
:103CC80027F00107CEF8A07062E609498AE7DFF815
:103CD80020E0DEF8B87027F00107CEF8B87057E694
:103CE800A260E16056E5026C61E500BF0000024099
:103CF8000004024070B50446FFF774F8002C6DD03C
:103D080094F83530022B64D125680646AD4B9D42A8
:103D180066D018339D4263D018339D4200F0F3807B
:103D280018339D4200F01A8118339D4200F0258116
:103D380018339D4200F0FF8018339D4200F02E8119
:103D480018339D4200F04A8103F556739D4200F0F6
:103D5800588118339D4200F0638118339D4200F06A
:103D68006E8118339D4200F06C8118339D4200F03B
:103D78006A8118339D4200F0688118339D4200F033
:103D8800688118339D4200F062812B688E4A23F0C7
:103D98000E0395422B6000F0BF808C4B9D4200F0D3
:103DA800BB8014339D4200F0B78014339D4200F06D
:103DB800B38014339D4200F0AF8014339D4200F06D
:103DC800AB8014339D4200F0A78014339D4214D178
:103DD800A2E080220023626584F83430012070BD9F
:103DE8002B68226E23F01E032B606B6923F080037F
:103DF8006B61136823F4807313602B6823F001034D
:103E08002B6005E0FEF7EEFF831B052B00F28A808E
:103E18002B68DB07F6D423686A49E26D8B42A06DF4
:103E280002F01F025ED018318B425BD018318B42F2
:103E380058D018318B4255D018318B4252D0183196
:103E48008B424FD018318B424CD018318B4249D01D
:103E580001F556718B4245D018318B4242D018314A
:103E68008B423FD018318B423CD018318B4239D02D
:103E780018318B4236D018318B4233D018318B42EF
:103E880030D001219140514A41604F485049834206
:103E980018BF934200F13C000CBF012200228B4264
:103EA80008BF42F001022831834208BF42F00102F4
:103EB80028308B4208BF42F001022831834208BFF4
:103EC80042F001028B4208BF42F001026AB9414A3E
:103ED80093420AD000230122184684F8352084F83A
:103EE800343070BD3F2393408360E36ED4E91921D9
:103EF8005160002BEED01A68D4E91C1022F48072AD
:103F08001A604860E6E7344B1A6C22F01E021A6405
:103F18005A6D22F080025A65226E136823F480736A
:103F280013606AE7202103220023616584F8343096
:103F380084F8352052E7284BD3F8882022F01E0257
:103F4800C3F88820D3F89C2022F08002C3F89C2074
:103F5800226E136823F4807313604EE71E4B9A6D2C
:103F680022F01E029A65DA6E22F08002DA66226E6C
:103F7800136823F4807313603FE7174B1A6F22F01E
:103F88001E021A67D3F8842022F08002C3F8842026
:103F9800226E136823F4807313602EE70E4BD3F858
:103FA800A02022F01E02C3F8A020D3F8B42022F0EB
:103FB8008002C3F8B420226E136823F48073136060
:103FC8001BE700BF10000240085402581C54025856
:103FD8003054025894540258000002401E4BD3F843
:103FE800B82022F01E02C3F8B820D3F8CC2022F063
:103FF8008002C3F8CC20226E136823F48073136008
:10400800FBE6164B1A6922F01E021A615A6A22F060
:1040180080025A62226E136823F480731360ECE600
:104028000E4B9A6A22F01E029A62DA6B22F0800224
:10403800DA63226E136823F480731360DDE6074B9E
:1040480062E7064B8BE7054B98E7044B74E7034B95
:10405800C5E7024BA3E700BF00000240000402408E
:10406800002860D090F83530022B5AD10268594B9D
:10407800594910B5594CA24218BF9A4204F130046C
:104088000CBF012300238A4208BF43F001033031EB
:10409800A24208BF43F0010330348A4208BF43F00C
:1040A80001033031A24208BF43F0010330348A4291
:1040B80008BF43F0010301F55C71A24208BF43F059
:1040C800010304F55C748A4208BF43F001033031F0
:1040D800A24208BF43F0010330348A4208BF43F0CC
:1040E80001033031A24208BF43F0010330348A4251
:1040F80008BF43F001033031A24208BF43F0010377
:104108008A4208BF43F0010313B9354B9A420CD1D8
:10411800042380F83530136823F00103136000206E
:1041280010BD80234365012070472E4BDFF8C4C0C3
:104138001168624518BF9A422B4C21F00E010CF110
:104148003C0C0CBF012300231160A24208BF43F0BE
:10415800010311682834624508BF43F0010321F0C8
:104168000101A24208BF43F0010314341160A242C6
:1041780008BF43F001031D498A4208BF43F0010309
:1041880013B91B4B9A4219D10123D0F858C0D0E972
:104198001714226801F01F0122F480728B402260FC
:1041A800CCF80430C36ED0E91921516033B11A68D4
:1041B800D0E91C1422F480721A604C60012100229C
:1041C800036D80F8351080F83420002BA7D098476D
:1041D800A5E700BF1000024040000240280002404E
:1041E800B80402401C5402583054025880540258F3
:1041F8009454025808540258F0B50022944B83B0E6
:10420800856D07461E680192924B026892482C6899
:10421800824218BF9A4200F1180029680CBF012396
:104228000023824208BF43F001031830824208BFCE
:1042380043F001031830824208BF43F001031830ED
:10424800824208BF43F001031830824208BF43F09E
:1042580001031830824208BF43F0010300F556708D
:10426800824208BF43F001031830824208BF43F07E
:1042780001031830824208BF43F00103183082421C
:1042880008BF43F001031830824208BF43F001031E
:104298001830824208BF43F001031830824208BF39
:1042A80043F001031BB96D4B9A4240F02F81FB6D1F
:1042B800082103F01F03994021420BD010684007E2
:1042C80008D5106820F004001060A960796D41F0ED
:1042D8000101796524FA03F1C80709D5516909066E
:1042E80006D501219940A960796D41F002017965EF
:1042F80004219940214207D01068800704D5A9609D
:10430800796D41F00401796510219940214200F04E
:10431800B0801068000740F1AC80A960116811F402
:10432800802F116840F09E80C90503D4116821F0E0
:1043380008011160396C002900F09B8038468847D5
:10434800FB6D202103F01F039940214253D03A68A6
:104358004048414CA24218BF824204F118040CBFE5
:1043680001200020A24208BF40F001001834A242F8
:1043780008BF40F001001834A24208BF40F0010015
:104388001834A24208BF40F001001834A24208BF06
:1043980040F001001834A24208BF40F0010004F5C3
:1043A8005674A24208BF40F001001834A24208BF68
:1043B80040F001001834A24208BF40F00100183450
:1043C800A24208BF40F001001834A24208BF40F0E2
:1043D80001001834A24208BF40F001001834A2427C
:1043E80008BF40F00100002847D11C48824244D051
:1043F8001068800744D47B6D002B70D07B6DDC0780
:104408001ED53A68042187F8351015491368A1FBB1
:10441800066123F00103890A136002E01368D807D4
:1044280004D5019B01338B420193F7D91368DB074D
:104438004CBF0323012387F83530002387F8343035
:10444800FB6C002B4BD0384603B0BDE8F040184752
:10445800500000241000024028000240B804024026
:10446800B5814E1B08037FF565AFB96C00297FF451
:1044780065AF202199400C42BDD01068C406BAD55A
:10448800A96097F8351004290ED0136813F4802F0B
:10449800136826D01D0331D5FB6B002BABD03846F3
:1044A80098477B6DDBB1A9E7116821F0160111600F
:1044B800516921F080015161396C19B3116821F0FB
:1044C800080111603F22012102FA03F30022AB60C8
:1044D8003B6D87F8351087F83420002BB3D103B033
:1044E800F0BD13F48073D7D1116821F01001116069
:1044F800012287F8343087F83520CDE77B6C002B14
:10450800CDD178E7B96C0029D8D1DBE7404B4148D9
:10451800824218BF9A4200F114000CBF0123002305
:10452800824208BF43F001031430824208BF43F0BF
:1045380001031430824208BF43F001031430824261
:1045480008BF43F001031430824208BF43F001035F
:1045580013B9314B9A42C2D1F86D0424136800F0A4
:104568001F0084400C420BD05E0709D519046C600B
:1045780032D5DA0336D4BB6C002B7FF464AFAEE7D8
:10458800022484400C420BD09E0709D519046C60A4
:104598002DD5DA0337D47B6C002B7FF454AF9EE71C
:1045A800082484400C429AD01B0798D51368002130
:1045B80023F00E0313600123FA6C03FA00F068601D
:1045C8007B6587F8341087F83530002A87D038465D
:1045D80003B0BDE8F04010479B0603D4136823F0EE
:1045E800040313603B6C002B7FF42DAF77E713F0C7
:1045F800200308D11168012021F00A01116087F811
:10460800350087F83430FB6B002B7FF41CAF66E76E
:10461800085402581C54025894540258406D70476C
:104628000B68002B00F0E781B84A90424FF0000277
:104638002DE9F04F4FF0010B85B000F010814FF0DD
:10464800B04C00910BFA02FE1EEA030A00F05581F5
:10465800009954004D68032105F0030701FA04F698
:1046680007F1FF38F643B8F1010F40F26581032FD7
:104678000BD00099D0F80C80896808EA060801FA7E
:1046880004FE4EEA080EC0F80CE007FA04F40768C6
:1046980015F4403F06EA070644EA0604046000F001
:1046A8002C819B4E02F003070F21D6F8F440BF007F
:1046B80044F0020401FA07FE9649C6F8F440D6F819
:1046C800F44022F00306884206F1B04604F00204E2
:1046D80006F580660394039CB46824EA0E0400F08F
:1046E80078818D49884200F0DC80DFF830E270453F
:1046F80000F07B81DFF828E2704500F07D81DFF86B
:1047080024E2704500F06B81DFF81CE2704500F090
:104718007981DFF818E2704500F07A81DFF810E25D
:10472800704500F07B81DFF80CE270450CBF4FF05C
:10473800090E4FF00A0E0EFA07F73C43B6E0D0F820
:104748000890022CCD680AEA090905FA07F848EA30
:104758000908C0F80880C6F30018D0F8049008FAD1
:1047680002F829EA0E0E48EA0E0EC0F804E0D0F866
:104778000C808D680AEA080805FA07FE4EEA080E5A
:10478800C0F80CE017D102F0070E0D694FEAD20805
:104798004FEA8E0E00EB880805FA0EF5D8F820903F
:1047A80000950F2505FA0EFE009D29EA0E0945EA37
:1047B800090EC8F820E0BC40076816F4403F07EA35
:1047C8000A0744EA0704046045D0514F0F25D7F87B
:1047D800F44044F00204C7F8F440D7F8F44022F05B
:1047E800030704F0020407F1B047039407F5806754
:1047F800039C02F00304D7F808E0A40005FA04F4C7
:10480800F5022EEA0404BC604FF0B0446FEA0C07CE
:10481800246800F1D2803C404FF0B0452C606C68B1
:10482800B50200F1D3803C404FF0B0456C60D5F83C
:104838008440B50300F1C7803C404FF0B045C5F84F
:104848008440D5F88040F50300F1BA803C404FF031
:10485800B045C5F88040013233FA02F452D00BFA61
:1048680002FE13EA0E0CF6D04E685700032506F038
:10487800030405FA07F86FEA080A04F1FF38B8F1EB
:10488800010F7FF65CAF032C95D0D0F80C808D68B3
:104898000AEA080805FA07FE4EEA080EC0F80CE016
:1048A80089E74FF0020E0EFA07F73C43B460EF02B7
:1048B800DCF800406FEA0A064CBF4AEA04043440B8
:1048C800A902CCF80040DCF8044054BF34404AEA5E
:1048D8000404AF03CCF80440DCF8844054BF3440EF
:1048E8004AEA0404E903CCF88440DCF8804054BF69
:1048F80034404AEA0404CCF88040013233FA02F426
:104908007FF4A0AE05B0BDE8F08F00BF00000258EC
:10491800004402580004025800080258000C0258CB
:10492800001002580014025800180258001C0258BF
:1049380000200258002402580099022FD0F808904D
:10494800C96809EA060901FA04F8009948EA090859
:104958008968C0F80880C5F30018D0F8049008FAF0
:1049680002F829EA0E0E48EA0E0EC0F804E001FA31
:1049780004FED0F80C8008EA06084EEA080EC0F8D3
:104988000CE07FF482AE02F0070E00994FEAD208DD
:104998004FEA8E0E096900EB880801FA0EF1D8F883
:1049A800209001910F2101FA0EFE019929EA0E09C2
:1049B80041EA090EC8F820E067E644EA0C042BE750
:1049C80044EA0C0443E744EA0C0436E74CEA0404DE
:1049D8002AE74FF0010E0EFA07F73C4366E74FF05F
:1049E800050E0EFA07F73C4360E74FF0030E0EFA88
:1049F80007F73C435AE770474FF0040E0EFA07F7E3
:104A08003C4353E74FF0060E0EFA07F73C434DE7D9
:104A18004FF0070E0EFA07F73C4347E74FF0080E32
:104A28000EFA07F73C4341E7002900F00C818B4B55
:104A380098422DE9F04F00F09A8000234FF00108CA
:104A48004FF00F0A4FF0B04708FA03F212EA010ECE
:104A580077D023F0030603F00304814D06F1B04636
:104A6800A400A8420AFA04F9D6F808C406F5806634
:104A780009EA0C0C27D07B4DA8426ED07A4DA8428B
:104A880070D07A4DA84263D0DFF8E8B1584500F0FD
:104A9800D580DFF8E4B1584500F0D680DFF8DCB106
:104AA800584500F0C680DFF8D8B1584500F0D180ED
:104AB800DFF8D0B158450CBF4FF0090B4FF00A0B87
:104AC8000BFA04F401E008FA04F4A44517D1D7F866
:104AD800804024EA0E04C7F88040D7F8844024EACE
:104AE8000E04C7F884407C6824EA0E047C603C68A5
:104AF80024EA0E043C60B46824EA0904B460032480
:104B08005E004FEAD30C04FA06F6046800EB8C0C3E
:104B18003443046003F00704DCF820E0A4000AFA38
:104B280004F42EEA0404CCF82040C46824EA0604FD
:104B3800C460446824EA02024260826822EA0602EB
:104B48008260013331FA03F27FF47EAFBDE8F08F63
:104B58004FF0040B0BFA04F4B7E74FF0020B0BFA13
:104B680004F4B2E74FF0030B0BFA04F4ADE70022AC
:104B78004FF0010C3E4C0F264FF0B0474FF0030E9C
:104B880002F003030CFA02F522F003089B0011EA75
:104B98000509A04406FA03F345D0D8F808A013EA9B
:104BA8000A0F1DD1D7F880A02AEA090AC7F880A001
:104BB800D7F884A02AEA090AC7F884A0D7F804A07D
:104BC8002AEA090AC7F804A0D7F800A02AEA0909BE
:104BD800C7F80090D8F8089029EA0303C8F8083005
:104BE8004FEA420803684FEAD2090EFA08F800EBC8
:104BF800890948EA0303036002F00703D9F820A0F3
:104C08009B0006FA03F32AEA0303C9F82030C368B5
:104C180023EA0803C360436823EA05034360836803
:104C280023EA08038360013231FA02F3A8D1BDE810
:104C3800F08F4FF0070B0BFA04F446E74FF0050B23
:104C48000BFA04F441E770474FF0060B0BFA04F433
:104C58003BE74FF0080B0BFA04F436E70000025864
:104C68000004025800080258000C025800100258AC
:104C7800000400580014025800180258001C02587A
:104C8800002002580024025803691940081E18BF62
:104C98000120704702B90904816170472DE9F04F7E
:104CA800056885B00446284606F022F8012802D097
:104CB80005B0BDE8F08F206805F0E6FF0028F7D0C2
:104CC800206805F0E1FF8102236802D54FF4001245
:104CD8005A61184605F0D8FFC202236802D54FF47E
:104CE80080125A61184605F0CFFF4701236802D5A4
:104CF8004FF080625A61184605F0C6FF86072368A0
:104D080001D502225A61184605F0BEFF80002368CB
:104D180075D4184605F0B8FFC20100F12E8120684D
:104D280005F0B2FF030700F12181206805F0ACFF10
:104D3800C706266800F10681304605F0A5FF800108
:104D4800B6D5206806F032F8A2688146002A00F03D
:104D5800F48005F5A06500264FF02C0A4FF0070BEC
:104D68002AE005F095FF236810F0040F18465DD07F
:104D780008EB471304223946C3F808250AFB074302
:104D880083F861B006F016F83946206805F080FF10
:104D98000346206813F4007379D0394608EB4718A6
:104DA80006F008F84FF40073C8F80835A268013611
:104DB8002035964280F0C18006F00F0329FA03F3EC
:104DC800D907F4D52B68F7B2D4F800801A0439460D
:104DD8004046C6D405F05CFF0346206813F0040380
:104DE8003DD0042308EB47183946C8F808350AFBB4
:104DF800074383F861B005F0DDFFA268D7E74FF0FD
:104E080000525A61D5F84024D10782D4102128468F
:104E180005F07CFC284605F0A3FCA369022B00F0F2
:104E280060822046FDF760FF236872E7394605F087
:104E38002FFF236810F4807F184600F0D88008EB15
:104E480047124FF480712C23C2F80815082203FB7F
:104E58000743394683F8612005F0ACFF94E73946EB
:104E6800019305F015FF830640F1F2802C222021E2
:104E780008EB4718019B07FB02F2C8F80815A118B0
:104E880091F83D00012800F07D81A2688FE739463E
:104E9800019305F0FDFEC00740F1EE8008F5A06023
:104EA8002022E1684FEA471C00EB4718C8F80820A1
:104EB800002900F0B3802C22D8F810E0019B02FBF7
:104EC8000742CEF3120ED365936CA3EB0E03136562
:104ED800012382F86130C8F8083092F83F30032B7C
:104EE80014D8DFE803F02102210250F80C30012227
:104EF800394643F0005340F80C302C23204603FB7E
:104F0800074383F86020FDF7F3FEE168012900F00C
:104F1800D9802C2303FB074393F8542082F0010225
:104F280083F85420A26842E73946206805F042FF1A
:104F38001023E168C8F80830E8E723684FF00072EA
:104F48005A61B5E6B36923F01003B361376A07F411
:104F5800F011C7F30A12B1F5802F02D1002A40F0F0
:104F6800C680B36943F01003B361E5E62046FDF758
:104F7800B3FE082320684361D8E62668D6F8403493
:104F88000293D6F840340393039B23F02E03039334
:104F9800029B9B0707D5029BDF0700F1EF80039B6D
:104FA80043F002030393029B180715D5039B43F0B4
:104FB80008030393029B590740F1DC80A169022989
:104FC80000F002812369012B03D14EF66022C6F856
:104FD80004242046FDF78EFE029B9A0603D5039B08
:104FE80043F020030393039BC6F8403497E6394601
:104FF80005F04EFE236810F0080F18464AD008EB5B
:10500800471208212C23C2F80815062203FB074380
:10501800394683F8612005F0CDFEB5E62C23012240
:1050280003FB0743D96583F86120C8F8082093F883
:105038003F30032B3FF66DAF01A252F823F000BFBB
:10504800314F0008F34E0008314F0008F34E0008B6
:105058003946206805F01CFE0346206813F40073E7
:105068005CD04FF4007208EB47133946C3F80825A3
:1050780005F0A0FEA2689AE63946206805F008FE09
:10508800820640F1AC8008EB47182023C8F80835A1
:10509800A2688CE6394605F0FBFD236810F4806FA2
:1050A80018467BD008EB47124FF480612C23C2F8D6
:1050B8000815092203FB0743394683F8612005F0E8
:1050C80079FE61E62C2202FB0742136DB2F840100C
:1050D800013B0B44B3FBF1F3D9077FF5D6AE92F849
:1050E800543083F0010382F85430A2685FE607F079
:1050F8000F074FF02C0808FB0748D8F84410002980
:105108003FF42FAFD8F85030D8F84C0013448342FE
:1051180040F22481042388F8603022E7394601935D
:1051280005F0B6FD10F00102216800F0DF802C22A6
:10513800019B0846394602FB0742D365019205F0F8
:10514800A7FD08F5A063400603EB471305D5019AB0
:10515800012182F83D1040229A602C220120394614
:1051680002FB0742986082F86100206805F022FE81
:10517800A2681CE62046FDF7C1FD2DE72046FDF795
:10518800AFFD0CE781F83D30603240F2023339461A
:10519800A352206805F00EFEA26808E6394605F01D
:1051A80077FD03067FF5F0AD08EB471280212C232D
:1051B8002068C2F80815072203FB0743394683F81D
:1051C800612005F0F7FDDFE5029B206803F4C023AA
:1051D800B3F5802F18BF012105F0C6FDF9E6394661
:1051E800206805F055FD10F0020300F0D38008F5A3
:1051F800A0682C23022103FB074308EB47129160A8
:10520800790193F86130013B082B1BD801A252F8B1
:1052180023F000BF85520008934E00084152000851
:10522800A552000841520008955200086152000832
:10523800D3520008615200082C23022203FB0743C3
:1052480083F861202C233946204603FB074393F853
:105258006020FDF74DFD18E62C23022003FB0743D1
:10526800DA6D83F8610001328242DA6540F2248106
:105278000022DA65042283F86020E3E72C2340F259
:10528800012203FB0743A3F86020DBE72C2340F24D
:10529800052203FB0743A3F86020D3E72C2340F241
:1052A800022007FB03F303F160022344A05293F8A2
:1052B8003F3013F0FD0FC5D158F8013023F080437B
:1052C80043F0004348F80130BCE72C234FF4017049
:1052D80007FB03F3E1186033CA6D0132CA65E05277
:1052E800B0E70121206805F03FFD9AE508463946F8
:1052F800019205F0CDFC236810F0400F184614D039
:105308002C23019A394608EB471803FB0743DA6553
:10531800052283F86120012283F83D2005F04AFD2B
:105328004023C8F80835A26841E5394605F0B0FCC5
:105338000246206812F008024AD008F5A0622C2321
:10534800394602EB471203FB0743082797600622FA
:1053580083F8612005F02EFDA26828E53046019209
:1053680005F0F6FB019AD8F8443006F5A066B8F8BF
:105378004000134406EB47118242C8F84430D8F87D
:10538800503009691344C8F850304FEA471364D0C5
:105398002668E6E539462068019305F079FC02465F
:1053A800206812F040023BD008F5A06C2C22019B2B
:1053B800394602FB07420CEB471C4027CCF8087023
:1053C800D365052382F8613005F0F4FCA268EEE4A9
:1053D8003946019205F05CFC03462068D9064DD594
:1053E8002C23019A03FB0743DA65042283F8612022
:1053F80093F83D3043B92C2303FB074393F83C2033
:1054080012B9012283F83D20394605F0D3FC08F58E
:10541800A068102308EB4718C8F80830A268C6E44B
:105428003946019205F034FC10F0100F019A3FF450
:105438002CAD2C2303FB074393F83F10032939D0E5
:1054480011F0FD01E3D1E268D965002ADFD1042219
:10545800394683F861202068D7E75E4A0A40002A67
:1054680096D0F25822F0804242F00042F25098F86A
:10547800543083F0010388F8543089E7394605F041
:1054880007FC02061BD5E368002B3DD02C2101FB4D
:105498000741CB6D0133022BCB652BD8022381F852
:1054A800603008F5A068802308EB4718C8F8083072
:1054B800A2687CE4DA65CAE783F86000FCE639464E
:1054C800206805F0E5FB034620685B0527D52C23FB
:1054D800092208F5A068394603FB074308EB47187B
:1054E80083F8612005F066FC4FF48063C8F8083043
:1054F800A2685CE404220023204681F86020CB6582
:105508003946FDF7F5FBCCE72C230722394603FB88
:10551800074383F86120206805F04CFCC1E7394651
:1055280005F0B6FB81077FF5B0AC08F5A0682C2321
:10553800022103FB074308EB47129160790193F8B6
:105548006130013B082B3FF6A0AC01A252F823F0D2
:105558007D550008934E000841520008CD550008BB
:10556800CD5500089552000861520008934E000876
:10557800615200082C2340F2012107FB03F303F1D9
:1055880060022344A15293F83F20023A012A3FF6D1
:1055980059AEE2687AB1012A7FF454AEDA6C002A77
:1055A8003FF450AEB3F84010013A0A44B2FBF1F2AE
:1055B800D2077FF547AE93F8552082F0010283F8B1
:1055C80055203FE62C2340F2022203FB0743A3F8B1
:1055D800602037E60000F81F90F8F832012B0CD055
:1055E800012310B50446006884F8F83205F04CFC35
:1055F8000023184684F8F83210BD0220704700BF17
:105608002DE9F0470368102604460D4617469869A9
:1056180010F0020840F0AB809A6912F0100C65D0C7
:10562800691CDE6164D19A6912F0200C73D19A6901
:105638009206FCD52022DA614CF0040C4FF0010EE2
:105648009A6902F4806102F40070D20530D54FF4F3
:1056580080724CF0010CDA6121B14FF480624CF099
:10566800080CDA6120B14FF400724CF0020CDA61D8
:105678009A69900701D500229A629A69D10703D4E2
:105688009A6942F001029A615A6820203A4D002135
:105698002A405A60636C43EA0C03636484F841004F
:1056A80084F842100023012084F84030BDE8F087D8
:1056B8000029D2D10028D6D1BEF1000FD8D16A1C5A
:1056C800A5D0FDF78FFBC21B2368AA4201D8002D85
:1056D8009DD19A6912F0020299D1636C20210B4383
:1056E800636484F8411084F84220DBE7E646A7E7C4
:1056F800B946C2469A69910633D4BAF1000F39D136
:10570800FDF770FBA0EB09022368954205D325B18C
:105718009A699006F4D5C4468CE7586894F84220F4
:105728009969D2B209040BD5410409D4202A07D0BB
:105738005A6842F480425A60FDF754FB2368814658
:105748009A699006D6D4FDF74DFBA0EB09002368B3
:105758001928F5D99A694FF020084FF0010A9106E7
:10576800CBD5C446BAF1000F7FF466AF62E70020DC
:10577800BDE8F087C4465FE700E800FE2DE9F84F72
:10578800036816469A6994066AD4B1FA81F7834683
:105798000D464FF010087F099A6912F0100C62D07C
:1057A800691CC3F81C8060D19C6914F0200440F087
:1057B800AD809A699206FCD52022DA6144F0040C87
:1057C80001249A6902F4806102F40070D20532D58E
:1057D8004FF480724CF0010CDA6121B14FF4806211
:1057E8004CF0080CDA6120B14FF400724CF0020C56
:1057F800DA619A69900701D500229A629A69D107FD
:1058080003D49A6942F001029A615A682020404CF8
:10581800002122405A60DBF8443043EA0C03CBF8FD
:1058280044308BF841008BF84210002301208BF89C
:105838004030BDE8F88F0029D0D10028D4D1002C01
:10584800D7D1FDF7CFFA801BDBF80030A84200D88B
:105858001FB19A6912F0200243D09A6992069BD52B
:105868000020BDE8F88F6446ABE70024B146A246A5
:105878009A69910630D4BAF1000F9FD1FDF7B2FAB8
:10588800A0EB0902DBF8003095420BD357B99A69AF
:10589800900691D4FDF7A6FAA0EB0902DBF80030D8
:1058A8009542F3D258689BF842209969D2B209040C
:1058B80003D5410401D4202A1ED19A699006D7D471
:1058C800FDF790FAA0EB0900DBF800301928F4D9AD
:1058D80020244FF0010ACBE7BAF1000F7FF46EAF36
:1058E8006AE7DBF8443020210B43CBF844308BF8CF
:1058F80041108BF8422098E75A6842F480425A6077
:10590800FDF770FADBF800308146D6E7002453E74C
:1059180000E800FE00284ED010B590F8413004464B
:1059280003F0FF02002B41D023682421626884F829
:105938004110196822F07062E06821F00101012825
:1059480019601A619A68A16822F400429A6029D005
:1059580041F404410228996002D14FF400625A6070
:1059680058684FF0200C1549226901435960D968DD
:1059780021F40041D960D4E90501024342EA012239
:10598800D4E90710DA60002201431046196019684B
:1059980041F001011960626484F841C0226384F80F
:1059A800422010BD41F400419960D9E780F84020B9
:1059B800FBF794FBB8E70120704700BF00800002A6
:1059C8002DE9F04F144690F8412083B0202A0C9D11
:1059D8002AD190F840208346012A25D001220F467B
:1059E8001E4680F84020FDF7FDF9DBF800208146CF
:1059F800916909041CD5FDF7F5F9A0EB0900DBF85E
:105A080000201928F4D991690B04F1D5DBF844205A
:105A18002020002102438BF84010CBF844208BF85B
:105A280041008BF8421084E0022003B0BDE8F08FFB
:105A380021200021C7F30903CBF824408BF841004B
:105A48001020CBF834108BF84200CBF84410ABF898
:105A58002A60BBF82A10019389B2FF296DD8BBF8D8
:105A68002A1089B2ABF82810002940F06D815168DE
:105A7800B0480140B048194308435060B5FA85FA68
:105A88004FEA5A1ABBF82A1089B2002900F0278178
:105A98001027946914F0020440F0D880916911F03D
:105AA800100100F08F80681CD76140F08D809069EC
:105AB80010F0200040F09E8091698906FCD52021D5
:105AC800D16140F004010123906900F4806600F47C
