:02000004900466
:100000000000022095070490890704902D82059036
:100010008907049089070490890704900000000074
:1000200000000000000000000000000089070490AC
:10003000890704900000000089070490B1810590B1
:100040008907049089070490890704908907049020
:100050008907049089070490890704908907049010
:10006000890704908907049089070490CD6605905C
:10007000D9660590554C0590E5660590F1660590AA
:10008000995A0690D15605908907049089070490E3
:1000900089070490890704908907049089070490D0
:1000A00089070490890704908907049089070490C0
:1000B000F17F0590FD7F059009800590055705901B
:1000C000890704901157059089070490E1760590FF
:1000D000ED760590A9580690D958069011590690CA
:1000E00089070490890704900000000089070490A4
:1000F0008907049089070490890704908907049070
:10010000890704908907049015800590F976059079
:1001100049590690815906908907049089070490EF
:1001200089070490890704901D7705905177059001
:10013000CD5A069089070490890704908907049096
:1001400000000000000000000000000000000000AF
:10015000890704908907049089070490B95906908B
:100160001D57059089070490C1810590E581059090
:1001700089070490098205908907049089070490F3
:100180008907049089070490F1590690295A06902E
:1001900005770590117705908907049089070490E9
:1001A00089070490890704908907049089070490BF
:1001B00011630590890704908907049089070490CA
:1001C00089070490890704905D4705906947059069
:1001D0008907049075470590890704908907049062
:1001E000890704908907049089070490890704907F
:1001F000890704908907049089070490890704906F
:10020000890704908907049089070490890704905E
:10021000890704908907049089070490890704904E
:100220008907049089070490890704900000000062
:100230008907049089070490000000008907049052
:10024000890704908907049089070490890704901E
:10025000890704908907049089070490890704900E
:1002600089070490890704908907049089070490FE
:100270008907049089070490615A069000000000E5
:100280008907049089070490890704900000000002
:08029000000000008907049042
:1002A00001F0FF01102A2BDB10F0070F08D010F827
:1002B000013B013A8B422DD010F0070F42B3F6D12B
:1002C000F0B441EA012141EA014122F007047FF044
:1002D00000070023F0E80256083C85EA010586EA9B
:1002E000010685FA47F5A3FA87F586FA47F6A5FAD7
:1002F00087F68EB9EED1F0BC01F0FF0102F00702E3
:1003000032B110F8013B013A83EA010313B1F8D18D
:100310000020704701387047002D06BF354603386E
:10032000073815F0010F07D1013015F4807F02BFA7
:10033000013015F4C03F0130F0BC0138704700BFF8
:10034000034613F8012B002AFBD1181A0138704715
:1003500081F0004102E000BF83F0004330B54FEA76
:1003600041044FEA430594EA050F08BF90EA020FE3
:100370001FBF54EA000C55EA020C7FEA645C7FEA76
:10038000655C00F0E2804FEA5454D4EB5555B8BF99
:100390006D420CDD2C4480EA020281EA030382EA0A
:1003A000000083EA010180EA020281EA0303362D9C
:1003B00088BF30BD11F0004F4FEA01314FF4801C6F
:1003C0004CEA113102D0404261EB410113F0004F81
:1003D0004FEA03334CEA133302D0524263EB430338
:1003E00094EA050F00F0A780A4F10104D5F1200ED6
:1003F0000DDB02FA0EFC22FA05F2801841F1000131
:1004000003FA0EF2801843FA05F359410EE0A5F104
:1004100020050EF1200E012A03FA0EFC28BF4CF035
:10042000020C43FA05F3C01851EBE37101F00045EB
:1004300007D54FF0000EDCF1000C7EEB00006EEBF8
:100440000101B1F5801F1BD3B1F5001F0CD3490882
:100450005FEA30004FEA3C0C04F101044FEA4452D9
:1004600012F5800F80F09A80BCF1004F08BF5FEA60
:10047000500C50F1000041EB045141EA050130BD40
:100480005FEA4C0C404141EB0101013C28BFB1F552
:10049000801FE9D291F0000F04BF01460020B1FA9D
:1004A00081F308BF2033A3F10B03B3F120020CDA70
:1004B0000C3208DD02F1140CC2F10C0201FA0CF04E
:1004C00021FA02F10CE002F11402D8BFC2F1200CB3
:1004D00001FA02F120FA0CFCDCBF41EA0C01904069
:1004E000E41AA2BF01EB0451294330BD6FEA0404B2
:1004F0001F3C1CDA0C340EDC04F11404C4F120029D
:1005000020FA04F001FA02F340EA030021FA04F3AE
:1005100045EA030130BDC4F10C04C4F1200220FA05
:1005200002F001FA04F340EA0300294630BD21FA43
:1005300004F0294630BD94F0000F83F4801306BF09
:1005400081F480110134013D4EE77FEA645C18BFFD
:100550007FEA655C29D094EA050F08BF90EA020F94
:1005600005D054EA000C04BF1946104630BD91EA8C
:10057000030F1EBF0021002030BD5FEA545C05D18F
:100580004000494128BF41F0004130BD14F58004CE
:100590003CBF01F5801130BD01F0004545F0FE4142
:1005A00041F470014FF0000030BD7FEA645C1ABF77
:1005B000194610467FEA655C1CBF0B46024650EAAE
:1005C000013406BF52EA033591EA030F41F40021DA
:1005D00030BD00BF90F0000F04BF0021704730B560
:1005E0004FF4806404F132044FF000054FF0000135
:1005F00050E700BF90F0000F04BF0021704730B5F6
:100600004FF4806404F1320410F0004548BF4042CA
:100610004FF000013EE700BF42004FEAE2014FEA1F
:1006200031014FEA02701FBF12F07F4393F07F4FFA
:1006300081F06051704732F07F4208BF704793F0FD
:100640007F4F04BF41F40021704730B54FF4607410
:1006500001F0004521F000411CE700BF50EA010213
:1006600008BF704730B54FF000050AE050EA0102BC
:1006700008BF704730B511F0004502D5404261EB2C
:1006800041014FF4806404F132045FEA915C3FF46D
:10069000D8AE4FF003025FEADC0C18BF03325FEA0A
:1006A000DC0C18BF033202EBDC02C2F1200300FABB
:1006B00003FC20FA02F001FA03FE40EA0E0021FAE0
:1006C00002F11444BDE600BF53B94AB9002908BF7E
:1006D00000281CBF4FF0FF314FF0FF3000F00CB886
:1006E000ADF1080C6DE904CE2CF078FDDDF804E0E6
:1006F000DDE9022304B07047704700BF0348044B94
:10070000834202D0034B03B118477047840800248A
:1007100084080024000000000548064B1B1AD90F6E
:1007200001EBA301491002D0034B03B118477047F6
:1007300084080024840800240000000010B5064C42
:10074000237843B9FFF7DAFF044B13B10448AFF342
:1007500000800123237010BD8808002400000000E1
:100760006411079008B5054B1BB105490548AFF367
:100770000080BDE80840FFF7CFBF00BF00000000C9
:100780008C08002464110790684620F007018D460C
:10079000FEE700BF0B4A08B50B4B934204D0D21AB8
:1007A0000A4918462AF077FE094A0A4B934204D0B8
:1007B000D21A002118462AF080FD2AF03DFE00F0F2
:1007C0000BF8FEE78408002400000024B011079015
:1007D0009C6B00248808002400B5ADF5057D01A8B8
:1007E00003F034F801A803F025FF01A802F0EEFCA5
:1007F00001A802F03FFB00200DF5057D5DF804FB2C
:100800002DE9F0476FF0F4110024464A4FF60B7EB5
:10081000034600F1F408944602F1100902F11807AA
:1008200000F1FC0644610462A0F828E04463A0F8EB
:100830003CE08464A0F858E044660467A0F87C407B
:10084000C0F88040C0E90041C0E90211012180F8F0
:1008500074100021C0E90B44C0E91044C0E91744FA
:10086000C0E92144C0E92344C0E925448167C0E9C7
:100870002744C0E92944C0E92B44C0E92D44C0E91C
:100880002F44C0E93144C0E93444C0F8D840C0F82E
:10089000E040A0F8E440D2F824A0BCE80700C3F888
:1008A000E600C3F8EA10C3F8EE20BCF8002099E88F
:1008B0000300A3F8F22088E8030097E8070086E821
:1008C0000700C3F808A11846A3F80CE1C3F81841C3
:1008D000A3F820E1C3F82C41A3F834E1C3F8404168
:1008E000A3F848E1C3F85441A3F85CE1C3F86841B8
:1008F000A3F870E1C3F87C41C3E94444C3E9494427
:10090000C3E94E44C3E95344C3E95844C3E95D44D1
:10091000C3E96144C3E96344C3E96544C3E9674487
:10092000BDE8F08774D5069010B50446D0F8D00025
:1009300020B1D4F8D810091A27F0FFF9D4F8A40090
:1009400020B1D4F8AC10091A27F0F7F9D4F89800C0
:1009500020B1D4F8A010091A27F0EFF9D4F88C00D0
:1009600020B1D4F89410091A27F0E7F9D4F88000E0
:1009700020B1D4F88810091A27F0DFF9204610BDFD
:10098000B7EEC07A70B5044642482DED028B53ECA9
:10099000172B84B0B0EE408A13F0BAFDD4F8B03013
:1009A000002B0EDD00252E46D4F88000B0EE480A5C
:1009B00001362844243501F0D7FAD4F8B030B342D8
:1009C000F2DCD4F8B420002A0ADDD4F88C3002EB33
:1009D000820203EBC20283ED018A28339A42FAD1E4
:1009E000D4F8B820002A0CDDD4F8983002EB42028B
:1009F00003EB421283ED018A603303ED158A9A42BC
:100A0000F8D1D4F8BC20002A09DDD4F8A4302C2178
:100A100001FB023283ED048A2C339342FAD194F81D
:100A200074307BB39FED1C7AC7EE087A0123032054
:100A300000218DF80C3004F5C27594F87C20CDE9C6
:100A40000001FDEEE77A17EE903A013B0293E2B91E
:100A50006946284617F0E4FA42F20F71284617F06B
:100A60005FFB22460D49284617F076FB284617F013
:100A70003BFB012384ED1E8A84F87C3004B0BDEC7E
:100A8000028B70BD9FED067ACEE7284617F03EFB3D
:100A9000DEE700BFE0D506900080BB465D0C049009
:100AA00000409C46D0F8BC30002B2DE9F0410446B4
:100AB00082B00CDD00252E46D4F8A400013628446F
:100AC0002C3513F0FFFCD4F8BC30B342F4DC94F8BE
:100AD0007D50EDBBD4F8CC30D3B3D4F8C83001335B
:100AE0000F2B38DCC4F8C830D4F8C43001330F2BD6
:100AF00058DD0025D4F8B430AB42C4F8C45053DDFF
:100B000004F1E0082F460AE0FF2B00F08380013754
:100B1000D4F8B430283508F101089F4244DAD4F8FB
:100B20008C00284401F068FAD4F88C602E4496F8C2
:100B300020307F2B64D0802BE6D198F80030002B3A
:100B400000F08580002388F80030E0E7C4F8C0306A
:100B500002B0BDE8F081D4F8B070C4F8C850002FDE
:100B6000C2DDD4F8800005EBC50300EB830150F82B
:100B700023308E881B889A1B4B60002AB8BF5242D4
:100B8000082A03DC0135BD42EDDBADE72A460096BD
:100B9000D4F8CC00013501F05BFDD4F8B070BD4253
:100BA000DFDBA1E7C4F8C430D4F8C0300133012B37
:100BB000CCDD0025D4F8B830AB42C4F8C050C7DD56
:100BC000D4F898002E46284401F060FAD4F8980032
:100BD0004119CB6D33B90136D4F8B83060359E4237
:100BE000F1DBB5E73246D4F8CC0002F055F8013617
:100BF000D4F8B8306035B342AADDD4F89800E2E703
:100C0000002331463A46D4F8CC0088F8003001F091
:100C1000EDFD7CE717F07AFB736AC01A98F8003094
:100C2000012B3FF474AFB0F57A7FFFF670AF07EE9B
:100C3000900A0123D4F88C103A46B8EEE70AD4F8AB
:100C4000CC00294488F8003001F058FF5FE73146B6
:100C50003A46D4F8CC0001F08DFE73E7FFF722BFCF
:100C600070B50546D0F8CC0082B0D0B1D5F8B03020
:100C7000002B16DD002401E0D5F8CC00D5F880105B
:100C800004EBC4032246013451F8236001EB8301D5
:100C900033884B60009301F0DBFCD5F8B030A34201
:100CA000EADC02B070BD00BF2DE9F04FBBB00023FD
:100CB0004FF60B72072102AFADF5147D05461E46B7
:100CC000C0F8B01002AC2280E360A046A28223628A
:100CD00022856363A287A364A4F854202366A4F842
:100CE00068206367A4F87C20C4E90133C4E90633B3
:100CF000C4E90B33C4E91033C4E91633C4E91B3328
:100D0000C4E92033C4F88830A4F89020C4F89C309B
:100D1000A4F8A820C4F8B430A4F8D020C4F8DC307B
:100D2000A4F8E420C4F8F030A4F8FC20C4F808319A
:100D3000A4F81021C4F81C31A4F82421C4E92533F7
:100D4000C4E92B33C4E92F23C4E93133C4E9353373
:100D5000C4E93A33C4E94033C4E94533C4E94A330A
:100D6000C4F83031A4F83821C4F84431A4F8502133
:100D7000C4F85C31A4F86421C4F87031A4F8782177
:100D8000C4F88431A4F88C21C4F89831A4F8A421C3
:100D9000C4F8B031A4F8B821C4F8C431A4F8CC2107
:100DA000C4F8D831C4E94F33C4E95533C4E95A33E0
:100DB000C4E95F33C4E96433C4E96A33C4E96F3317
:100DC000C4E97433A4F8E021C4F8EC31A4F8F821A4
:100DD000C4F80432A4F80C22C4F81832A4F8202273
:100DE000C4F82C32A4F83422C4F84032C4E9793370
:100DF000C4E97F33C4E98433C4E98933C4E98E3359
:100E000005EB4603022240460136B3F8E61008F12E
:100E1000540813F0B5FCD5F8B020B242F0DC05F16F
:100E20001803214618467B60042313F0B9FCD5F85B
:100E3000B030002B40F3A580002612E007F1080C2B
:100E400004F124080136BCE80F000FC4BCE80F0011
:100E5000B6450FC4DCF800302360C5F8848040F349
:100E60009080F1B2786813F09BFE002395ED1E0A86
:100E70000146DFEDCE7A1A46DFEDCD0A07F1080014
:100E800020EE270A01F000F8D5F8B0E00EF1FF33AC
:100E9000B34203D1C74AC84BFA613B62D5E921434B
:100EA0009C42CBD1D5F88090C449A4EB090AC44A2E
:100EB0004FEAAA0301FB03F3934200F05B83012B8B
:100EC000194638BF01215B1880F03483934228BF54
:100ED000134603EBC3039B0018463B6026F031FF2B
:100EE00007F1080C824480464C45BCE80F00AAE894
:100EF0000F00BCE80F00AAE80F00DCF80030CAF8C9
:100F0000003000F0058308F1240BCA46D646ABF149
:100F1000240C0AF1240A0BF1240BBEE80F00ACE804
:100F20000F00BEE80F005445ACE80F00DEF80030BB
:100F3000CCF80030EAD1A4F12403A04AA3EB0903C2
:100F40009B0802FB03F323F04043013303EBC3038D
:100F500008EB83042434B9F1000F06D0D5F88810CB
:100F60004846A1EB090126F0E8FE3B680136D5F8BA
:100F7000B0E04344B645C5F88830C5E920843FF762
:100F800070AF00260423B046C5F8B43095ED1E0AB4
:100F900005EB4802DFED857A00234FF60B74B2F8BB
:100FA000F41020EE270A07F12C007B643C87C7E988
:100FB0000F3301F001F8D5E924639E4200F004816B
:100FC00007F12C0406F1280C0FCC0FC60FCC0FC66E
:100FD00094E8030086E80300C5F890C008F1010812
:100FE000D5F8B4304345D1DC00260223B046C5F81D
:100FF000B83008EB4801F6EE007A4FF60B7095ED2D
:101000001E0A05EB41010024A7F8940020EE270AF0
:10101000B1F80031B1F8FE20A7F8B000A7F8C4007D
:1010200007F18000B1F8FC10C7F89840C7F8BC4041
:10103000C7F8D040C7E92744C7E92D44C7E932447F
:1010400000F0F0FFD5E927439C4200F00A822046D9
:101050006034602207F180012AF01DFAC5F89C4037
:10106000D5E924639E4200F08D8107F1880406F1E2
:10107000280C0FCC0FC60FCC0FC694E8030086E8EF
:101080000300C5F890C008F10108D5F8B830434511
:10109000AFDCD5F8B420002602211A44B046C5F8CA
:1010A000BC10C5F8B42008F1840300224FF60B747D
:1010B00095ED1E0A35F8131007F15400A7F86C409F
:1010C000BA67C7E91C2213F0C1F9D5E92A639E4229
:1010D00000F0E98007F1540406F12C0C0FCC0FC688
:1010E0000FCC0FC694E8070086E80700C5F8A8C033
:1010F00008F10108D5F8BC304345D4DC01260024B2
:10110000062205F5867066F307012346009462F314
:101110000F21224614F06EF8072266F307012346DA
:1011200005F59070009462F30F21224614F062F8E6
:1011300064F307012346224666F30F2105F59A70F2
:10114000009414F057F8042264F30701234605F5D0
:10115000A470009462F30F21224614F04BF805228C
:1011600064F30701234605F5AE70009462F30F2186
:10117000224614F03FF805F5B8750C2266F3070116
:101180002346284662F30F210094324614F032F8C9
:101190003146284614F048F90A4813F0B9F978683E
:1011A00013F0EAFCE437BD46BDE8F08F0000803D57
:1011B0006F12033B4FECC43F9A99993E398EE33846
:1011C000E3388E0324D60690D5F88CA0DC49A6EB34
:1011D0000A0BDC4A4FEAEB0301FB03F3934200F0F6
:1011E000C981012B194638BF01215B1880F0A0810D
:1011F000934228BF134603EB8303DC00204626F00E
:10120000A0FD07F12C0E00EB0B0C81465645BEE805
:101210000F00ACE80F00BEE80F00ACE80F009EE83E
:1012200003008CE8030000F0758109F1280BD64615
:10123000C7F80080F046ABF1280C0EF1280E0BF138
:10124000280BB8E80F00ACE80F00B8E80F007645AF
:10125000ACE80F0098E803008CE80300EAD1A6F19F
:101260002803B94AD7F80080A3EB0A03DB0802FB86
:1012700003F323F06043013303EB830309EBC3065D
:101280002836BAF1000F06D0D5F894105046A1EBDD
:101290000A0126F052FD4C44C5F89060C5F88C90C8
:1012A000C5F894409AE6D5F8A4A0A849A6EB0A0B85
:1012B000A74A4FEAAB0301FB03F3934200F05A81C4
:1012C000012B194638BF01215B1880F0378193420A
:1012D00028BF13462C2202FB03F4204626F031FDE2
:1012E00007F1540E00EB0B0C81465645BEE80F008B
:1012F000ACE80F00BEE80F00ACE80F009EE8070066
:101300008CE8070000F0088109F12C0BD646C7F8DD
:101310000080F046ABF12C0C0EF12C0E0BF12C0BD7
:10132000B8E80F00ACE80F00B8E80F007645ACE86D
:101330000F0098E807008CE80700EAD1A6F12C031B
:10134000844AD7F80080A3EB0A039B0802FB03F34F
:101350002C2223F0404303FB022209EB02062C3629
:10136000BAF1000F06D0D5F8AC105046A1EB0A0137
:1013700026F0E3FC4C44C5F8A860C5F8A490C5F875
:10138000AC40B5E6D5F88CA06D49A6EB0A0B6D4ACA
:101390004FEAEB0301FB03F3934200F0EB80012BD8
:1013A000194638BF01215B1880F0BC80934228BFEA
:1013B000134603EB8303DC00204626F0C2FC07F152
:1013C000880E00EB0B0C81465645BEE80F00ACE8DA
:1013D0000F00BEE80F00ACE80F009EE803008CE8A9
:1013E000030000F09B8009F1280BD646C7F8008067
:1013F000F046ABF1280C0EF1280E0BF1280BB8E8E3
:101400000F00ACE80F00B8E80F007645ACE80F001D
:1014100098E803008CE80300EAD1A6F128034A4AC1
:10142000D7F80080A3EB0A03DB0802FB03F323F0E9
:101430006043013303EB830309EBC3062836BAF19B
:10144000000F06D0D5F894105046A1EB0A0126F003
:1014500074FC4C44C5F89060C5F88C90C5F8944075
:1014600011E6D5F898A03C49A4EB0A0B3B4A4FEA99
:101470006B1301FB03F393427CD0012B194638BF59
:1014800001215B1850D2934228BF134603EB43035C
:101490005B0118463B6026F054FC6022814607F150
:1014A0008001584429F0F7FF544539D009F160060E
:1014B000D34659460BF1600BA6F16000602229F07B
:1014C000EAFF5C4506F16006F3D1A4F16003244A0B
:1014D000A3EB0A035B0902FB03F323F07843013318
:1014E00003EB430309EB43146034BAF1000F06D059
:1014F000D5F8A0105046A1EB0A0126F01EFC3E686C
:10150000C5F89C404E44C5F89890C5F8A060A7E582
:1015100044461FE54E46B3E64E4620E74E468DE76D
:101520004C46E1E70F4C47E70F4B18463B60B2E7EC
:101530000C4C63E60D4B18463B60CFE40C4CCCE6FC
:10154000CDCCCCCC33333303CDCCCC0CA38B2EBA47
:101550002EBAE802A38B2E3AABAAAAAA555555017A
:10156000ABAAAA02F8FFFF7FE0FFFF7FECFFFF7F3F
:10157000E8FFFF7F014826F0FFFB00BF08D606907A
:101580002DE9F043CA4A87B00446CA49CA484FF415
:10159000A07510F0D1FEF02600230122C749009665
:1015A000C548CDE901521A4610F0EAFEC44A8169E5
:1015B0003346009505AD05920022019518304D681F
:1015C0001146A8471C2026F0BCFBBE4905460FF07B
:1015D00087FC02232020DC21C4F8DC500A2202937D
:1015E0000023CDE90010B849B34810F0C9FED4F883
:1015F000D430D4F8D8200646D4F8DC1093420162E7
:1016000000F0FE8043F8040BC4F8D43020230221FC
:10161000DC200A22CDE901310090AC49A64810F047
:10162000AFFED4F8D430D4F8D8200646D4F8DC1075
:101630009342016200F0108143F8040BC4F8D430E7
:1016400002212022DC204023CDE9012100900A2242
:101650009F49994810F094FED4F8D430D4F8D8209B
:101660000646D4F8DC109342016200F0418143F851
:10167000040BC4F8D43002212022DC206023CDE901
:10168000012100900A2293498B4810F079FED4F88A
:10169000D430D4F8D8200646D4F8DC109342016246
:1016A00000F0D68143F8040BC4F8D4300221202284
:1016B000DC208023CDE9012100900A2286497E4862
:1016C00010F05EFED4F8D430D4F8D8200646D4F812
:1016D000DC109342016200F0638143F8040BC4F80C
:1016E000D43002212022DC20A023CDE9012100906A
:1016F0000A227A49704810F043FED4F8D430D4F866
:10170000D8200646D4F8DC109342016200F0F8813C
:1017100043F8040BC4F8D43002212022DC20C0237B
:10172000CDE9012100900A226D49634810F028FE9E
:10173000D4F8D430D4F8D8200646D4F8DC1093423C
:10174000016200F0018143F8040BC4F8D430022197
:101750002022DC20E023CDE9012100900A2261490A
:10176000554810F00DFED4F8D430D4F8D8200646F1
:10177000D4F8DC109342016200F0968143F8040B28
:10178000C4F8D43002212022DC204FF48073CDE94C
:10179000012100900A225449474810F0F1FDD4F885
:1017A000D430D4F8D8200646D4F8DC109342016235
:1017B00000F0228143F8040BC4F8D4300221202227
:1017C000DC204FF49073CDE9012100900A224749B3
:1017D000394810F0D5FDD4F8D430D4F8D8200646D6
:1017E000D4F8DC109342016200F0B68143F8040B98
:1017F0003148C4F8D43007B0BDE8F04311F036BA30
:10180000D4F8D0806FF06042A3EB0805B2EBA50FCF
:101810004FEAA50300F08E82012B194638BF012143
:101820005B1880F07982934228BF13469F003846A8
:1018300026F087FA002D465105F10406814606443C
:1018400000F3BA81B8F1000F40F02E824F44C4E992
:101850003496C4F8D870D9E6D4F8D0806FF06042DE
:10186000A3EB0805B2EBA50F4FEAA50300F06282D7
:10187000012B194638BF01215B1880F04782934243
:1018800028BF13469F00384626F05BFA002D4651CC
:1018900005F104068146064400F3A681B8F1000F65
:1018A00040F02F824F44C4E93496C4F8D870C7E69C
:1018B00000FC08C000000030A4080024004C04C054
:1018C000946F09FF24DF069000DE03C0007003C0A0
:1018D000000203C0009402C0002602C000B801C08C
:1018E000004A01C000DC00C0006E00C0000000C063
:1018F000D4F8D0806FF06042A3EB0805B2EBA50FDF
:101900004FEAA50300F01682012B194638BF0121CA
:101910005B1880F0FF81934228BF13469F00384632
:1019200026F00FFA002D465105F1040681460644C3
:1019300000F38A81B8F1000F40F0DE814F44C4E922
:101940003496C4F8D87096E6D4F8D0806FF0604230
:10195000A3EB0805B2EBA50F4FEAA50300F0EA815F
:10196000012B194638BF01215B1880F0D1819342C9
:1019700028BF13469F00384626F0E3F9002D465154
:1019800005F104068146064400F34681B8F1000FD4
:1019900040F0AD814F44C4E93496C4F8D870D6E61F
:1019A000D4F8D0806FF06042A3EB0805B2EBA50F2E
:1019B0004FEAA50300F0BE81012B194638BF012173
:1019C0005B1880F0B581934228BF13469F003846CC
:1019D00026F0B7F9002D465105F10406814606446C
:1019E00000F34A81B8F1000F40F07C814F44C4E914
:1019F0003496C4F8D87074E6D4F8D0806FF06042A2
:101A0000A3EB0805B2EBA50F4FEAA50300F0928106
:101A1000012B194638BF01215B1880F08781934262
:101A200028BF13469F00384626F08BF9002D4651FB
:101A300005F104068146064400F3E280B8F1000F88
:101A400040F04B814F44C4E93496C4F8D870B5E6F1
:101A5000D4F8D0806FF06042A3EB0805B2EBA50F7D
:101A60004FEAA50300F06681012B194638BF01211A
:101A70005B1880F05981934228BF13469F00384677
:101A800026F05FF9002D465105F104068146064413
:101A900000F3E680B8F1000F40F01A814F44C4E92A
:101AA0003496C4F8D87001E6D4F8D0806FF0604264
:101AB000A3EB0805B2EBA50F4FEAA50300F03A81AE
:101AC000012B194638BF01215B1880F02B8193420E
:101AD00028BF13469F00384626F033F9002D4651A3
:101AE00005F104068146064400F3A280B8F1000F18
:101AF00040F0E9804F44C4E93496C4F8D87041E618
:101B0000D4F8D0806FF06042A3EB0805B2EBA50FCC
:101B10004FEAA50300F00E81012B194638BF0121C1
:101B20005B1880F0FD80934228BF13469F00384623
:101B300026F007F9002D465105F1040681460644BA
:101B400000F3A680B8F1000F40F0B8804F44C4E91C
:101B50003496C4F8D870DFE5D4F8D0806FF06042D6
:101B6000A3EB0805B2EBA50F4FEAA50300F0E28056
:101B7000012B194638BF01215B1880F0CF809342BA
:101B800028BF13469F00384626F0DBF8002D46514B
:101B900005F10406814606441ADCB8F1000F40F056
:101BA00088804F446548C4E93496C4F8D87007B0BB
:101BB000BDE8F04311F05AB841462A4629F06BFCC3
:101BC000D4F8D810A1EB0801404626F0B6F83DE65F
:101BD00041462A4629F05FFCD4F8D810A1EB080151
:101BE000404626F0AAF8DCE741462A4629F053FC95
:101BF000D4F8D810A1EB0801404626F09EF851E633
:101C000041462A4629F047FCD4F8D810A1EB080138
:101C1000404626F092F815E741462A4629F03BFC5B
:101C2000D4F8D810A1EB0801404626F086F8B1E6BA
:101C300041462A4629F02FFCD4F8D810A1EB080120
:101C4000404626F07AF855E741462A4629F023FC1B
:101C5000D4F8D810A1EB0801404626F06EF86DE6E6
:101C600041462A4629F017FCD4F8D810A1EB080108
:101C7000404626F062F811E741462A4629F00BFC5F
:101C8000D4F8D810A1EB0801404626F056F8ADE68E
:101C900041462A4629F0FFFBD4F8D810A1EB0801F1
:101CA000404626F04AF851E7D4F8D810A1EB0801D5
:101CB0008AE7D4F8D810A1EB080191E7D4F8D8103E
:101CC000A1EB0801ECE7D4F8D810A1EB0801B7E7C5
:101CD000D4F8D810A1EB0801CAE7D4F8D810A1EBCA
:101CE000080195E7D4F8D810A1EB0801CCE7D4F8A7
:101CF000D810A1EB080197E7D4F8D810A1EB0801A0
:101D0000AAE7D4F8D810A1EB080175E70C4FBAE5A3
:101D10000B4F30E60A4F02E6094F88E5084F32E7DD
:101D2000074F04E7064FD6E6054FA8E6044F7AE6CC
:101D3000034F4CE6034826F01FF800BFA408002418
:101D4000FCFFFF7F08D606900B4690F8741010B584
:101D5000C0F8CC30044611F09DF9002012F03AFC96
:101D60002046FFF70DFC2046FEF79EFF4FF47A70E9
:101D700016F0D4FA20469FED060AFEF701FE16F093
:101D80007DFC01460348BDE8104012F0C1BB00BF16
:101D90000000FA4434D6069000292ADBF0B51D462F
:101DA00083B0D0E93430C01AB1EBA00F1FDA53F87A
:101DB00021400027164601A92368204601979B6809
:101DC00098474FF0FF33314604F1180663623046FE
:101DD000E7610FF0ADF8A02330462946E3610FF02C
:101DE000A7F8044803B0BDE8F04010F03FBF03B0CF
:101DF000F0BD7047A408002430B5D0E9344583B065
:101E0000A54209D054F8040B002201A903680192ED
:101E10009B689847A542F5D1024803B0BDE8304021
:101E200010F024BFA408002408B5134B2A202B214E
:101E30002C2203F5805C187058719872D87318754D
:101E40000E485976997783F8231083F8281083F881
:101E50002D1083F8322083F8332683F8342C8CF845
:101E600035228CF8362810F021FA054A0549034836
:101E7000BDE8084025F05CBF00000030A408002445
:101E800000000024F9220590F6EE006A9FED156A25
:101E900020EE207A0160F7EE007A80ED046A80ED92
:101EA000030A27EE267AC7EE876AF4EEE76AF1EEB8
:101EB00010FA08DCF4EEC66AF1EE10FA54BFF0EE48
:101EC000667AF0EE467ADFF824C0074902770022EE
:101ED000C0ED027AC0F814C0816143778277C0ED0B
:101EE000080A7047000000008FC2753D8FC2953F01
:101EF000D0ED017A9FED086AB8EEE77A90ED040A1A
:101F0000D0ED026AC7EE067A77EEC07AA6EEA70A8F
:101F100080ED040A704700BF00FF7F47037F1BB1BD
:101F2000F7EE007A37EEC00A90ED067AD0ED057A2A
:101F300030EE470A437F60EE277A0BB1F1EE677A05
:101F4000F5EEC07AF1EE10FA08D4B7EE000AF4EE1E
:101F5000C07AF1EE10FA30FE270A70479FED010AB1
:101F6000704700BF00000000837F80ED030AE3B9E3
:101F7000D0ED087A27EE800AB6EE007AF7EE007A06
:101F800020EE070A87EE807AB4EEE77AF1EE10FAD7
:101F900008DCB5EEC07ADFED067AF1EE10FA58BF34
:101FA000F0EE477AC0ED027A7047DFED027AE1E7A2
:101FB000000000006F12033B10B52DED028B86B0C0
:101FC0000446B0EE408AADF8141016F0A1F94FF4B3
:101FD0008072002301212060228404F10C00217210
:101FE0001A46059984ED018A009313F003F906B0AF
:101FF000BDEC028B10BD00BF10B504460C3013F0D1
:1020000007FA94F8213094F82020434043EA420331
:10201000DBB27F2B84F8203000D010BD16F076F9AB
:10202000606210BD30B52DED028BB0EE408A87B0F6
:1020300004460025ADF81410ADF81020ADF80C30B2
:1020400016F064F92B4620602A46059904F1300009
:1020500084ED018A009513F0CDF82B462A460499A9
:1020600004F14400009513F0C5F8B0EE480A039956
:1020700004F10800FFF7A0FF4FF6FF73E565A4F831
:10208000583007B0BDEC028B30BD00BF70B50446C0
:1020900016F03CF92268824200D170BD94F8586075
:1020A000034604F130007600236013F0B1F90346D3
:1020B00076B294F8595004F144001E436D0084F840
:1020C00058606DB213F0A4F994F8583028430022F8
:1020D00003F0030340B2E265022B84F8590000F0DC
:1020E000030007D0002BD8D10228D6D14FF0FF3300
:1020F000E36570BD0028D0D10123E36570BD00BF4A
:10210000F8B508220446002320202261C4E90033E8
:10211000C4E90233C4E90533C4E90733C4E9093328
:10212000C4E90B3325F00DFE256906464FF4FA701D
:10213000013DE66025F005FE03466D08204603F5E7
:10214000FA7206EB850746F82530E26127622763BD
:10215000E262C4E90533C4E90933F8BDF8B5D0E952
:1021600000570646BD420BD02C46A36803222146E9
:102170002046002B33D01C349847A742F5D1756018
:10218000F06890B1356B346A0435AC4208D254F82B
:10219000040B4FF4FA7125F0D0FDA542F7D8F06892
:1021A0003169890025F0C9FD75683468AC4209D0F1
:1021B000A36803222146204663B11C349847A542F8
:1021C000F6D1356825B1B1682846491B25F0B5FD23
:1021D0003046F8BD1C34AC42EAD13568F2E71C3415
:1021E000A742C2D1CBE700BF2DE9F04F1F4689B00F
:1021F00005460E469046D0E901439C4239D04FF047
:1022000000098B68CDF81090CDF81C90CDE90599A8
:102210002BB3022204A89847F3680793B368069388
:10222000C4E90099C4E90299002B00F0BF800222A2
:1022300004A920469847079B4FF0FF32E360069BB6
:10224000A261A360C4E904871BB104A90322084664
:1022500098476B681C336B6009B0BDE8F08FC4E928
:102260000033C4E902334FF0FF33C4E90427A3610C
:10227000EFE7036852490293E31A524A03939B1013
:1022800001FB03F3934200F09780012B194638BFFE
:1022900001215B1880F08680934228BF1346C3EB70
:1022A000C3039B001846019325F04BFD4FF0000A35
:1022B000039A8346B36800EB0209CDF810A0CDF86D
:1022C0001CA0CDE905AA002B5ED00222314604A84D
:1022D0009847039B4BF803A0F368C9F80CA0079339
:1022E000B368C9E901AA0693002B52D0022204A9BF
:1022F00048469847079B4FF0FF32C9F80C30069BC1
:10230000C9F81820C9F80830C9E904871BB104A925
:10231000032208469847029B9C4241D01E465F46D6
:102320000023D6E90221C7E90033C7E9023132B1FF
:10233000BA6096E80300C6E9023387E80300B36990
:10234000D6E90421BB61C7E90421B368BBB13146BA
:1023500030461C36032298471C37B442E0D1029B1A
:102360001C3723B1A9681846C91A25F0E6FC019B61
:102370005B44C5E900B7AB6009B0BDE8F08F1C361F
:102380001C37B442CCD1EAE78350C9F80C30C9E914
:1023900001334FF0FF33C9E90487C9F81830BAE7B1
:1023A0005F46DCE7084B184601937DE74FF0FF33AB
:1023B000C4E90487A3614CE7044825F0DDFC00BFB5
:1023C000B76DDBB624499204F0FFFF7F08D6069074
:1023D0002DE9F04F1F4689B005460E469046D0E9DC
:1023E00001439C4235D04FF000098B68CDF8109026
:1023F000CDF81C90CDE905991BB3022204A898479B
:10240000F3680793B3680693C4E90099C4E9029995
:10241000002B00F0BA80022204A920469847079BAF
:10242000E360069BA761A360C4E904891BB104A90A
:102430000322084698476B681C336B6009B0BDE8FF
:10244000F08FC4E90033C4E90233C4E90423A7616F
:10245000F1E7036850490293E31A504A03939B1033
:1024600001FB03F3934200F09480012B194638BF1F
:1024700001215B1880F08580934228BF1346C3EB8F
:10248000C3039B001846019325F05BFC4FF0000A44
:10249000039A8346B36800EB0209CDF810A0CDF88B
:1024A0001CA0CDE905AA002B5CD00222314604A86D
:1024B0009847039B4BF803A0F368C9F80CA0079357
:1024C000B368C9E901AA0693002B50D0022204A9DF
:1024D00048469847079BC9F81870C9F80C30069B06
:1024E000C9E9048AC9F808301BB104A903220846C7
:1024F0009847029B9C4242D01E465F460023D6E985
:102500000221C7E90033C7E9023132B1BA6096E867
:102510000300C6E9023387E80300B369D6E9042162
:10252000BB61C7E90421B368BBB1314630461C36F4
:10253000032298471C37B442E0D1029B1C3723B1D9
:10254000A9681846C91A25F0F8FB019B5B44C5E948
:1025500000B7AB6009B0BDE8F08F1C361C37B44241
:10256000CCD1EAE78350C9F80C30C9E90133002324
:10257000C9F81080C9F81870C9F81430B9E75F4677
:10258000DBE7074B184601937EE7C4E90483A761A4
:1025900051E7044825F0F0FBB76DDBB624499204FF
:1025A000F0FFFF7F08D60690F0B5436A87B0476911
:1025B000BB4236D0064601AC3D46A646F4690FCD77
:1025C000A4F1140CAEE80F0067452B68CEF800307C
:1025D0002DD01437019B77612BB3D6E90045AC426F
:1025E00003D11AE01C34A54217D02269019B9A42FC
:1025F000F8D1636913B1029A9342F3D1A3695A1CCB
:1026000002D0039A9342EDD1A368F3B1E368204668
:102610001C3401A99847A542E7D17769736ABB4288
:10262000C9D107B0F0BD0298FFF762FCD5E74FF4BF
:10263000FA71B06925F081FB336A5F68043307F5EE
:10264000FA723362C6E90672C4E725F098FB00BF50
:102650002DE9F84F04461D46406A0F46E36A1646C8
:10266000A3F1140C60450BD000F114034160C0E9E4
:1026700002250A9A0261002202606362BDE8F88FB7
:10268000D4F83080A36A216AC01AB8F10003A8EB1D
:102690000109626918BF0123DFF84CE18010C3EB28
:1026A000A9034FEAA90A03EB830303EB830CE36955
:1026B0009B1A9A100EFB00C30EFB0233484A93424A
:1026C00000F08A80D4E90303A8EB0002A3EBA20286
:1026D000012A18D94FF4FA7025F033FBC8F804002A
:1026E0000A98636A226B186100205F60111D1860F0
:1026F000C3E902655368216303F5FA726362C4E9B2
:102700000A32BDE8F88F0AF10202B3EB420F1ED97C
:102710009B1A08F104025B08521A00EB830841453A
:102720003BD9042A42DD404628F0AEFDD8F80030FF
:10273000C4F82080A36103F5FA73E36158F8093007
:10274000C844A36203F5FA73C4E90B38C2E7012B4E
:102750002CBF03EB030803F1010808F1020BBBF1E6
:10276000005F28D24FEA8B0025F0EBFA226B216A3A
:10277000A8EB0A03043282465B08521A00EB830876
:10278000042A1DDD404628F07FFD2169E0688900AC
:1027900025F0D3FAC4E903ABC8E709F10400042A21
:1027A000404412DD801A28F06FFDBFE7BED10A68F1
:1027B00040F82320BAE7BBF1804F0BD325F0D9FABC
:1027C000E3D10A6840F82320DFE7AFD10B6840F877
:1027D000043CABE725F0CAFA024825F0CDFA00BF69
:1027E000CCCCCC0C4CD60690CDCCCCCC2DE9F84F33
:1027F0000446C06A0E461546636A143883420BD0FD
:10280000012100225E60196003F114019D60C3E99B
:1028100003226162BDE8F88F276BA26A216A9B1AC6
:102820003A1EA7EB0108E06918BF01224FEAA30E88
:1028300063694FEAA80BC2EBA802DFF834C1C01AE3
:10284000494B02EB8202801002EB82020CFB0E224B
:102850000CFB00229A4200F08380D4E903033A1A69
:10286000A3EBA202012A17D94FF4FA7025F069FAF6
:10287000012278600021636A1A60226B5E60196130
:102880000432C3E902511168226301F5FA736162EF
:10289000C4E90A13BDE8F88F0BF10202B3EB420F53
:1028A0001BD99B1A3A1D5B08521A00EB8307B942E9
:1028B00037D9042A3EDD384628F0E6FC3B6827621B
:1028C000A36103F5FA73E36157F808304744A36244
:1028D00003F5FA73C4E90B37C6E7012B2CBFDF18E9
:1028E0005F1C07F10209B9F1005F28D24FEA8900A5
:1028F00025F027FA226B216AA7EB0B0304328246EC
:102900005B08521A00EB8307042A1DDD384628F0C5
:10291000BBFC2169E068890025F00FFAC4E903A92E
:10292000CCE708F10400042A384412DD801A28F0AC
:10293000ABFCC3E7C2D10A6840F82320BEE7B9F177
:10294000804F0BD325F015FAE3D10A6840F8232015
:10295000DFE7B3D10B6840F8043CAFE725F006FA97
:10296000024825F009FA00BFCCCCCC0C4CD606901E
:10297000CDCCCCCC2DE9F84F0446C06A0E461546A6
:10298000636A143883420BD0022100225E60196012
:1029900003F114019D60C3E903226162BDE8F88F71
:1029A000276BA26A216A9B1A3A1EA7EB0108E0690D
:1029B00018BF01224FEAA30E63694FEAA80BC2EBCE
:1029C000A802DFF834C1C01A494B02EB8202801022
:1029D00002EB82020CFB0E220CFB00229A4200F05A
:1029E0008380D4E903033A1AA3EBA202012A17D980
:1029F0004FF4FA7025F0A5F9022278600021636A8D
:102A00001A60226B5E6019610432C3E902511168D9
:102A1000226301F5FA736162C4E90A13BDE8F88F15
:102A20000BF10202B3EB420F1BD99B1A3A1D5B0854
:102A3000521A00EB8307B94237D9042A3EDD3846E3
:102A400028F022FC3B682762A36103F5FA73E36177
:102A500057F808304744A36203F5FA73C4E90B370B
:102A6000C6E7012B2CBFDF185F1C07F10209B9F183
:102A7000005F28D24FEA890025F063F9226B216AB2
:102A8000A7EB0B03043282465B08521A00EB830764
:102A9000042A1DDD384628F0F7FB2169E06889002B
:102AA00025F04BF9C4E903A9CCE708F10400042A96
:102AB000384412DD801A28F0E7FBC3E7C2D10A6868
:102AC00040F82320BEE7B9F1804F0BD325F051F930
:102AD000E3D10A6840F82320DFE7B3D10B6840F860
:102AE000043CAFE725F042F9024825F045F900BF64
:102AF000CCCCCC0C4CD60690CDCCCCCC2DE9F84F20
:102B00000446C06A0E461546636A143883422DEDAA
:102B1000028BBDEEC08A0ED00322596083ED038A7A
:102B200000211A6003F114029D6019616262BDEC1C
:102B3000028BBDE8F88F276BA26A216A9B1A3A1EA6
:102B4000A7EB0108E06918BF01224FEAA30E6369F1
:102B50004FEAA80BC2EBA802DFF838C1C01A4B4BF2
:102B600002EB8202801002EB82020CFB0E220CFBB5
:102B700000229A4200F08680D4E903033A1AA3EBBC
:102B8000A202012A1AD94FF4FA7025F0DAF8216B63
:102B900078600322636A002004311A605E600A686C
:102BA00083ED038A9D60186102F5FA732163626206
:102BB000BDEC028BC4E90A23BDE8F88F0BF10202D9
:102BC000B3EB420F1BD99B1A3A1D5B08521A00EB5C
:102BD0008307B94237D9042A3EDD384628F054FB32
:102BE0003B682762A36103F5FA73E36157F8083085
:102BF0004744A36203F5FA73C4E90B37C3E7012B1B
:102C00002CBFDF185F1C07F10209B9F1005F28D261
:102C10004FEA890025F095F8226B216AA7EB0B0398
:102C2000043282465B08521A00EB8307042A1DDD3A
:102C3000384628F029FB2169E068890025F07DF8F5
:102C4000C4E903A9CCE708F10400042A384412DDE2
:102C5000801A28F019FBC3E7C2D10A6840F8232084
:102C6000BEE7B9F1804F0BD325F083F8E3D10A68B2
:102C700040F82320DFE7B3D10B6840F8043CAFE70E
:102C800025F074F8024825F077F800BFCCCCCC0CC6
:102C90004CD60690CDCCCCCC2DE9F84F04461D4641
:102CA000406A0F46E36A1646A3F1140C60450BD048
:102CB000002200F11403416002610422C0E90265B0
:102CC00002606362BDE8F88FD4F83080A36A216A9D
:102CD000C01AB8F10003A8EB0109626918BF01230B
:102CE000DFF84CE18010C3EBA9034FEAA90A03EB1C
:102CF000830303EB830CE3699B1A9A100EFB00C35A
:102D00000EFB0233484A934200F08A80D4E9030361
:102D1000A8EB0002A3EBA202012A18D94FF4FA7023
:102D200025F00FF8226BC8F804000021636A042024
:102D30001961111D5F601860C3E902655368216362
:102D400003F5FA726362C4E90A32BDE8F88F0AF14A
:102D50000202B3EB420F1ED99B1A08F104025B0872
:102D6000521A00EB830841453BD9042A42DD404614
:102D700028F08AFAD8F80030C4F82080A36103F55F
:102D8000FA73E36158F80930C844A36203F5FA7393
:102D9000C4E90B38C2E7012B2CBF03EB030803F196
:102DA000010808F1020BBBF1005F28D24FEA8B004B
:102DB00024F0C7FF226B216AA8EB0A030432824683
:102DC0005B08521A00EB8308042A1DDD404628F0F8
:102DD0005BFA2169E068890024F0AFFFC4E903AB26
:102DE000C8E709F10400042A404412DD801A28F0E3
:102DF0004BFABFE7BED10A6840F82320BAE7BBF11F
:102E0000804F0BD324F0B5FFE3D10A6840F82320AC
:102E1000DFE7AFD10B6840F8043CABE724F0A6FF36
:102E2000024824F0A9FF00BFCCCCCC0C4CD60690B5
:102E3000CDCCCCCC041D08B52046FFF7B5FBFBE795
:102E4000044B10B5044640F8043BFFF759F92046FF
:102E500010BD00BFE4E90690044B10B5044640F8ED
:102E6000043BFFF77BF9204610BD00BFE4E9069064
:102E70000430704710B50A4B0446D0F8E0012360D7
:102E800020B1D4F8E811091A24F057FF04F13800F2
:102E9000FDF74AFD2046FFF7DFFF204610BD00BFCB
:102EA000FCE9069038B50468D4F8DC31D3B115F0EC
:102EB0002DFAD4F80432054693B1C31AB3F5FA6F6C
:102EC0000ED207EE903AD4F8DC019FED070AF8EE37
:102ED000E77AC4F80832036880EE270A9B699847AE
:102EE000C4F8045238BD00BF00007A44012A06D05D
:102EF000022A0AD0032A00D022B1002070470160C4
:102F0000002070470260002070470B6803600020BB
:102F1000704700BF012A06D0022A0AD0032A00D037
:102F200022B100207047016000207047026000203D
:102F300070470B6803600020704700BF012A06D06D
:102F4000022A0AD0032A00D022B100207047016073
:102F5000002070470260002070470B68036000206B
:102F6000704700BF012A06D0022A0AD0032A00D0E7
:102F700022B10020704701600020704702600020ED
:102F800070470B6803600020704700BF012A06D01D
:102F9000022A0AD0032A00D022B100207047016023
:102FA000002070470260002070470B68036000201B
:102FB000704700BF012A06D0022A0AD0032A00D097
:102FC00022B100207047016000207047026000209D
:102FD00070470B6803600020704700BF012A06D0CD
:102FE000022A0AD0032A00D022B1002070470160D3
:102FF000002070470260002070470B6803600020CB
:10300000704700BF012A06D0022A0AD0032A00D046
:1030100022B100207047016000207047026000204C
:1030200070470B6803600020704700BF012A06D07C
:10303000022A0AD0032A00D022B100207047016082
:10304000002070470260002070470B68036000207A
:10305000704700BF012A06D0022A0AD0032A00D0F6
:1030600022B10020704701600020704702600020FC
:1030700070470B6803600020704700BF012A06D02C
:10308000022A0AD0032A00D022B100207047016032
:10309000002070470260002070470B68036000202A
:1030A000704700BF10B50C4B0446D0F8E001236018
:1030B00020B1D4F8E811091A24F03FFE04F13800D9
:1030C000FDF732FC2046FFF7C7FE20464FF40371A0
:1030D00024F033FE204610BDFCE9069010B50468CC
:1030E00094F8F03183F0010384F8F03113B1D4F88F
:1030F000F41101B1012104F5D47012F095F994F89E
:10310000F03173B1D4F8F431C3B994F800320C4AF9
:1031100063B904F138000B4B0921BDE81040FEF7FC
:103120003BBE084A94F80032002BF2D004F138007C
:10313000054B0921BDE81040FEF72EBE034AF1E71A
:103140007CD6069074DD069090D6069084D60690C4
:1031500010B50468D4F8F42194F8F011B2FA82F3AF
:103160005B09C4F8F43101B112BB012104F5D4703C
:1031700012F05AF994F8F03143B1D4F8F431ABB904
:1031800094F800320D4A33B90D4B05E00C4A94F81F
:103190000032002BF8D00B4B383409212046FEF7C3
:1031A000FBFD2046BDE81040FDF75ABD064AEEE79C
:1031B000002104F5D47012F037F9DBE77CD60690D5
:1031C00074DD069090D6069084D6069080B50446AD
:1031D0008EB0DFF8F480071D00F138053FE0D6E936
:1031E0000F36009627F09AFFD4F8FC312E4A1021B2
:1031F00093ED0D7A06A8B7EEC77A8DED007B27F028
:103200008DFFD4F8FC31294A1021D3ED0E7A0AA89B
:10321000F5EEC07AB7EEE76AF1EE10FA02DC244A66
:1032200010210AA88DED006B27F078FF02AB214A30
:1032300001212846FEF7B0FD06AB1F4A02212846B1
:10324000FEF7AAFD0AAB1D4A03212846FEF7A4FD9E
:1032500000230121284684F8B5300FF055FE0123E4
:10326000384684F8B530FFF79FF994F8F831002B11
:10327000EED0D4F8FC611021114A02A8114B002EA7
:10328000E6D096F844C0BCF1000FA8D1D8F80020D1
:103290000693ADF80820ADF82820120C8DF80A200E
:1032A0008DF82A20C2E700BF9CD60690A4D60690CF
:1032B000ACD60690B8D60690C0D60690CCD606906E
:1032C00094D606902D2D2D00B4D6069010B5046826
:1032D000D4F8DC01002835D094F80012036881F09E
:1032E0000101DB6984F800129847D4F8DC01036817
:1032F0005B69984794F8F03193B9134A94F8003217
:10330000B3B1124B092104F13800FEF745FD94F8E2
:1033100000327BB10E490F48BDE8104011F0F8B8FB
:10332000D4F8F43163B994F800320B4A002BE8D199
:10333000054BE7E709490748BDE8104011F0E8B838
:10334000074ADBE710BD00BF74DD069090D60690FB
:10335000D4D60690DCD606907CD60690D8D60690B9
:1033600084D6069070B50C6884B015688CB123685B
:10337000102206686946DB682046013598472046DA
:1033800002F04AFA6B460246294606F13800FEF77B
:1033900003FD04B070BD00BF2DE9F0410646D0F832
:1033A000DC0184B00C4610B103689B6A9847D6F8DC
:1033B000E03106F13808C6F8EC41002553F8240046
:1033C0000368C6F8DC015B6A9847D6F8DC0196F81A
:1033D00000120368DB699847D6F8DC0103685B6973
:1033E00098474046FEF708FDD6F8DC0101F01CFACC
:1033F000234B024600214046FEF7CEFC1EE0D6F8E5
:10340000DC0101F015FA0446B8B102F009FA0346EE
:103410002046002B11DB02F003FA236810226946D4
:10342000DB68074620469847204602F0F5F96B46D0
:103430000246791C4046FEF7AFFC0135D6F8DC01A8
:1034400001F000FA85422946D9D396F8F03143B10C
:10345000D6F8F43193B996F800320A4A33B9084BDA
:1034600005E0074A96F80032002BF8D0064B0921F8
:10347000404604B0BDE8F041FEF78EBC034AF1E7D8
:1034800074DD06907CD6069090D6069084D6069081
:103490000068D0E978239A420CD09B1AD0F8EC113E
:1034A0009B1021B101398B4204D9FFF775BF591E1A
:1034B000002BFAD1704700BF0068D0E978239A4208
:1034C0000BD09B1AD0F8EC119B105A1E914205D2DA
:1034D00001318B4201D9FFF75FBF70470021FFF731
:1034E0005BBF00BF0368F0B50646D3F8DC0185B0CA
:1034F000002849D00F46002503E033680135D3F892
:10350000DC0101F09FF9854229463DD23368D3F8AA
:10351000DC0101F08DF904460028EED002F07EF9BE
:10352000BB689842E9D1236820469B6898470028E9
:10353000E3D1786890ED040AFEF7F0FC204602F033
:103540001FFA204602F06CF9002814DB2046376889
:1035500002F066F9236810226946DB6805462046BA
:103560009847204602F058F96B460246691C07F15D
:103570003800FEF711FC3368D3F8DC0103685B699F
:1035800005B0BDE8F040184705B0F0BD4F4BF0B5B1
:103590001D6883B01DB395F8F83184460E46144675
:1035A000FBB9D5F8DC0195F8F031002865D0002B87
:1035B00054D0D5F8F431012B74D09CB3DCE9003041
:1035C000D6E9001203EB840453F8046B41F8046B52
:1035D000A34250F8046B42F8046BF5D122E003B02B
:1035E000F0BDD5F8FC010028DBD0036801924A68E1
:1035F00000921F690B68DCE90012B84794B1D6E964
:103600000007A60007EB8404A04202D28219974269
:1036100015D33246002127F050FE324600213846AD
:1036200027F04BFE9FED2A0AD5F8F430002BD6DDAB
:10363000D5F8DC0003B0BDE8F04010F031BF002346
:1036400040F8043B904247F8043BEBD0002340F89D
:10365000043B904247F8043BF1D1E3E70268019450
:103660007368009333681469DCE90012A047D5F849
:10367000DC0103681B6A9847D6E7002B99D1002C20
:10368000D0D0DCE90030D6E9001203EB840453F813
:10369000046B41F8046BA34250F8046B42F8046BCE
:1036A000F5D1BFE7002CBDD0DCE90030D6E900122F
:1036B00003EB840453F8046B41F8046BA34250F805
:1036C000046B42F8046BF5D1ACE700BF8809002415
:1036D000000000000368F0B50646D3F8DC0185B0B1
:1036E000002854D00F46002503E033680135D3F895
:1036F000DC0101F0A7F88542294648D23368D3F8A7
:10370000DC0101F095F804460028EED002F086F8BE
:10371000BB689842E9D1236820469B6898470228F5
:10372000E3D1204602F0D4FA204602F079F80028CE
:1037300014DB2046376802F073F8236810226946CC
:10374000DB68054620469847204602F065F86B4640
:103750000246691C07F13800FEF71EFB204602F006
:103760005BF8014620460C4602F03AF8FDEEC07ABE
:103770000848214617EE902A10F0CAFE3368D3F8A5
:10378000DC0103685B6905B0BDE8F040184705B08F
:10379000F0BD00BFECD606900368F0B50646D3F83E
:1037A000DC0185B0002848D00F46002503E03368CF
:1037B0000135D3F8DC0101F045F8854229463CD2B9
:1037C0003368D3F8DC0101F033F804460028EED06A
:1037D00002F024F8BB689842E9D1236820469B6830
:1037E00098470128E3D1F968002928DD236820469D
:1037F0005B699847204602F013F8002814DB204646
:10380000376802F00DF8236810226946DB68054628
:1038100020469847204601F0FFFF6B460246691C90
:1038200007F13800FEF7B8FA3368D3F8DC01036813
:103830005B6905B0BDE8F040184705B0F0BDD9D0D0
:103840002368494220469B699847D3E710B5044650
:10385000FFF7F6FA0E4B204640F8383BFCF7D0FF56
:10386000002301210B4A2046C4F8EC3184F8F031E2
:10387000C4F8F41184F8F831C4F8FC3184F800324B
:103880001460C4E97733C4E97933C4E9813310BDE6
:10389000FCE906908809002430B5002385B05E4914
:1038A000051D5E4A04460391694602921A4600903D
:1038B00028460193FEF798FC029B1BB10322694640
:1038C00068469847564A0023694628460392554A57
:1038D00002920422CDE90043FEF786FC029B1BB155
:1038E00003226946684698474F4A0023694628469E
:1038F00003924E4A02920222CDE90043FEF774FC85
:10390000029B1BB10322694668469847484A002338
:10391000694628460392474A02920222CDE90043B3
:10392000FEF756FD029B1BB1032269466846984785
:10393000414A0023694628460392404A02920322E4
:10394000CDE90043FEF744FD029B1BB1032269460B
:103950006846984700223A4B69462846039301235C
:10396000CDE90042374A02920222FEF731FD029B66
:103970001BB1032269466846984700220223694624
:103980002846CDE90042304A0392304A02921A4654
:10399000FEF71EFD029B1BB103226946684698474D
:1039A00000222B4B6946284603930223CDE90042AF
:1039B000284A02920322FEF70BFD029B1BB1032251
:1039C0006946684698470022234B69462846039378
:1039D0000323CDE90042214A02920222FEF7F8FCBD
:1039E000029B1BB1032269466846984700210323C6
:1039F0001B4A284601911B4903921A4602916946C7
:103A00000094FEF7E5FC029B1BB103226946684661
:103A1000984705B030BD00BFE5340490ED2E04900A
:103A200099370490152F0490D53604903D2F0490BB
:103A3000B9340490652F04904D3B04908D2F049071
:103A400091340490B52F0490DD300490DD2F049064
:103A50005131049005300490A52E04902D3004902F
:103A6000CD32049055300490D0F8FC21002A59D072
:103A700090F8F831F0B504468FB02BB392F844308B
:103A800023BB294B02AE294A06AD1B680AAF06923A
:103A90001A0CADF80830ADF828308DF80A208DF8F2
:103AA0002A2038343346224A01212046FEF774F991
:103AB0002B46204A02212046FEF76EF93B461E4A5D
:103AC00003212046FEF768F90FB0F0BDD36B02AEBC
:103AD000126C1021304606AD00920AAF174A27F04B
:103AE0001DFBD4F8FC31164A102193ED0D7A2846BF
:103AF000B7EEC77A8DED007B27F010FBD4F8FC31D0
:103B000010213846D3ED0E7AF5EEC07AB7EEE76AAB
:103B1000F1EE10FA8DED006BCCBF0A4A0A4A27F08D
:103B2000FDFABEE7704700BFB4D606902D2D2D00DC
:103B3000B8D60690C0D60690CCD6069094D60690FD
:103B40009CD60690A4D60690ACD6069070B50468B4
:103B500094F8F8517DB1D4F8EC110022D4E978033F
:103B600084F8F8211B1AB1EBA30F1CD22046BDE844
:103B70007040FFF711BCD4F8FC31A3B1012304F16C
:103B8000380684F8F051304684F8F831FEF734F9FD
:103B900030462946044B054AFEF7FEF82046BDE8AC
:103BA0007040FFF761BF70BD74DD0690F4D60690DB
:103BB0002DE9F043044638302DED028B85B00FF02F
:103BC000ABF9D048B0EE408A10F0A2FCFC2024F003
:103BD000B8F8064603F092FCB0EE480A304603F00F
:103BE000B1FAD4E97932934200F0968143F8046B3C
:103BF000C4F8E4317C2024F0A4F806460BF004FD60
:103C0000B0EE480A30460BF033FDD4E979329342E6
:103C100000F0B08143F8046BC4F8E4314FF4A270B3
:103C200024F08FF8064604F039FAB0EE480A304620
:103C300003F0AEFCD4E97932934200F0C78143F837
:103C4000046BC4F8E431382024F07BF806460CF00D
:103C5000CDF9B0EE480A30460CF0E6F8D4E97932F6
:103C6000934200F0DF8143F8046BC4F8E43148204C
:103C700024F067F8064605F0AFFAB0EE480A304681
:103C800005F096F8D4E97932934200F0F78143F8D1
:103C9000046BC4F8E4319C4824F053F8064602F063
:103CA000B1FFB0EE480A304602F0D6F9D4E97932D5
:103CB000934200F00F8243F8046BC4F8E43144F2FD
:103CC000440024F03EF8064605F002F8B0EE480A3B
:103CD000304604F025FAD4E97932934200F0268286
:103CE00043F8046BC4F8E431C02024F02AF80646F7
:103CF00009F0A2FCB0EE480A304608F0A1FCD4E975
:103D00007932934200F03E8243F8046BC4F8E43108
:103D1000D02024F016F8064606F03CF8B0EE480A2B
:103D2000304605F041FFD4E97932934200F05682E3
:103D300043F8046BC4F8E431E42024F002F80646AA
:103D400006F0DEFDB0EE480A304606F06DF8D4E924
:103D50007932934200F06E8243F8046BC4F8E43188
:103D60004FF4887023F0EDFF064607F009FDB0EE32
:103D7000480A304607F048FDD4E97932934200F012
:103D8000858243F8046BC4F8E431C82023F0D9FFDE
:103D9000064605F031FCB0EE480A304605F08EFAD2
:103DA000D4E97932934200F09D8243F8046BC4F861
:103DB000E4315C2023F0C5FF06460CF0ABFAB0EE10
:103DC000480A30460CF0D0FAD4E97932934200F038
:103DD000B58243F8046BC4F8E431602023F0B1FFEE
:103DE000064608F05BF9B0EE480A304608F06CF978
:103DF000D4E97932934200F0CC8243F8046BC4F8E2
:103E0000E431602023F09DFF064607F0B5FFB0EED9
:103E1000480A304607F0ECFFD4E97932934244D0A7
:103E200043F8046BC4F8E431384810F071FB5420B7
:103E300023F087FF05460AF081FAB0EE480A2846CB
:103E4000C4F8FC5109F088FCD4E97856AE4227D07A
:103E5000DFF8C0802E4F002355F8040B6946CDE9EA
:103E60000043CDE9027800F0F3FC029B93B10322FA
:103E7000694668469847AE42EDD1D4E978239A4224
:103E80000ED00021204605B0BDEC028BBDE8F0430A
:103E9000FFF782BAAE42DED1D4E978239A42F0D15C
:103EA00005B0BDEC028BBDE8F083D4F8E0816FF083
:103EB0006042A3EB0805B2EBA50F4FEAA50300F0A3
:103EC000B183012B194638BF01215B1880F08D8327
:103ED000934228BF13469F00384623F032FF2B1D24
:103EE000002D4651814600EB030600F37D82B8F1B8
:103EF000000F40F032834F44C4E97896C4F8E8716B
:103F000092E700BF00D706904400010018D7069042
:103F10007D30049065330490D4F8E0816FF0604206
:103F2000A3EB0805B2EBA50F4FEAA50300F07A83D7
:103F3000012B194638BF01215B1880F06283934240
:103F400028BF13464FEA8309484623F0FAFE002DA6
:103F5000465105F104060746064400F3ED82B8F128
:103F6000000F40F0F58207EB0903C4E97876C4F846
:103F7000E8313FE6D4F8E0816FF06042A3EB08053A
:103F8000B2EBA50F4FEAA50300F04C83012B1946B5
:103F900038BF01215B1880F03783934228BF134656
:103FA0009F00384623F0CDFE2B1D002D4651814643
:103FB00000EB030600F3B482B8F1000F40F0D782A3
:103FC0004F44C4E97896C4F8E87127E6D4F8E08154
:103FD0006FF06042A3EB0805B2EBA50F4FEAA50313
:103FE00000F02083012B194638BF01215B1880F0B7
:103FF0000D83934228BF13469F00384623F0A1FE4D
:104000002B1D002D4651814600EB030600F37C82F8
:10401000B8F1000F40F0A6824F44C4E97896C4F886
:10402000E87110E6D4F8E0816FF06042A3EB080578
:10403000B2EBA50F4FEAA50300F0F482012B19465D
:1040400038BF01215B1880F0E582934228BF1346F8
:104050009F00384623F075FE2B1D002D46518146EA
:1040600000EB030600F34482B8F1000F40F08482B5
:104070004F44C4E97896C4F8E871F8E5D4F8E081D3
:104080006FF06042A3EB0805B2EBA50F4FEAA50362
:1040900000F0C882012B194638BF01215B1880F05F
:1040A000B782934228BF13469F00384623F049FE4B
:1040B0002B1D002D4651814600EB030600F30C82B8
:1040C000B8F1000F40F05D824F44C4E97896C4F81F
:1040D000E871E0E5D4F8E0816FF06042A3EB0805F9
:1040E000B2EBA50F4FEAA50300F09C82012B194605
:1040F00038BF01215B1880F09382934228BF13469A
:104100009F00384623F01DFE2B1D002D4651814691
:1041100000EB030600F3D481B8F1000F40F04582B4
:104120004F44C4E97896C4F8E871C8E5D4F8E08152
:104130006FF06042A3EB0805B2EBA50F4FEAA503B1
:1041400000F07082012B194638BF01215B1880F006
:104150005082934228BF13469F00384623F0F1FD5A
:104160002B1D002D4651814600EB030600F39C8178
:10417000B8F1000F40F014824F44C4E97896C4F8B7
:10418000E871B1E5D4F8E0816FF06042A3EB080577
:10419000B2EBA50F4FEAA50300F04482012B1946AC
:1041A00038BF01215B1880F02882934228BF134654
:1041B0009F00384623F0C5FD2B1D002D465181463A
:1041C00000EB030600F36481B8F1000F40F0F281C8
:1041D0004F44C4E97896C4F8E87199E5D4F8E081D1
:1041E0006FF06042A3EB0805B2EBA50F4FEAA50301
:1041F00000F01882012B194638BF01215B1880F0AE
:10420000FA81934228BF13469F00384623F099FD58
:104210002B1D002D4651814600EB030600F32C8137
:10422000B8F1000F40F0CB814F44C4E97896C4F850
:10423000E87181E5D4F8E0816FF06042A3EB0805F6
:10424000B2EBA50F4FEAA50300F0EC81012B194654
:1042500038BF01215B1880F0DF81934228BF1346ED
:104260009F00384623F06DFD2B1D002D46518146E1
:1042700000EB030600F3F480B8F1000F40F08B81EF
:104280004F44C4E97896C4F8E87169E5D4F8E08150
:104290006FF06042A3EB0805B2EBA50F4FEAA50350
:1042A00000F0C081012B194638BF01215B1880F056
:1042B000B581934228BF13469F00384623F041FD45
:1042C0002B1D002D4651814600EB030600F3BC80F8
:1042D000B8F1000F40F05A814F44C4E97896C4F811
:1042E000E87152E5D4F8E0816FF06042A3EB080575
:1042F000B2EBA50F4FEAA50300F09481012B1946FC
:1043000038BF01215B1880F06E81934228BF1346AD
:104310009F00384623F015FD2B1D002D4651814688
:1043200000EB030600F38480B8F1000F40F04C81ED
:104330004F44C4E97896C4F8E8713AE5D4F8E081CE
:104340006FF06042A3EB0805B2EBA50F4FEAA5039F
:1043500000F06881012B194638BF01215B1880F0FD
:104360004E81934228BF13469F00384623F0E9FC54
:104370002B1D002D4651814600EB03064CDCB8F1A5
:10438000000F40F026814F44C4E97896C4F8E871E4
:1043900023E5D4F8E0816FF06042A3EB0805B2EBAF
:1043A000A50F4FEAA50300F03D81012B194638BF48
:1043B00001215B1880F01B81934228BF13469F00A8
:1043C000384623F0BEFC2B1D002D4651814600EBE4
:1043D000030615DCB8F1000F40F000814F44C4E93A
:1043E0007896C4F8E8710CE541462A4627F053F860
:1043F000D4F8E811A1EB0801404623F09EFC7AE5D1
:1044000041462A4627F047F8D4F8E811A1EB080105
:10441000404623F092FCE1E741462A4627F03BF86C
:10442000D4F8E811A1EB0801404623F086FCAAE786
:1044300041462A4627F02FF8D4F8E811A1EB0801ED
:10444000404623F07AFC73E741462A4627F023F8DA
:10445000D4F8E811A1EB0801404623F06EFC3BE7DD
:1044600041462A4627F017F8D4F8E811A1EB0801D5
:10447000404623F062FC03E741462A4627F00BF84A
:10448000D4F8E811A1EB0801404623F056FCCBE636
:1044900041462A4626F0FFFFD4F8E811A1EB0801B7
:1044A000404623F04AFC93E641462A4626F0F3FFB5
:1044B000D4F8E811A1EB0801404623F03EFC5BE68E
:1044C00041462A4626F0E7FFD4F8E811A1EB08019F
:1044D000404623F032FC23E641462A4626F0DBFF25
:1044E000D4F8E811A1EB0801404623F026FCEBE5E7
:1044F00041462A4626F0CFFFD4F8E811A1EB080187
:10450000404623F01AFCB3E541462A4626F0C3FF95
:10451000D4F8E811A1EB0801404623F00EFC7BE53E
:1045200041462A4626F0B7FFD4F8E811A1EB08016E
:10453000404623F002FC43E541462A4626F0ABFF05
:10454000D4F8E811A1EB0801404623F0F6FB0AE598
:10455000D4F8E811A1EB0801F6E7D4F8E811A1EBD3
:10456000080149E7D4F8E811A1EB0801D4E7D4F831
:10457000E811A1EB0801DBE7D4F8E811A1EB080191
:10458000BEE7D4F8E811A1EB0801ADE7D4F8E811D3
:10459000A1EB080160E7D4F8E811A1EB080167E797
:1045A000D4F8E811A1EB080186E7D4F8E811A1EBF3
:1045B00008018DE7D4F8E811A1EB080170E7D4F801
:1045C000E811A1EB08015FE7D4F8E811A1EB0801BD
:1045D00036E7D4F8E811A1EB080125E7D4F8E81193
:1045E000A1EB080114E7114F93E6104F74E40F4F4D
:1045F000E6E60E4FB1E50D4F07E60C4FD9E50B4F40
:10460000B3E6DFF828909FE4084FCAE4074FF4E4CC
:10461000064F4AE5054F1CE5044F22E6034F4CE6E2
:10462000024F6EE5024823F0A7FB00BFFCFFFF7FAF
:1046300008D6069038B500F138050446FEF718FC98
:1046400001462846FDF780FB2046FFF7B1FA2046D9
:10465000FFF722F928460249BDE838400EF058BC61
:104660008D3504902DE9F041079E15461A460368E2
:104670000446069FD3F80C803346C047206829467D
:104680003346C5683A462046AC46BDE8F04160472F
:1046900080ED070A704700BF817570479FED010AE2
:1046A000704700BF00000000704700BF38B501220E
:1046B00000230F4D044603618282C0E90053C0E924
:1046C00002330C48A375A06100202362E061E3621D
:1046D000C4E9093351B10D460846FBF731FE0130FC
:1046E00023F042FB2946606026F0CDFE204638BD0F
:1046F00014EA069000803B4710B50C4B0446406816
:10470000236018B123F01BFB00236360A36A23B16D
:1047100004F12001032208469847A06818B12169D6
:10472000091A23F00AFB204610BD00BF14EA0690C8
:1047300089B12DE9F843044608460D4601F070F8AA
:10474000023009D0D4E9033293422BD043F8045B02
:10475000E360BDE8F8837047D4E90268464557D066
:104760004FF0FF3901E0B04513D056F8047B002F1D
:10477000F9D0384601F054F80028F4DB384601F04F
:104780004FF84845EFDD384601F04AF8B04581461C
:10479000EBD109F10101284601F062F8D4E90332B6
:1047A0009342D3D1D4F808806FF06042A3EB08069F
:1047B000B2EBA60F4FEAA6032ED0012B194638BF45
:1047C00001215B1826D2934228BF13469F0038462A
:1047D00023F0B7FA002E855106F104058146054401
:1047E0000EDCB8F1000F04D14F44C4E902952761F3
:1047F000AFE72169A1EB0801404623F09EFAF3E7F9
:104800004146324626F047FE2169A1EB0801F3E755
:104810000021C0E7024FDAE7024823F0ADFA00BFFB
:10482000FCFFFF7F08D606904068704741757047CF
:10483000D0E902239B1AB1EBA30F34BF52F8210039
:1048400000207047D0E90203181A8010704700BF9B
:10485000F0B587B00023054602AC02930593C4E986
:1048600001338B6803B30E46022220469847D6E9EF
:10487000023794E8030005F12002CDE9000192E837
:10488000030084E80300DDE9000182E80300AE6A6A
:10489000AB62EB6A0496EF6205931EB103222146D8
:1048A0002046B04707B0F0BD1F46E2E7836AFBB180
:1048B000D0E9022330B59B1A83B00446B1EBA30FB5
:1048C00014D252F821508DB1284600F0A9FF0028DB
:1048D0000CDB284600F0A4FFA36ACDE9005043B1E9
:1048E000E36A01AA694604F12000984703B030BD8D
:1048F000704723F044FA00BF90ED370A704700BFBD
:1049000010B50446FFF7D2FE00220B494FF0FF33EB
:104910004FF07C50C4F8D420C4F8DC202160002182
:10492000064A2063204684F83810C4F8E030C4F802
:10493000D820C4F8E43010BD48EA06903333333F42
:10494000034B10B504460360FFF7D6FE204610BDAA
:1049500048EA0690D0F8E430002B10B52DED028B1C
:1049600006DB0446D0E90212521AB3EBA20F06D3BB
:10497000B6EE008AB0EE480ABDEC028B10BD51F8CD
:10498000230001F0A5FAD4ED077AF5EEC07AF1EE36
:1049900010FA03DD9FED270A27EE800AD4F8E030F5
:1049A000DFED247A002B87EE808AE3DBD4E9021264
:1049B000521AB3EBA20FDDD251F8230003689B68B3
:1049C00098470028D6D1D4F8E0200621A36853F8F0
:1049D000220000F083FF0628CCD801A353F820F072
:1049E0002B4A0490214A0490174A04907549049078
:1049F0000D4A0490034A0490FD49049038EE088A59
:104A0000B8E7F7EE087A28EE278AB3E7F7EE047ADC
:104A100028EE278AAEE7F6EE087A28EE278AA9E77D
:104A2000F6EE007A28EE278AA4E7F5EE007A28EE63
:104A3000278A9FE700007042D0F8E030002B20DB8F
:104A4000D0E9021210B5521A0446B3EBA20F15D2E8
:104A500051F8230003689B68984778B9D4F8E020A0
:104A60000621A36853F8220000F038FF062805D875
:104A7000DFE800F0190A0D0410131600B7EE000A63
:104A800010BDB7EE000A7047B6EE000A10BDB6EED4
:104A9000080A10BDB7EE040A10BDB7EE080A10BD33
:104AA000B0EE000A10BDB5EE000A10BD90F8383027
:104AB00010B504462DED028B002B4ED0D0F8E4301B
:104AC000002B05DBD0E90212521AB3EBA20F54D32C
:104AD000DFED318AD4ED077AF5EEC07AF1EE10FA07
:104AE00003DDDFED2E8A67EEA88AB7EE007AD4EDFB
:104AF000357A94ED068AA37D77EEC77AF5EEC07A13
:104B0000C4ED357AF1EE10FA17D9D4ED377ADFED2E
:104B1000246AB7EE006A9FED237A28EE268AC6EE55
:104B2000086A77EEE67AC7FE877AC4ED377AC3B9AA
:104B30009FED1C0ABDEC028B10BD2BBBF0EE486A4A
:104B40009FED166AF7EE007A86EE287A27EE087A4D
:104B5000B0EE668A84ED357AD9E70023C0F8DC3000
:104B6000E6E7002104F13C0022F08AF9D4ED367A20
:104B7000BDEC028B20EE270A10BD51F8230001F096
:104B8000A7F9F0EE408AA5E704F13C0022F01EFBF5
:104B9000D4ED066AA37DD3E70000F0420000704226
:104BA0008FC2F53D0000000038B5D0E90E452DED6F
:104BB000028BA54280ED070A0CD0B0EE408A54F873
:104BC000043BB0EE480A184613B11B689B6998472E
:104BD000A542F4D1BDEC028B38BD00BF70B5D0E961
:104BE0000E468175A6420AD00D4654F8043B29466C
:104BF000184613B11B68DB699847A642F5D170BD12
:104C000038B5D0E90E452DED028B9FED0C8AA542FB
:104C10000FD054F8043B1846002BF8D01B681B6AD1
:104C20009847B4EEC80AF1EE10FA30FE088AA542A1
:104C3000EFD1B0EE480ABDEC028B38BD0000000099
:104C400038B5D0E90E45A54209D054F8043B1846C2
:104C5000002BF8D01B685B6A9847A542F5D138BD98
:104C600038B5D0E90E45A54209D054F8043B1846A2
:104C7000002BF8D01B689B6A9847A542F5D138BD38
:104C80002DE9F84F0446007D894616461F462DED56
:104C9000028B00286DD0D4E90EECE64569D0206B7C
:104CA00068BBDEF8000020B10568ED68A847D4E9CC
:104CB0000EECACEB0E03042B1DD94FEA870801253F
:104CC0005EF825004246314600284AD0606C26F046
:104CD000E2FBA16B3B46324651F8250001350168E5
:104CE000D1F80C90616CC847D4E90EECACEB0E0324
:104CF000B5EBA30FE4D3BDEC028BBDE8F88F9D00AC
:104D0000104600212A4626F0D8FA94F83430002BB9
:104D100045D194F83530ABBBB7EE008AD4E90E3AF2
:104D20009A45E8D09846354401E0C245E3D058F8AA
:104D3000040B0028F9D003684946626CD3F80CB024
:104D40003B46D847002FF0D0636CB446DCED007AC8
:104D5000B3EC017AE7EE087AECEC017A6545F5D11F
:104D6000E3E70135B5EBA30FAAD3BDEC028BBDE899
:104D7000F88FBDEC028BBA0049463046BDE8F84FCB
:104D800026F089BBD4E90E23B7EE007A9B1A9B105C
:104D900007EE903AF8EE677A87EE278ABEE72A4652
:104DA0004946304626F077FBB3E700BF2DE9F04FC8
:104DB0001D46037D8A4693462DED028B85B0DDF8B6
:104DC0004080119E002B00F0BC800446D0E90E23E9
:104DD0009A4200F0B680C36C9E421DD9406C08B167
:104DE00022F0ADFFA06C08B122F0A9FF6FF0604384
:104DF000E6649E4234BFB0004FF0FF3022F0B4FFB3
:104E00006FF060436064E06C984234BF80004FF004
:104E1000FF3022F0A9FFA064236B002B3ED1D4F811
:104E200038C0DCF8000048B103685A465146CDE965
:104E300000861F692B46B847D4F838C0E36BA3EB54
:104E40000C03042B25D94FEA860901276046B34697
:104E500050F827604A462946002E69D0606C26F03B
:104E60001AFB4A464146A06C26F015FBA36B53F88B
:104E7000270001370368CDE9008BD3F810A02B463B
:104E8000D4E91112D047D4E90E031B1AB7EBA30FD4
:104E9000DED305B0BDEC028BBDE8F08FB70000217A
:104EA00028463A4626F009FA3A460021404626F0BE
:104EB00004FA94F83430002B60D194F83530002B8C
:104EC0004FD1B7EE008AD4E90E329342E1D0CDF84B
:104ED00008A09946CDF80CB02F449246AB4601E0AD
:104EE000CA45D6D059F8040B0028F9D003680196BA
:104EF000A26C00921D69636CDDE90212A847002EC6
:104F0000EED0606C4246A16C5B46B0EC017AD3ED0A
:104F1000007AE7EE087AE3EC017A9F42D2ED007A5C
:104F2000B1EC017AE8EE077AE2EC017AEDD1D7E74D
:104F30000137B7EBA30F8BD305B0BDEC028BBDE8F7
:104F4000F08FB60051462846324626F0A4FA324683
:104F50005946404605B0BDEC028BBDE8F04F26F047
:104F60009ABAD4E90E23B7EE007A9B1A9B1007EE8B
:104F7000903AF8EE677A87EE278AA4E73A465146D8
:104F8000284626F088FA3A465946404626F083FAE3
:104F900093E700BFF8B5D0E90E571B4B0646AF426A
:104FA000036008D119E0FFF7F5FF5021204622F0F9
:104FB000C4FEAF420CD055F8044B144B2046002CD5
:104FC000F7D0226852689A42EDD09047AF42F2D1B2
:104FD000D6E90E32934218BFF363706C18B122F019
:104FE000AEFE00237364B06C18B122F0A8FE00235B
:104FF000B364B06B18B1316C091A22F09EFE3046D2
:10500000FFF77AFB3046F8BD7CEA06901150049019
:1050100010B50446FFF7BEFF5021204622F08DFE5A
:10502000204610BD2DE9F04FD0E90E258DB09542F8
:1050300000F0A98093465BF8040B002800F0B780CD
:105040000368DFF878915B694B4540F0AF80D0E9A9
:105050000E37BB4200F0AB809A4601955AF8040B1C
:10506000002800F0898003685B694B4540F09C8014
:10507000D0E90E54A5427FD0A046CDF808A055F83F
:10508000040B002874D003685B694B4540F08A80AC
:10509000D0E90E36B3426BD09A4603955AF8040B0A
:1050A000002862D003685B694B4579D1D0E90E4591
:1050B000AC425AD0CDF818A0A246CDE904785AF8EF
:1050C000040B00284BD003685B694B455ED1D0E9E7
:1050D0000E239A4243D090461F460796CDF820A053
:1050E00002E09847474538D058F8040B0028F9D01B
:1050F00003685B694B45F4D1D0E90E4A5445F1D0C1
:105100002646099756F8040B10B303685B694B45B4
:1051100044D1D0E90E74A7421AD0CDE90A563D46D3
:1051200055F8040B80B103685B694B4532D1D0E977
:105130000E76B74208D057F8043B184613B11B68E7
:105140005B699847BE42F6D1AC42E9D1DDE90A5627
:10515000B245D7D1099F4745C6D1DDE9076A554514
:10516000ADD1DDF818A0DDE90478564596D1039D50
:10517000A84584D1DDF808A057457FF46FAF019DA5
:105180005D457FF458AF0DB0BDE8F08F98475545A9
:1051900095D1E6E79847AC42C2D1D7E79847D7E721
:1051A0009847E2E79847E3E79847E5E798475D4582
:1051B0007FF441AF0DB0BDE8F08F00BF25500490E3
:1051C0002DE9F04FD0E90E362DED028B9E4295B0C1
:1051D000044680ED060A00F08581B0EE408A9A46CA
:1051E00081465AF8044B002C00F0B3812368384AFA
:1051F0009B68934240F0A98184ED068AD4E90E7839
:10520000474500F05981CDF80CA0CDE9016457F86D
:10521000044B002C00F0498123682D4A9B6893427F
:1052200040F09C8184ED068AD4E90E239A4200F076
:105230002A81CDF810809B469046059758F8045B6C
:10524000002D00F01B812B68214A9B68934240F09F
:10525000778185ED068AD5E90E37BB4200F0FC80E8
:105260009A460895CDE9064B3C465AF8047B002F38
:1052700000F0EC803B68164A9B68934240F05B81EB
:1052800087ED068AD7E90E36B34200F0CD80099447
:105290009B46CDF828803446D0465BF8045B002D51
:1052A00000F0BB802B680A4A9B68934240F0318132
:1052B00085ED068AD5E90E32934200F09C809A462D
:1052C000CDF83490CDE90B741446474609E000BF91
:1052D000C1510490B0EE480A30469847544500F05A
:1052E00085805AF8046B002EF8D033689E4A9B687C
:1052F0009342EFD186ED068AD6E90E394B4560D050
:105300009846CDF840A0CDE90E5458F8044B002C37
:1053100051D02368944A9B68934240F0078184ED02
:10532000068AD4E90E5A554533D01397CDE9116456
:1053300055F8044B44B322688B4B92689A4240F074
:10534000F08084ED068AD4E90E67BE420AD056F892
:10535000043BB0EE480A184613B11B689B68984797
:10536000B742F4D180224FF40070E26422F0FCFCDA
:105370006FF060426064E06C904234BF80004FF098
:10538000FF3022F0F1FCA064AA45D1D1139FDDE9E2
:10539000116480234FF40070E36422F0E5FC6FF0A9
:1053A00060436064E06C984234BF80004FF0FF308F
:1053B00022F0DAFCA064C145A7D1DDF840A0DDE908
:1053C0000E5480234FF40070F36422F0CDFC6FF094
:1053D00060437064F06C984234BF80004FF0FF303F
:1053E00022F0C2FC5445B0647FF47BAFB8460C9CFD
:1053F0000B9FDDF8349080234FF40070EB6422F0B3
:10540000B3FC6FF060436864E86C984234BF80007E
:105410004FF0FF3022F0A8FCA8645C457FF43DAF5C
:10542000C246099CDDF8288080234FF40070FB649D
:1054300022F09AFC6FF060437864F86C984234BFB5
:1054400080004FF0FF3022F08FFCB86454457FF4A9
:105450000CAF089DDDE9064B80234FF40070EB6430
:1054600022F082FC6FF060436864E86C984234BFBD
:1054700080004FF0FF3022F077FCA864C3457FF432
:10548000DDAEDDE9048780234FF40070E36422F091
:105490006BFCE36C6FF060426064934234BF980031
:1054A0004FF0FF3022F060FCA064B8457FF4AFAE4F
:1054B000DDF80CA0DDE9016480234FF40070E364A3
:1054C00022F052FC6FF060436064E06C984234BF9D
:1054D00080004FF0FF3022F047FC5645A0647FF477
:1054E00080AE4C4680234FF40070E36422F03CFC15
:1054F000E36C6FF060426064934234BF98004FF0F9
:10550000FF3022F031FCA06415B0BDEC028BBDE889
:10551000F08FB0EE480A284698475C457FF4BDAE50
:105520007EE7B0EE480A204690472DE7B0EE480AE5
:10553000204698473FE7B0EE480A3846984785E747
:10554000B0EE480A2846984798E7B0EE480A204649
:10555000984756457FF445AE4C46C3E7B0EE480A3F
:1055600020469847A1E700BFC151049038B50446D2
:105570001546FFF79BF800230649012220462563C4
:10558000A3632160A286E364C4E90F33C4E9113345
:1055900038BD00BF7CEA0690C9B1D0E90F322DE9D1
:1055A000F047934204460D4612D043F8041BC363F0
:1055B00094ED060AB5EEC00AF1EE10FA05DD2B688F
:1055C00028469B68BDE8F0471847BDE8F08770475C
:1055D000D0F838806FF06041A3EB0806B1EBA60F5E
:1055E0004FEAA6032CD0012B1A4638BF01229F1880
:1055F00024D28F4228BF0F46BF00384606F1040A66
:1056000022F09FFB002E81468244855107DCB8F1D1
:10561000000F0FD14F44C4E90E9A2764C8E74146F2
:10562000324625F038FF216CA1EB0801404622F0FC
:1056300084FBEFE7216CA1EB0801F7E7024FDCE701
:10564000024822F099FB00BFFCFFFF7F08D60690BE
:1056500080F83410704700BF80F83510704700BFE5
:10566000D0ED027AF4EEC07AF1EE10FA08DCD0ED5B
:10567000037AF4EEC07AF1EE10FA58BFF0EE407AF9
:10568000C0ED047A704700BF002968D0F0B5164617
:1056900083B08AB1C36904460D46012B0ED0022B9C
:1056A0001DD090ED047A3146304A2846B7EEC77ACD
:1056B0008DED007B25F032FD03B0F0BDD0ED047A16
:1056C000314690ED087A2846284A27EE277AB7EE29
:1056D000C77A8DED007B25F021FD03B0F0BD436A54
:1056E000ABB3876A002F32DDD0ED037A013F90ED36
:1056F000027AF4EEC77AF1EE10FA33D9D0ED046AEB
:1057000077EEC77A36EEC77AC7EE276A07EE907A49
:10571000B8EEE77AF6EE007AE7EE267AFDEEE77A63
:1057200017EE903A002B1BDB9F42A8BF1F463A465C
:1057300061680F480EF0ECFE636A0E4A314653F87A
:105740002730284603B0BDE8F04025F0E7BC0A4A00
:105750003146284603B0BDE8F04025F0DFBC704775
:105760000027E4E7DFED056AD0E700BF34D70690F5
:105770003CD7069094D70690B4D60690000000005F
:1057800038B504460F4862614FF07E522060002019
:1057900084ED020AC4ED030A84ED041A60606062BD
:1057A0002262A062C4E9063051B10D460846FAF7FC
:1057B000C7FD013022F0D8FA2946606025F063FE6B
:1057C000204638BDB0EA069010B5044B0446406848
:1057D000236008B122F0B3FA204610BDB0EA06906B
:1057E00090ED040A704700BFD0ED037A90ED027A85
:1057F000F4EEC77AF1EE10FA08D9D0ED046A77EE2C
:10580000C77A36EEC77A87EE270A70479FED010AFE
:10581000704700BF00000000406870474069704753
:1058200080697047B5EEC00AF1EE10FA12D4F7EEB7
:10583000006AB4EEE60AF1EE10FA76FE806AD0ED68
:10584000027A90ED037A37EE677AE7EE267AC0EDBA
:10585000047A7047DFED016AF1E700BF0000000045
:1058600081617047C161704780ED080A704700BFD1
:105870002DE9F041171E064688460BDD0D1F00245A
:105880002246013455F8043F716804480EF040FE8A
:10589000A742F5D1C6E90987BDE8F0816CD706902B
:1058A000F4EEC00AF1EE10FA0CD9D0ED047A80EDD6
:1058B000020AB4EEE70AC0ED030AF1EE10FA02DDC7
:1058C00080ED040A7047F4EEE70AF1EE10FA54BFD7
:1058D000B0EE670AB0EE600AF2E700BFD0ED037ADF
:1058E00090ED027AF4EEC77AF1EE10FA1BD9D0ED02
:1058F000046A77EEC77A36EEC77AC7EE276A07EEF4
:10590000901AB8EEE77AF6EE007AE7EE267AFDEE28
:10591000E77A17EE900A002803DB8842A8BF084602
:10592000704700207047DFED016AE8E700000000E3
:1059300000207047034B10B504460360FFF744FF97
:10594000204610BDCCEA0690054B10B50446036016
:10595000FFF73AFF3021204622F0EFF9204610BD34
:10596000CCEA069038B515461A46049B0446FFF764
:1059700007FF024B2046E562236038BDCCEA069063
:10598000C36AF0EE400A013B10B50446052B06D869
:10599000DFE803F015202B36031060EE000AD4ED8B
:1059A000027A94ED037A37EE677AE7EE207AC4ED57
:1059B000047A10BD60EE007A60EE270AEFE79FEDF3
:1059C0001C0A22F0C1FBDFED1B7ADFED1B0AE0EEC3
:1059D000270AE4E7B2EE020A22F0B6FBF4EE007A00
:1059E000FCEE000AE0EE270AD9E79FED140A22F048
:1059F000ABFBDFED137ADFED130AE0EE270ACEE70B
:105A0000F6EE007AB4EEE70AF1EE10FA04D570EE85
:105A1000007A60EE270AC2E7B7EE007A77EE407AA6
:105A200077EEA76AA7EEE67AF0EE470AB7E700BF7F
:105A3000721C574283379B3C83379BBCA154983CD4
:105A4000DE6C82BFDE6C823F01207047034B10B5D5
:105A500004460360FFF7B8FE204610BDE8EA069052
:105A6000054B10B504460360FFF7AEFE3821204613
:105A700022F063F9204610BDE8EA069038B50446E6
:105A80002DED028B08EE101A12F040FC236B054638
:105A9000C21AB2F5967F00D823BBB7EE006AF0EECB
:105AA000465AB8EEC88AD4ED0B6A94ED047AD4ED68
:105AB000027A66EEC86A84ED0D6A2563A6EEA57AC1
:105AC000B4EEE77AF1EE10FA07D4D4ED037AB4EE2F
:105AD000E77AF1EE10FA77FE877ABDEC028BC4ED1F
